{
  "_format": "hh-sol-artifact-1",
  "contractName": "TipSplitter",
  "sourceName": "contracts/TipSplitter.sol",
  "abi": [
    {
      "inputs": [
        {
          "internalType": "address",
          "name": "_feeRecipient",
          "type": "address"
        }
      ],
      "stateMutability": "nonpayable",
      "type": "constructor"
    },
    {
      "inputs": [
        {
          "internalType": "address",
          "name": "owner",
          "type": "address"
        }
      ],
      "name": "OwnableInvalidOwner",
      "type": "error"
    },
    {
      "inputs": [
        {
          "internalType": "address",
          "name": "account",
          "type": "address"
        }
      ],
      "name": "OwnableUnauthorizedAccount",
      "type": "error"
    },
    {
      "inputs": [
        {
          "internalType": "address",
          "name": "token",
          "type": "address"
        }
      ],
      "name": "SafeERC20FailedOperation",
      "type": "error"
    },
    {
      "anonymous": false,
      "inputs": [
        {
          "indexed": false,
          "internalType": "address",
          "name": "oldRecipient",
          "type": "address"
        },
        {
          "indexed": false,
          "internalType": "address",
          "name": "newRecipient",
          "type": "address"
        }
      ],
      "name": "FeeRecipientUpdated",
      "type": "event"
    },
    {
      "anonymous": false,
      "inputs": [
        {
          "indexed": false,
          "internalType": "uint256",
          "name": "oldFee",
          "type": "uint256"
        },
        {
          "indexed": false,
          "internalType": "uint256",
          "name": "newFee",
          "type": "uint256"
        }
      ],
      "name": "FeeUpdated",
      "type": "event"
    },
    {
      "anonymous": false,
      "inputs": [
        {
          "indexed": true,
          "internalType": "address",
          "name": "previousOwner",
          "type": "address"
        },
        {
          "indexed": true,
          "internalType": "address",
          "name": "newOwner",
          "type": "address"
        }
      ],
      "name": "OwnershipTransferred",
      "type": "event"
    },
    {
      "anonymous": false,
      "inputs": [
        {
          "indexed": true,
          "internalType": "address",
          "name": "token",
          "type": "address"
        },
        {
          "indexed": true,
          "internalType": "address",
          "name": "from",
          "type": "address"
        },
        {
          "indexed": true,
          "internalType": "address",
          "name": "to",
          "type": "address"
        },
        {
          "indexed": false,
          "internalType": "uint256",
          "name": "amount",
          "type": "uint256"
        },
        {
          "indexed": false,
          "internalType": "uint256",
          "name": "fee",
          "type": "uint256"
        }
      ],
      "name": "TipSent",
      "type": "event"
    },
    {
      "inputs": [],
      "name": "feeBps",
      "outputs": [
        {
          "internalType": "uint256",
          "name": "",
          "type": "uint256"
        }
      ],
      "stateMutability": "view",
      "type": "function"
    },
    {
      "inputs": [],
      "name": "feeRecipient",
      "outputs": [
        {
          "internalType": "address",
          "name": "",
          "type": "address"
        }
      ],
      "stateMutability": "view",
      "type": "function"
    },
    {
      "inputs": [],
      "name": "owner",
      "outputs": [
        {
          "internalType": "address",
          "name": "",
          "type": "address"
        }
      ],
      "stateMutability": "view",
      "type": "function"
    },
    {
      "inputs": [],
      "name": "renounceOwnership",
      "outputs": [],
      "stateMutability": "nonpayable",
      "type": "function"
    },
    {
      "inputs": [
        {
          "internalType": "address",
          "name": "token",
          "type": "address"
        },
        {
          "internalType": "address",
          "name": "to",
          "type": "address"
        },
        {
          "internalType": "uint256",
          "name": "amount",
          "type": "uint256"
        }
      ],
      "name": "rescue",
      "outputs": [],
      "stateMutability": "nonpayable",
      "type": "function"
    },
    {
      "inputs": [
        {
          "internalType": "uint256",
          "name": "newFeeBps",
          "type": "uint256"
        }
      ],
      "name": "setFee",
      "outputs": [],
      "stateMutability": "nonpayable",
      "type": "function"
    },
    {
      "inputs": [
        {
          "internalType": "address",
          "name": "newRecipient",
          "type": "address"
        }
      ],
      "name": "setFeeRecipient",
      "outputs": [],
      "stateMutability": "nonpayable",
      "type": "function"
    },
    {
      "inputs": [
        {
          "internalType": "address",
          "name": "token",
          "type": "address"
        },
        {
          "internalType": "address",
          "name": "to",
          "type": "address"
        },
        {
          "internalType": "uint256",
          "name": "amount",
          "type": "uint256"
        }
      ],
      "name": "tip",
      "outputs": [],
      "stateMutability": "nonpayable",
      "type": "function"
    },
    {
      "inputs": [
        {
          "internalType": "address",
          "name": "to",
          "type": "address"
        }
      ],
      "name": "tipNative",
      "outputs": [],
      "stateMutability": "payable",
      "type": "function"
    },
    {
      "inputs": [
        {
          "internalType": "address",
          "name": "newOwner",
          "type": "address"
        }
      ],
      "name": "transferOwnership",
      "outputs": [],
      "stateMutability": "nonpayable",
      "type": "function"
    }
  ],
  "bytecode": "0x608060405260646001553480156200001657600080fd5b50604051620017ce380380620017ce83398181016040528101906200003c9190620002ac565b33600073ffffffffffffffffffffffffffffffffffffffff168173ffffffffffffffffffffffffffffffffffffffff1603620000b25760006040517f1e4fbdf7000000000000000000000000000000000000000000000000000000008152600401620000a99190620002ef565b60405180910390fd5b620000c3816200017e60201b60201c565b50600073ffffffffffffffffffffffffffffffffffffffff168173ffffffffffffffffffffffffffffffffffffffff160362000136576040517f08c379a00000000000000000000000000000000000000000000000000000000081526004016200012d906200036d565b60405180910390fd5b80600260006101000a81548173ffffffffffffffffffffffffffffffffffffffff021916908373ffffffffffffffffffffffffffffffffffffffff160217905550506200038f565b60008060009054906101000a900473ffffffffffffffffffffffffffffffffffffffff169050816000806101000a81548173ffffffffffffffffffffffffffffffffffffffff021916908373ffffffffffffffffffffffffffffffffffffffff1602179055508173ffffffffffffffffffffffffffffffffffffffff168173ffffffffffffffffffffffffffffffffffffffff167f8be0079c531659141344cd1fd0a4f28419497f9722a3daafe3b4186f6b6457e060405160405180910390a35050565b600080fd5b600073ffffffffffffffffffffffffffffffffffffffff82169050919050565b6000620002748262000247565b9050919050565b620002868162000267565b81146200029257600080fd5b50565b600081519050620002a6816200027b565b92915050565b600060208284031215620002c557620002c462000242565b5b6000620002d58482850162000295565b91505092915050565b620002e98162000267565b82525050565b6000602082019050620003066000830184620002de565b92915050565b600082825260208201905092915050565b7f496e76616c69642066656520726563697069656e740000000000000000000000600082015250565b6000620003556015836200030c565b915062000362826200031d565b602082019050919050565b60006020820190508181036000830152620003888162000346565b9050919050565b61142f806200039f6000396000f3fe6080604052600436106100915760003560e01c8063715018a611610059578063715018a61461015a5780638da5cb5b14610171578063d82555f11461019c578063e74b981b146101c5578063f2fde38b146101ee57610091565b806320ff430b1461009657806324a9d853146100bf57806325333bf5146100ea578063469048401461010657806369fe0e2d14610131575b600080fd5b3480156100a257600080fd5b506100bd60048036038101906100b89190610e62565b610217565b005b3480156100cb57600080fd5b506100d4610336565b6040516100e19190610ec4565b60405180910390f35b61010460048036038101906100ff9190610edf565b61033c565b005b34801561011257600080fd5b5061011b610627565b6040516101289190610f1b565b60405180910390f35b34801561013d57600080fd5b5061015860048036038101906101539190610f36565b61064d565b005b34801561016657600080fd5b5061016f6106df565b005b34801561017d57600080fd5b506101866106f3565b6040516101939190610f1b565b60405180910390f35b3480156101a857600080fd5b506101c360048036038101906101be9190610e62565b61071c565b005b3480156101d157600080fd5b506101ec60048036038101906101e79190610edf565b610937565b005b3480156101fa57600080fd5b5061021560048036038101906102109190610edf565b610a4d565b005b61021f610ad3565b600073ffffffffffffffffffffffffffffffffffffffff168373ffffffffffffffffffffffffffffffffffffffff16036103055760008273ffffffffffffffffffffffffffffffffffffffff168260405161027990610f94565b60006040518083038185875af1925050503d80600081146102b6576040519150601f19603f3d011682016040523d82523d6000602084013e6102bb565b606091505b50509050806102ff576040517f08c379a00000000000000000000000000000000000000000000000000000000081526004016102f690611006565b60405180910390fd5b50610331565b61033082828573ffffffffffffffffffffffffffffffffffffffff16610b5a9092919063ffffffff16565b5b505050565b60015481565b600073ffffffffffffffffffffffffffffffffffffffff168173ffffffffffffffffffffffffffffffffffffffff16036103ab576040517f08c379a00000000000000000000000000000000000000000000000000000000081526004016103a290611072565b60405180910390fd5b600034116103ee576040517f08c379a00000000000000000000000000000000000000000000000000000000081526004016103e5906110de565b60405180910390fd5b600061271060015434610401919061112d565b61040b919061119e565b90506000813461041b91906111cf565b905060008373ffffffffffffffffffffffffffffffffffffffff168260405161044390610f94565b60006040518083038185875af1925050503d8060008114610480576040519150601f19603f3d011682016040523d82523d6000602084013e610485565b606091505b50509050806104c9576040517f08c379a00000000000000000000000000000000000000000000000000000000081526004016104c09061124f565b60405180910390fd5b60008311156105a2576000600260009054906101000a900473ffffffffffffffffffffffffffffffffffffffff1673ffffffffffffffffffffffffffffffffffffffff168460405161051a90610f94565b60006040518083038185875af1925050503d8060008114610557576040519150601f19603f3d011682016040523d82523d6000602084013e61055c565b606091505b50509050806105a0576040517f08c379a0000000000000000000000000000000000000000000000000000000008152600401610597906112bb565b60405180910390fd5b505b8373ffffffffffffffffffffffffffffffffffffffff163373ffffffffffffffffffffffffffffffffffffffff16600073ffffffffffffffffffffffffffffffffffffffff167f7998b575c67cd3e565074e2e401816b0902dec2b12f8b9d946ad3b3f8f86ab6185876040516106199291906112db565b60405180910390a450505050565b600260009054906101000a900473ffffffffffffffffffffffffffffffffffffffff1681565b610655610ad3565b6103e881111561069a576040517f08c379a000000000000000000000000000000000000000000000000000000000815260040161069190611350565b60405180910390fd5b7f528d9479e9f9889a87a3c30c7f7ba537e5e59c4c85a37733b16e57c62df61302600154826040516106cd9291906112db565b60405180910390a18060018190555050565b6106e7610ad3565b6106f16000610bd9565b565b60008060009054906101000a900473ffffffffffffffffffffffffffffffffffffffff16905090565b600073ffffffffffffffffffffffffffffffffffffffff168273ffffffffffffffffffffffffffffffffffffffff160361078b576040517f08c379a000000000000000000000000000000000000000000000000000000000815260040161078290611072565b60405180910390fd5b600081116107ce576040517f08c379a00000000000000000000000000000000000000000000000000000000081526004016107c5906110de565b60405180910390fd5b60008390506000612710600154846107e6919061112d565b6107f0919061119e565b90506000818461080091906111cf565b905061082f3330868673ffffffffffffffffffffffffffffffffffffffff16610c9d909392919063ffffffff16565b61085a85828573ffffffffffffffffffffffffffffffffffffffff16610b5a9092919063ffffffff16565b60008211156108b1576108b0600260009054906101000a900473ffffffffffffffffffffffffffffffffffffffff16838573ffffffffffffffffffffffffffffffffffffffff16610b5a9092919063ffffffff16565b5b8473ffffffffffffffffffffffffffffffffffffffff163373ffffffffffffffffffffffffffffffffffffffff168773ffffffffffffffffffffffffffffffffffffffff167f7998b575c67cd3e565074e2e401816b0902dec2b12f8b9d946ad3b3f8f86ab6184866040516109279291906112db565b60405180910390a4505050505050565b61093f610ad3565b600073ffffffffffffffffffffffffffffffffffffffff168173ffffffffffffffffffffffffffffffffffffffff16036109ae576040517f08c379a00000000000000000000000000000000000000000000000000000000081526004016109a590611072565b60405180910390fd5b7faaebcf1bfa00580e41d966056b48521fa9f202645c86d4ddf28113e617c1b1d3600260009054906101000a900473ffffffffffffffffffffffffffffffffffffffff1682604051610a01929190611370565b60405180910390a180600260006101000a81548173ffffffffffffffffffffffffffffffffffffffff021916908373ffffffffffffffffffffffffffffffffffffffff16021790555050565b610a55610ad3565b600073ffffffffffffffffffffffffffffffffffffffff168173ffffffffffffffffffffffffffffffffffffffff1603610ac75760006040517f1e4fbdf7000000000000000000000000000000000000000000000000000000008152600401610abe9190610f1b565b60405180910390fd5b610ad081610bd9565b50565b610adb610d1f565b73ffffffffffffffffffffffffffffffffffffffff16610af96106f3565b73ffffffffffffffffffffffffffffffffffffffff1614610b5857610b1c610d1f565b6040517f118cdaa7000000000000000000000000000000000000000000000000000000008152600401610b4f9190610f1b565b60405180910390fd5b565b610bd4838473ffffffffffffffffffffffffffffffffffffffff1663a9059cbb8585604051602401610b8d929190611399565b604051602081830303815290604052915060e01b6020820180517bffffffffffffffffffffffffffffffffffffffffffffffffffffffff8381831617835250505050610d27565b505050565b60008060009054906101000a900473ffffffffffffffffffffffffffffffffffffffff169050816000806101000a81548173ffffffffffffffffffffffffffffffffffffffff021916908373ffffffffffffffffffffffffffffffffffffffff1602179055508173ffffffffffffffffffffffffffffffffffffffff168173ffffffffffffffffffffffffffffffffffffffff167f8be0079c531659141344cd1fd0a4f28419497f9722a3daafe3b4186f6b6457e060405160405180910390a35050565b610d19848573ffffffffffffffffffffffffffffffffffffffff166323b872dd868686604051602401610cd2939291906113c2565b604051602081830303815290604052915060e01b6020820180517bffffffffffffffffffffffffffffffffffffffffffffffffffffffff8381831617835250505050610d27565b50505050565b600033905090565b600080602060008451602086016000885af180610d4a576040513d6000823e3d81fd5b3d925060005191505060008214610d65576001811415610d81565b60008473ffffffffffffffffffffffffffffffffffffffff163b145b15610dc357836040517f5274afe7000000000000000000000000000000000000000000000000000000008152600401610dba9190610f1b565b60405180910390fd5b50505050565b600080fd5b600073ffffffffffffffffffffffffffffffffffffffff82169050919050565b6000610df982610dce565b9050919050565b610e0981610dee565b8114610e1457600080fd5b50565b600081359050610e2681610e00565b92915050565b6000819050919050565b610e3f81610e2c565b8114610e4a57600080fd5b50565b600081359050610e5c81610e36565b92915050565b600080600060608486031215610e7b57610e7a610dc9565b5b6000610e8986828701610e17565b9350506020610e9a86828701610e17565b9250506040610eab86828701610e4d565b9150509250925092565b610ebe81610e2c565b82525050565b6000602082019050610ed96000830184610eb5565b92915050565b600060208284031215610ef557610ef4610dc9565b5b6000610f0384828501610e17565b91505092915050565b610f1581610dee565b82525050565b6000602082019050610f306000830184610f0c565b92915050565b600060208284031215610f4c57610f4b610dc9565b5b6000610f5a84828501610e4d565b91505092915050565b600081905092915050565b50565b6000610f7e600083610f63565b9150610f8982610f6e565b600082019050919050565b6000610f9f82610f71565b9150819050919050565b600082825260208201905092915050565b7f4e6174697665207472616e73666572206661696c656400000000000000000000600082015250565b6000610ff0601683610fa9565b9150610ffb82610fba565b602082019050919050565b6000602082019050818103600083015261101f81610fe3565b9050919050565b7f496e76616c696420726563697069656e74000000000000000000000000000000600082015250565b600061105c601183610fa9565b915061106782611026565b602082019050919050565b6000602082019050818103600083015261108b8161104f565b9050919050565b7f416d6f756e74206d757374206265203e20300000000000000000000000000000600082015250565b60006110c8601283610fa9565b91506110d382611092565b602082019050919050565b600060208201905081810360008301526110f7816110bb565b9050919050565b7f4e487b7100000000000000000000000000000000000000000000000000000000600052601160045260246000fd5b600061113882610e2c565b915061114383610e2c565b925082820261115181610e2c565b91508282048414831517611168576111676110fe565b5b5092915050565b7f4e487b7100000000000000000000000000000000000000000000000000000000600052601260045260246000fd5b60006111a982610e2c565b91506111b483610e2c565b9250826111c4576111c361116f565b5b828204905092915050565b60006111da82610e2c565b91506111e583610e2c565b92508282039050818111156111fd576111fc6110fe565b5b92915050565b7f5472616e7366657220746f20726563697069656e74206661696c656400000000600082015250565b6000611239601c83610fa9565b915061124482611203565b602082019050919050565b600060208201905081810360008301526112688161122c565b9050919050565b7f466565207472616e73666572206661696c656400000000000000000000000000600082015250565b60006112a5601383610fa9565b91506112b08261126f565b602082019050919050565b600060208201905081810360008301526112d481611298565b9050919050565b60006040820190506112f06000830185610eb5565b6112fd6020830184610eb5565b9392505050565b7f46656520746f6f206869676820286d6178203130252900000000000000000000600082015250565b600061133a601683610fa9565b915061134582611304565b602082019050919050565b600060208201905081810360008301526113698161132d565b9050919050565b60006040820190506113856000830185610f0c565b6113926020830184610f0c565b9392505050565b60006040820190506113ae6000830185610f0c565b6113bb6020830184610eb5565b9392505050565b60006060820190506113d76000830186610f0c565b6113e46020830185610f0c565b6113f16040830184610eb5565b94935050505056fea26469706673582212205e8035638584d0a4f1692a14e15f8c6b9dd533a08ed44fa0a65f51d1e9b863ba64736f6c63430008140033",
  "linkReferences": {},
  "deployedLinkReferences": {}
}