{
  "_format": "hh-sol-artifact-1",
  "contractName": "ClawlyPriceMarketV3",
  "sourceName": "contracts/ClawlyPriceMarketV3.sol",
  "abi": [
    {
      "inputs": [
        {
          "internalType": "address",
          "name": "_usdt",
          "type": "address"
        },
        {
          "internalType": "address",
          "name": "_treasury",
          "type": "address"
        }
      ],
      "stateMutability": "nonpayable",
      "type": "constructor"
    },
    {
      "inputs": [
        {
          "internalType": "address",
          "name": "owner",
          "type": "address"
        }
      ],
      "name": "OwnableInvalidOwner",
      "type": "error"
    },
    {
      "inputs": [
        {
          "internalType": "address",
          "name": "account",
          "type": "address"
        }
      ],
      "name": "OwnableUnauthorizedAccount",
      "type": "error"
    },
    {
      "inputs": [],
      "name": "ReentrancyGuardReentrantCall",
      "type": "error"
    },
    {
      "inputs": [
        {
          "internalType": "address",
          "name": "token",
          "type": "address"
        }
      ],
      "name": "SafeERC20FailedOperation",
      "type": "error"
    },
    {
      "anonymous": false,
      "inputs": [
        {
          "indexed": true,
          "internalType": "bytes32",
          "name": "marketId",
          "type": "bytes32"
        },
        {
          "indexed": false,
          "internalType": "bool",
          "name": "outcome",
          "type": "bool"
        },
        {
          "indexed": false,
          "internalType": "uint256",
          "name": "settledPrice",
          "type": "uint256"
        },
        {
          "indexed": false,
          "internalType": "address",
          "name": "resolver",
          "type": "address"
        }
      ],
      "name": "MarketResolved",
      "type": "event"
    },
    {
      "anonymous": false,
      "inputs": [
        {
          "indexed": true,
          "internalType": "address",
          "name": "previousOwner",
          "type": "address"
        },
        {
          "indexed": true,
          "internalType": "address",
          "name": "newOwner",
          "type": "address"
        }
      ],
      "name": "OwnershipTransferred",
      "type": "event"
    },
    {
      "anonymous": false,
      "inputs": [
        {
          "indexed": true,
          "internalType": "bytes32",
          "name": "marketId",
          "type": "bytes32"
        },
        {
          "indexed": true,
          "internalType": "address",
          "name": "agent",
          "type": "address"
        },
        {
          "indexed": false,
          "internalType": "uint256",
          "name": "amount",
          "type": "uint256"
        }
      ],
      "name": "PayoutClaimed",
      "type": "event"
    },
    {
      "anonymous": false,
      "inputs": [
        {
          "indexed": true,
          "internalType": "bytes32",
          "name": "marketId",
          "type": "bytes32"
        },
        {
          "indexed": true,
          "internalType": "address",
          "name": "agent",
          "type": "address"
        },
        {
          "indexed": false,
          "internalType": "uint256",
          "name": "pYes",
          "type": "uint256"
        }
      ],
      "name": "PredictionMade",
      "type": "event"
    },
    {
      "anonymous": false,
      "inputs": [
        {
          "indexed": true,
          "internalType": "bytes32",
          "name": "marketId",
          "type": "bytes32"
        },
        {
          "indexed": false,
          "internalType": "string",
          "name": "symbol",
          "type": "string"
        },
        {
          "indexed": false,
          "internalType": "uint256",
          "name": "targetPrice",
          "type": "uint256"
        },
        {
          "indexed": false,
          "internalType": "enum ClawlyPriceMarketV3.Direction",
          "name": "direction",
          "type": "uint8"
        },
        {
          "indexed": false,
          "internalType": "uint256",
          "name": "settlementTime",
          "type": "uint256"
        }
      ],
      "name": "PriceMarketCreated",
      "type": "event"
    },
    {
      "inputs": [],
      "name": "BPS_DENOMINATOR",
      "outputs": [
        {
          "internalType": "uint256",
          "name": "",
          "type": "uint256"
        }
      ],
      "stateMutability": "view",
      "type": "function"
    },
    {
      "inputs": [],
      "name": "ENTRY_FEE",
      "outputs": [
        {
          "internalType": "uint256",
          "name": "",
          "type": "uint256"
        }
      ],
      "stateMutability": "view",
      "type": "function"
    },
    {
      "inputs": [],
      "name": "FLARE_REGISTRY",
      "outputs": [
        {
          "internalType": "address",
          "name": "",
          "type": "address"
        }
      ],
      "stateMutability": "view",
      "type": "function"
    },
    {
      "inputs": [],
      "name": "PLATFORM_FEE_BPS",
      "outputs": [
        {
          "internalType": "uint256",
          "name": "",
          "type": "uint256"
        }
      ],
      "stateMutability": "view",
      "type": "function"
    },
    {
      "inputs": [
        {
          "internalType": "string",
          "name": "symbol",
          "type": "string"
        },
        {
          "internalType": "bytes21",
          "name": "feedId",
          "type": "bytes21"
        }
      ],
      "name": "addFeedId",
      "outputs": [],
      "stateMutability": "nonpayable",
      "type": "function"
    },
    {
      "inputs": [
        {
          "internalType": "uint256",
          "name": "",
          "type": "uint256"
        }
      ],
      "name": "allMarkets",
      "outputs": [
        {
          "internalType": "bytes32",
          "name": "",
          "type": "bytes32"
        }
      ],
      "stateMutability": "view",
      "type": "function"
    },
    {
      "inputs": [
        {
          "internalType": "bytes32",
          "name": "marketId",
          "type": "bytes32"
        }
      ],
      "name": "canResolve",
      "outputs": [
        {
          "internalType": "bool",
          "name": "",
          "type": "bool"
        }
      ],
      "stateMutability": "view",
      "type": "function"
    },
    {
      "inputs": [
        {
          "internalType": "bytes32",
          "name": "marketId",
          "type": "bytes32"
        }
      ],
      "name": "claim",
      "outputs": [],
      "stateMutability": "nonpayable",
      "type": "function"
    },
    {
      "inputs": [
        {
          "internalType": "string",
          "name": "symbol",
          "type": "string"
        },
        {
          "internalType": "uint256",
          "name": "targetPrice",
          "type": "uint256"
        },
        {
          "internalType": "int8",
          "name": "targetDecimals",
          "type": "int8"
        },
        {
          "internalType": "enum ClawlyPriceMarketV3.Direction",
          "name": "direction",
          "type": "uint8"
        },
        {
          "internalType": "uint256",
          "name": "settlementTime",
          "type": "uint256"
        },
        {
          "internalType": "uint256",
          "name": "seedAmount",
          "type": "uint256"
        }
      ],
      "name": "createPriceMarket",
      "outputs": [],
      "stateMutability": "nonpayable",
      "type": "function"
    },
    {
      "inputs": [
        {
          "internalType": "string",
          "name": "",
          "type": "string"
        }
      ],
      "name": "feedIds",
      "outputs": [
        {
          "internalType": "bytes21",
          "name": "",
          "type": "bytes21"
        }
      ],
      "stateMutability": "view",
      "type": "function"
    },
    {
      "inputs": [
        {
          "internalType": "bytes32",
          "name": "marketId",
          "type": "bytes32"
        }
      ],
      "name": "getCurrentPrice",
      "outputs": [
        {
          "internalType": "uint256",
          "name": "price",
          "type": "uint256"
        },
        {
          "internalType": "int8",
          "name": "decimals",
          "type": "int8"
        },
        {
          "internalType": "uint64",
          "name": "timestamp",
          "type": "uint64"
        }
      ],
      "stateMutability": "view",
      "type": "function"
    },
    {
      "inputs": [
        {
          "internalType": "bytes32",
          "name": "marketId",
          "type": "bytes32"
        }
      ],
      "name": "getMarket",
      "outputs": [
        {
          "internalType": "string",
          "name": "symbol",
          "type": "string"
        },
        {
          "internalType": "uint256",
          "name": "targetPrice",
          "type": "uint256"
        },
        {
          "internalType": "enum ClawlyPriceMarketV3.Direction",
          "name": "direction",
          "type": "uint8"
        },
        {
          "internalType": "uint256",
          "name": "settlementTime",
          "type": "uint256"
        },
        {
          "internalType": "uint256",
          "name": "potAmount",
          "type": "uint256"
        },
        {
          "internalType": "uint256",
          "name": "predictionCount",
          "type": "uint256"
        },
        {
          "internalType": "bool",
          "name": "resolved",
          "type": "bool"
        },
        {
          "internalType": "bool",
          "name": "outcome",
          "type": "bool"
        },
        {
          "internalType": "uint256",
          "name": "settledPrice",
          "type": "uint256"
        }
      ],
      "stateMutability": "view",
      "type": "function"
    },
    {
      "inputs": [
        {
          "internalType": "bytes32",
          "name": "",
          "type": "bytes32"
        },
        {
          "internalType": "uint256",
          "name": "",
          "type": "uint256"
        }
      ],
      "name": "marketAgents",
      "outputs": [
        {
          "internalType": "address",
          "name": "",
          "type": "address"
        }
      ],
      "stateMutability": "view",
      "type": "function"
    },
    {
      "inputs": [
        {
          "internalType": "bytes32",
          "name": "",
          "type": "bytes32"
        }
      ],
      "name": "markets",
      "outputs": [
        {
          "internalType": "bytes21",
          "name": "feedId",
          "type": "bytes21"
        },
        {
          "internalType": "string",
          "name": "symbol",
          "type": "string"
        },
        {
          "internalType": "uint256",
          "name": "targetPrice",
          "type": "uint256"
        },
        {
          "internalType": "int8",
          "name": "targetDecimals",
          "type": "int8"
        },
        {
          "internalType": "enum ClawlyPriceMarketV3.Direction",
          "name": "direction",
          "type": "uint8"
        },
        {
          "internalType": "uint256",
          "name": "settlementTime",
          "type": "uint256"
        },
        {
          "internalType": "uint256",
          "name": "potAmount",
          "type": "uint256"
        },
        {
          "internalType": "uint256",
          "name": "predictionCount",
          "type": "uint256"
        },
        {
          "internalType": "bool",
          "name": "resolved",
          "type": "bool"
        },
        {
          "internalType": "bool",
          "name": "outcome",
          "type": "bool"
        },
        {
          "internalType": "uint256",
          "name": "totalScore",
          "type": "uint256"
        },
        {
          "internalType": "uint256",
          "name": "settledPrice",
          "type": "uint256"
        }
      ],
      "stateMutability": "view",
      "type": "function"
    },
    {
      "inputs": [],
      "name": "owner",
      "outputs": [
        {
          "internalType": "address",
          "name": "",
          "type": "address"
        }
      ],
      "stateMutability": "view",
      "type": "function"
    },
    {
      "inputs": [
        {
          "internalType": "bytes32",
          "name": "marketId",
          "type": "bytes32"
        },
        {
          "internalType": "uint256",
          "name": "pYes",
          "type": "uint256"
        }
      ],
      "name": "predict",
      "outputs": [],
      "stateMutability": "nonpayable",
      "type": "function"
    },
    {
      "inputs": [
        {
          "internalType": "bytes32",
          "name": "",
          "type": "bytes32"
        },
        {
          "internalType": "address",
          "name": "",
          "type": "address"
        }
      ],
      "name": "predictions",
      "outputs": [
        {
          "internalType": "address",
          "name": "agent",
          "type": "address"
        },
        {
          "internalType": "uint256",
          "name": "pYes",
          "type": "uint256"
        },
        {
          "internalType": "uint256",
          "name": "timestamp",
          "type": "uint256"
        },
        {
          "internalType": "bool",
          "name": "claimed",
          "type": "bool"
        }
      ],
      "stateMutability": "view",
      "type": "function"
    },
    {
      "inputs": [],
      "name": "renounceOwnership",
      "outputs": [],
      "stateMutability": "nonpayable",
      "type": "function"
    },
    {
      "inputs": [
        {
          "internalType": "bytes32",
          "name": "marketId",
          "type": "bytes32"
        }
      ],
      "name": "resolve",
      "outputs": [],
      "stateMutability": "nonpayable",
      "type": "function"
    },
    {
      "inputs": [
        {
          "internalType": "address",
          "name": "newOwner",
          "type": "address"
        }
      ],
      "name": "transferOwnership",
      "outputs": [],
      "stateMutability": "nonpayable",
      "type": "function"
    },
    {
      "inputs": [],
      "name": "treasury",
      "outputs": [
        {
          "internalType": "address",
          "name": "",
          "type": "address"
        }
      ],
      "stateMutability": "view",
      "type": "function"
    },
    {
      "inputs": [],
      "name": "usdt",
      "outputs": [
        {
          "internalType": "contract IERC20",
          "name": "",
          "type": "address"
        }
      ],
      "stateMutability": "view",
      "type": "function"
    }
  ],
  "bytecode": "0x60a06040523480156200001157600080fd5b50604051620023553803806200235583398101604081905262000034916200030a565b33806200005c57604051631e4fbdf760e01b8152600060048201526024015b60405180910390fd5b62000067816200029d565b50600180556001600160a01b038216158015906200008d57506001600160a01b03811615155b620000cd5760405162461bcd60e51b815260206004820152600f60248201526e496e76616c6964206164647265737360881b604482015260640162000053565b6001600160a01b0391821660805260028054919092166001600160a01b0319909116179055604080516223262960e91b8152600380820181905282516023928190038301812080546001600160a81b0319908116665193148bd554d1606a1b179091556208aa8960eb1b82528183018390528451918290038401822080548216665155120bd554d1606a1b1790556242544360e81b8252818301839052845191829003840182208054821666509510cbd554d1606a1b1790556205852560ec1b82528183018390528451918290038401822080548216665614940bd554d1606a1b1790556214d3d360ea1b825281830183905284519182900384018220805482166654d3d30bd554d1606a1b17905563444f474560e01b8252600480830184905285516024938190038401812080548416675113d1d14bd554d160621b1790556241444160e81b8152808501859052865190819003909501852080548316665051104bd554d1606a1b17905563082ac82b60e31b8552848101849052855194859003830185208054831667505590560bd554d160621b179055634c494e4b60e01b8552840192909252925191829003909201902080546753125392cbd554d160621b921691909117905562000342565b600080546001600160a01b038381166001600160a01b0319831681178455604051919092169283917f8be0079c531659141344cd1fd0a4f28419497f9722a3daafe3b4186f6b6457e09190a35050565b80516001600160a01b03811681146200030557600080fd5b919050565b600080604083850312156200031e57600080fd5b6200032983620002ed565b91506200033960208401620002ed565b90509250929050565b608051611fdb6200037a600039600081816101a101528181610591015281816105ed01528181610ab501526113750152611fdb6000f3fe608060405234801561001057600080fd5b50600436106101425760003560e01c80638da5cb5b116100b8578063c3c95c7b1161007c578063c3c95c7b146102f8578063d751a44f14610320578063e1a4521814610367578063f2fde38b14610370578063f6d361cc14610383578063fe1063bc1461038d57600080fd5b80638da5cb5b14610283578063992772b8146102945780639ef27030146102a7578063a80f0a86146102c2578063bd66528a146102e557600080fd5b8063539aa77f1161010a578063539aa77f1461020f578063563d1e84146102175780635c23bdf51461022a57806361d027b31461023d578063715018a6146102505780637564912b1461025857600080fd5b80630208a3b214610147578063161e444e1461015c5780632f48ab7d1461019c5780634c4e33a5146101db57806352d84d1e146101ee575b600080fd5b61015a61015536600461178c565b610406565b005b61016f61016a3660046117ae565b610737565b6040805193845260009290920b602084015267ffffffffffffffff16908201526060015b60405180910390f35b6101c37f000000000000000000000000000000000000000000000000000000000000000081565b6040516001600160a01b039091168152602001610193565b6101c36101e936600461178c565b6107db565b6102016101fc3660046117ae565b610813565b604051908152602001610193565b610201606481565b61015a61022536600461181f565b610834565b61015a6102383660046117ae565b610cfb565b6002546101c3906001600160a01b031681565b61015a611083565b61026b6102663660046117ae565b611097565b6040516101939c9b9a99989796959493929190611927565b6000546001600160a01b03166101c3565b61015a6102a23660046119ad565b61118d565b6101c373ad67fe66660fb8dfe9d6b1b4240d8650e30f601981565b6102d56102d03660046117ae565b6111d6565b6040519015158152602001610193565b61015a6102f33660046117ae565b611214565b61030b6103063660046117ae565b6113e0565b60405161019399989796959493929190611a11565b61034e61032e366004611a86565b805160208183018101805160038252928201919093012091525460581b81565b6040516001600160581b03199091168152602001610193565b61020161271081565b61015a61037e366004611b4c565b611504565b610201620186a081565b6103da61039b366004611b69565b600560209081526000928352604080842090915290825290208054600182015460028301546003909301546001600160a01b0390921692909160ff1684565b604080516001600160a01b03909516855260208501939093529183015215156060820152608001610193565b61040e61153f565b6000828152600460208190526040909120908101546104605760405162461bcd60e51b8152602060048201526009602482015268139bdd08199bdd5b9960ba1b60448201526064015b60405180910390fd5b8060040154421061049c5760405162461bcd60e51b815260206004820152600660248201526510db1bdcd95960d21b6044820152606401610457565b600781015460ff16156104dc5760405162461bcd60e51b815260206004820152600860248201526714995cdbdb1d995960c21b6044820152606401610457565b600182101580156104ee575060638211155b6105265760405162461bcd60e51b81526020600482015260096024820152687059657320312d393960b81b6044820152606401610457565b60008381526005602090815260408083203384529091529020546001600160a01b0316156105845760405162461bcd60e51b815260206004820152600b60248201526a105b1c9958591e4818995d60aa1b6044820152606401610457565b6105bc6001600160a01b037f0000000000000000000000000000000000000000000000000000000000000000163330620186a0611569565b60006127106105cf6064620186a0611baf565b6105d99190611bcc565b600254909150610616906001600160a01b037f000000000000000000000000000000000000000000000000000000000000000081169116836115d6565b61062381620186a0611bee565b8260050160008282546106369190611c01565b909155505060068201805490600061064d83611c14565b909155505060408051608081018252338082526020808301878152428486019081526000606086018181528b8252600585528782208683528552878220965187546001600160a01b039091166001600160a01b0319918216178855935160018089019190915592516002880155516003909601805496151560ff1990971696909617909555898552600683528585208054918201815585529382902090930180549093168217909255915185815286917f19303e4747b51bd72cca4dcff2bfc9e07f403a5f7b23bcda41d580b9fbc1a139910160405180910390a3505061073360018055565b5050565b600080600061074461160c565b6000858152600460208190526040918290205491516349f4fc0360e11b815260589290921b6001600160581b031916908201526001600160a01b0391909116906393e9f80690602401606060405180830381865afa1580156107aa573d6000803e3d6000fd5b505050506040513d601f19601f820116820180604052508101906107ce9190611c2d565b9250925092509193909250565b600660205281600052604060002081815481106107f757600080fd5b6000918252602090912001546001600160a01b03169150829050565b6007818154811061082357600080fd5b600091825260209091200154905081565b61083c61169e565b42821161088b5760405162461bcd60e51b815260206004820152601960248201527f536574746c656d656e74206d75737420626520667574757265000000000000006044820152606401610457565b600081116108c75760405162461bcd60e51b815260206004820152600960248201526813995959081cd9595960ba1b6044820152606401610457565b6000600388886040516108db929190611c72565b9081526040519081900360200190205460581b90506001600160581b031981166109515760405162461bcd60e51b815260206004820152602160248201527f556e6b6e6f776e2073796d626f6c202d206164642066656564496420666972736044820152601d60fa1b6064820152608401610457565b600061095b61160c565b6040516349f4fc0360e11b81526001600160581b0319841660048201529091506000906001600160a01b038316906393e9f80690602401606060405180830381865afa1580156109af573d6000803e3d6000fd5b505050506040513d601f19601f820116820180604052508101906109d39190611c2d565b5050905060008111610a1f5760405162461bcd60e51b81526020600482015260156024820152744654534f206665656420756e617661696c61626c6560581b6044820152606401610457565b60008a8a8a8989604051602001610a3a959493929190611c82565b6040516020818303038152906040528051906020012090506004600082815260200190815260200160002060040154600014610aa85760405162461bcd60e51b815260206004820152600d60248201526c4d61726b65742065786973747360981b6044820152606401610457565b610add6001600160a01b037f000000000000000000000000000000000000000000000000000000000000000016333088611569565b604051806101800160405280856affffffffffffffffffffff191681526020018c8c8080601f0160208091040260200160405190810160405280939291908181526020018383808284376000920182905250938552505050602082018c90528a900b6040820152606001886001811115610b5957610b596118ef565b8152602080820189905260408083018990526000606084018190526080840181905260a0840181905260c0840181905260e090930183905284835260048252909120825181546001600160a81b03191660589190911c178155908201516001820190610bc59082611d50565b5060408201516002820155606082015160038201805460ff90921660ff1983168117825560808501519261ffff191617610100836001811115610c0a57610c0a6118ef565b021790555060a0820151600482015560c0820151600582015560e08201516006820155610100808301516007808401805461012087015161ffff1990911693151561ff001916939093179215159093029190911790915561014083015160088301556101609092015160099091015580546001810182556000919091527fa66cc928b5edb82af9bd49922954155ab7b0942694bea4ce44661d9a8736c6880181905560405181907f572b2041a67a9ecb53f75b58e095306419ee67dbe3f8e7a5073c0630ab4ad87890610ce6908e908e908e908d908d90611e10565b60405180910390a25050505050505050505050565b610d0361153f565b600081815260046020819052604090912090810154610d505760405162461bcd60e51b8152602060048201526009602482015268139bdd08199bdd5b9960ba1b6044820152606401610457565b8060040154421015610d8e5760405162461bcd60e51b8152602060048201526007602482015266139bdd081e595d60ca1b6044820152606401610457565b600781015460ff1615610dd65760405162461bcd60e51b815260206004820152601060248201526f105b1c9958591e481c995cdbdb1d995960821b6044820152606401610457565b6000610de061160c565b82546040516349f4fc0360e11b815260589190911b6001600160581b031916600482015290915060009081906001600160a01b038416906393e9f80690602401606060405180830381865afa158015610e3d573d6000803e3d6000fd5b505050506040513d601f19601f82011682018060405250810190610e619190611c2d565b509150915060008211610ea95760405162461bcd60e51b815260206004820152601060248201526f4654534f20756e617661696c61626c6560801b6044820152606401610457565b60038401546000908190810b83820b12610ef3576003860154849250610ed29060000b84611e5e565b610edd90600a611f63565b8660020154610eec9190611baf565b9050610f25565b6003860154610f0690849060000b611e5e565b610f1190600a611f63565b610f1b9085611baf565b9150856002015490505b6000806003880154610100900460ff166001811115610f4657610f466118ef565b14610f5357818310610f58565b818310155b6007880180548215156101000261ffff199091161760011790556009880186905590506000805b60008a8152600660205260409020548110156110235760008a815260056020908152604080832060069092528220805483919085908110610fc257610fc2611f72565b60009182526020808320909101546001600160a01b0316835282019290925260400190206001015490508361100157610ffc816064611bee565b611003565b805b61100d9084611c01565b925050808061101b90611c14565b915050610f7f565b506008880181905560408051831515815260208101889052338183015290518a917f0f099d6cc78a11b8279c8627c617c543900342baed4f2abd733b7e4da6a06085919081900360600190a2505050505050505061108060018055565b50565b61108b61169e565b61109560006116cb565b565b6004602052600090815260409020805460018201805460589290921b92916110be90611cc8565b80601f01602080910402602001604051908101604052809291908181526020018280546110ea90611cc8565b80156111375780601f1061110c57610100808354040283529160200191611137565b820191906000526020600020905b81548152906001019060200180831161111a57829003601f168201915b50505050600283015460038401546004850154600586015460068701546007880154600889015460099099015497989597600086900b975060ff610100968790048116979596949593948184169493041691908c565b61119561169e565b80600384846040516111a8929190611c72565b908152604051908190036020019020805460589290921c6001600160a81b0319909216919091179055505050565b6000818152600460208190526040822090810154158015906111fc575080600401544210155b801561120d5750600781015460ff16155b9392505050565b61121c61153f565b6000818152600460205260409020600781015460ff1661126d5760405162461bcd60e51b815260206004820152600c60248201526b139bdd081c995cdbdb1d995960a21b6044820152606401610457565b6000828152600560209081526040808320338452909152902080546001600160a01b03166112c65760405162461bcd60e51b8152602060048201526006602482015265139bc818995d60d21b6044820152606401610457565b600381015460ff16156113055760405162461bcd60e51b815260206004820152600760248201526610db185a5b595960ca1b6044820152606401610457565b60038101805460ff191660011790556007820154600090610100900460ff1661133d576001820154611338906064611bee565b611343565b81600101545b90506000836008015484600501548361135c9190611baf565b6113669190611bcc565b905061139c6001600160a01b037f00000000000000000000000000000000000000000000000000000000000000001633836115d6565b604051818152339086907f038b0cdf6318f158304d2b2f11b821333b4e69a21d83e945b6a741e1bbfc234b9060200160405180910390a35050505061108060018055565b60606000806000806000806000806000600460008c815260200190815260200160002090508060010181600201548260030160019054906101000a900460ff168360040154846005015485600601548660070160009054906101000a900460ff168760070160019054906101000a900460ff16886009015488805461146490611cc8565b80601f016020809104026020016040519081016040528092919081815260200182805461149090611cc8565b80156114dd5780601f106114b2576101008083540402835291602001916114dd565b820191906000526020600020905b8154815290600101906020018083116114c057829003601f168201915b50505050509850995099509950995099509950995099509950509193959799909294969850565b61150c61169e565b6001600160a01b03811661153657604051631e4fbdf760e01b815260006004820152602401610457565b611080816116cb565b60026001540361156257604051633ee5aeb560e01b815260040160405180910390fd5b6002600155565b6040516001600160a01b0384811660248301528381166044830152606482018390526115d09186918216906323b872dd906084015b604051602081830303815290604052915060e01b6020820180516001600160e01b03838183161783525050505061171b565b50505050565b6040516001600160a01b0383811660248301526044820183905261160791859182169063a9059cbb9060640161159e565b505050565b60405163413b07e560e11b8152602060048201526006602482015265233a39b7ab1960d11b604482015260009073ad67fe66660fb8dfe9d6b1b4240d8650e30f6019906382760fca90606401602060405180830381865afa158015611675573d6000803e3d6000fd5b505050506040513d601f19601f820116820180604052508101906116999190611f88565b905090565b6000546001600160a01b031633146110955760405163118cdaa760e01b8152336004820152602401610457565b600080546001600160a01b038381166001600160a01b0319831681178455604051919092169283917f8be0079c531659141344cd1fd0a4f28419497f9722a3daafe3b4186f6b6457e09190a35050565b600080602060008451602086016000885af18061173e576040513d6000823e3d81fd5b50506000513d91508115611756578060011415611763565b6001600160a01b0384163b155b156115d057604051635274afe760e01b81526001600160a01b0385166004820152602401610457565b6000806040838503121561179f57600080fd5b50508035926020909101359150565b6000602082840312156117c057600080fd5b5035919050565b60008083601f8401126117d957600080fd5b50813567ffffffffffffffff8111156117f157600080fd5b60208301915083602082850101111561180957600080fd5b9250929050565b8060000b811461108057600080fd5b600080600080600080600060c0888a03121561183a57600080fd5b873567ffffffffffffffff81111561185157600080fd5b61185d8a828b016117c7565b90985096505060208801359450604088013561187881611810565b935060608801356002811061188c57600080fd5b969995985093969295946080840135945060a09093013592915050565b6000815180845260005b818110156118cf576020818501810151868301820152016118b3565b506000602082860101526020601f19601f83011685010191505092915050565b634e487b7160e01b600052602160045260246000fd5b6002811061192357634e487b7160e01b600052602160045260246000fd5b9052565b60006101806affffffffffffffffffffff198f16835280602084015261194f8184018f6118a9565b9150508b60408301528a60000b606083015261196e608083018b611905565b60a082019890985260c081019690965260e086019490945291151561010085015215156101208401526101408301526101609091015295945050505050565b6000806000604084860312156119c257600080fd5b833567ffffffffffffffff8111156119d957600080fd5b6119e5868287016117c7565b90945092505060208401356001600160581b031981168114611a0657600080fd5b809150509250925092565b6000610120808352611a258184018d6118a9565b915050896020830152611a3b604083018a611905565b6060820197909752608081019590955260a085019390935290151560c0840152151560e0830152610100909101529392505050565b634e487b7160e01b600052604160045260246000fd5b600060208284031215611a9857600080fd5b813567ffffffffffffffff80821115611ab057600080fd5b818401915084601f830112611ac457600080fd5b813581811115611ad657611ad6611a70565b604051601f8201601f19908116603f01168101908382118183101715611afe57611afe611a70565b81604052828152876020848701011115611b1757600080fd5b826020860160208301376000928101602001929092525095945050505050565b6001600160a01b038116811461108057600080fd5b600060208284031215611b5e57600080fd5b813561120d81611b37565b60008060408385031215611b7c57600080fd5b823591506020830135611b8e81611b37565b809150509250929050565b634e487b7160e01b600052601160045260246000fd5b8082028115828204841417611bc657611bc6611b99565b92915050565b600082611be957634e487b7160e01b600052601260045260246000fd5b500490565b81810381811115611bc657611bc6611b99565b80820180821115611bc657611bc6611b99565b600060018201611c2657611c26611b99565b5060010190565b600080600060608486031215611c4257600080fd5b835192506020840151611c5481611810565b604085015190925067ffffffffffffffff81168114611a0657600080fd5b8183823760009101908152919050565b84868237600085820185815260028510611cac57634e487b7160e01b600052602160045260246000fd5b60f89490941b6020850152505060218201526041019392505050565b600181811c90821680611cdc57607f821691505b602082108103611cfc57634e487b7160e01b600052602260045260246000fd5b50919050565b601f82111561160757600081815260208120601f850160051c81016020861015611d295750805b601f850160051c820191505b81811015611d4857828155600101611d35565b505050505050565b815167ffffffffffffffff811115611d6a57611d6a611a70565b611d7e81611d788454611cc8565b84611d02565b602080601f831160018114611db35760008415611d9b5750858301515b600019600386901b1c1916600185901b178555611d48565b600085815260208120601f198616915b82811015611de257888601518255948401946001909101908401611dc3565b5085821015611e005787850151600019600388901b60f8161c191681555b5050505050600190811b01905550565b60808152846080820152848660a0830137600060a08683010152600060a0601f19601f8801168301019050846020830152611e4e6040830185611905565b8260608301529695505050505050565b600082810b9082900b03607f198112607f82131715611bc657611bc6611b99565b600181815b80851115611eba578160001904821115611ea057611ea0611b99565b80851615611ead57918102915b93841c9390800290611e84565b509250929050565b600082611ed157506001611bc6565b81611ede57506000611bc6565b8160018114611ef45760028114611efe57611f1a565b6001915050611bc6565b60ff841115611f0f57611f0f611b99565b50506001821b611bc6565b5060208310610133831016604e8410600b8410161715611f3d575081810a611bc6565b611f478383611e7f565b8060001904821115611f5b57611f5b611b99565b029392505050565b600061120d60ff841683611ec2565b634e487b7160e01b600052603260045260246000fd5b600060208284031215611f9a57600080fd5b815161120d81611b3756fea264697066735822122053de9ed18cbc5d30c4552a48083b1f84fbd27ff31ade9fdbbf2ac3caef43875664736f6c63430008140033",
  "linkReferences": {},
  "deployedLinkReferences": {}
}