{
  "_format": "hh-sol-artifact-1",
  "contractName": "ClawlyPriceMarket",
  "sourceName": "contracts/ClawlyPriceMarket.sol",
  "abi": [
    {
      "inputs": [
        {
          "internalType": "address",
          "name": "_usdt",
          "type": "address"
        },
        {
          "internalType": "address",
          "name": "_treasury",
          "type": "address"
        }
      ],
      "stateMutability": "nonpayable",
      "type": "constructor"
    },
    {
      "inputs": [
        {
          "internalType": "address",
          "name": "owner",
          "type": "address"
        }
      ],
      "name": "OwnableInvalidOwner",
      "type": "error"
    },
    {
      "inputs": [
        {
          "internalType": "address",
          "name": "account",
          "type": "address"
        }
      ],
      "name": "OwnableUnauthorizedAccount",
      "type": "error"
    },
    {
      "inputs": [],
      "name": "ReentrancyGuardReentrantCall",
      "type": "error"
    },
    {
      "inputs": [
        {
          "internalType": "address",
          "name": "token",
          "type": "address"
        }
      ],
      "name": "SafeERC20FailedOperation",
      "type": "error"
    },
    {
      "anonymous": false,
      "inputs": [
        {
          "indexed": true,
          "internalType": "bytes32",
          "name": "marketId",
          "type": "bytes32"
        },
        {
          "indexed": false,
          "internalType": "bool",
          "name": "outcome",
          "type": "bool"
        },
        {
          "indexed": false,
          "internalType": "uint256",
          "name": "settledPrice",
          "type": "uint256"
        },
        {
          "indexed": false,
          "internalType": "uint256",
          "name": "totalScore",
          "type": "uint256"
        },
        {
          "indexed": false,
          "internalType": "address",
          "name": "resolver",
          "type": "address"
        }
      ],
      "name": "MarketResolved",
      "type": "event"
    },
    {
      "anonymous": false,
      "inputs": [
        {
          "indexed": true,
          "internalType": "address",
          "name": "previousOwner",
          "type": "address"
        },
        {
          "indexed": true,
          "internalType": "address",
          "name": "newOwner",
          "type": "address"
        }
      ],
      "name": "OwnershipTransferred",
      "type": "event"
    },
    {
      "anonymous": false,
      "inputs": [
        {
          "indexed": true,
          "internalType": "bytes32",
          "name": "marketId",
          "type": "bytes32"
        },
        {
          "indexed": true,
          "internalType": "address",
          "name": "agent",
          "type": "address"
        },
        {
          "indexed": false,
          "internalType": "uint256",
          "name": "amount",
          "type": "uint256"
        }
      ],
      "name": "PayoutClaimed",
      "type": "event"
    },
    {
      "anonymous": false,
      "inputs": [
        {
          "indexed": true,
          "internalType": "bytes32",
          "name": "marketId",
          "type": "bytes32"
        },
        {
          "indexed": true,
          "internalType": "address",
          "name": "agent",
          "type": "address"
        },
        {
          "indexed": false,
          "internalType": "uint256",
          "name": "pYes",
          "type": "uint256"
        }
      ],
      "name": "PredictionMade",
      "type": "event"
    },
    {
      "anonymous": false,
      "inputs": [
        {
          "indexed": true,
          "internalType": "bytes32",
          "name": "marketId",
          "type": "bytes32"
        },
        {
          "indexed": false,
          "internalType": "string",
          "name": "symbol",
          "type": "string"
        },
        {
          "indexed": false,
          "internalType": "uint256",
          "name": "targetPrice",
          "type": "uint256"
        },
        {
          "indexed": false,
          "internalType": "enum ClawlyPriceMarket.Direction",
          "name": "direction",
          "type": "uint8"
        },
        {
          "indexed": false,
          "internalType": "uint256",
          "name": "settlementTime",
          "type": "uint256"
        }
      ],
      "name": "PriceMarketCreated",
      "type": "event"
    },
    {
      "inputs": [],
      "name": "BPS_DENOMINATOR",
      "outputs": [
        {
          "internalType": "uint256",
          "name": "",
          "type": "uint256"
        }
      ],
      "stateMutability": "view",
      "type": "function"
    },
    {
      "inputs": [],
      "name": "ENTRY_FEE",
      "outputs": [
        {
          "internalType": "uint256",
          "name": "",
          "type": "uint256"
        }
      ],
      "stateMutability": "view",
      "type": "function"
    },
    {
      "inputs": [],
      "name": "FLARE_REGISTRY",
      "outputs": [
        {
          "internalType": "address",
          "name": "",
          "type": "address"
        }
      ],
      "stateMutability": "view",
      "type": "function"
    },
    {
      "inputs": [],
      "name": "MAX_PYES",
      "outputs": [
        {
          "internalType": "uint256",
          "name": "",
          "type": "uint256"
        }
      ],
      "stateMutability": "view",
      "type": "function"
    },
    {
      "inputs": [],
      "name": "MIN_PYES",
      "outputs": [
        {
          "internalType": "uint256",
          "name": "",
          "type": "uint256"
        }
      ],
      "stateMutability": "view",
      "type": "function"
    },
    {
      "inputs": [],
      "name": "PLATFORM_FEE_BPS",
      "outputs": [
        {
          "internalType": "uint256",
          "name": "",
          "type": "uint256"
        }
      ],
      "stateMutability": "view",
      "type": "function"
    },
    {
      "inputs": [],
      "name": "PYES_DECIMALS",
      "outputs": [
        {
          "internalType": "uint256",
          "name": "",
          "type": "uint256"
        }
      ],
      "stateMutability": "view",
      "type": "function"
    },
    {
      "inputs": [
        {
          "internalType": "uint256",
          "name": "",
          "type": "uint256"
        }
      ],
      "name": "allMarkets",
      "outputs": [
        {
          "internalType": "bytes32",
          "name": "",
          "type": "bytes32"
        }
      ],
      "stateMutability": "view",
      "type": "function"
    },
    {
      "inputs": [
        {
          "internalType": "bytes32",
          "name": "marketId",
          "type": "bytes32"
        }
      ],
      "name": "canResolve",
      "outputs": [
        {
          "internalType": "bool",
          "name": "",
          "type": "bool"
        }
      ],
      "stateMutability": "view",
      "type": "function"
    },
    {
      "inputs": [
        {
          "internalType": "bytes32",
          "name": "marketId",
          "type": "bytes32"
        }
      ],
      "name": "claim",
      "outputs": [],
      "stateMutability": "nonpayable",
      "type": "function"
    },
    {
      "inputs": [
        {
          "internalType": "string",
          "name": "symbol",
          "type": "string"
        },
        {
          "internalType": "uint256",
          "name": "targetPrice",
          "type": "uint256"
        },
        {
          "internalType": "int8",
          "name": "targetDecimals",
          "type": "int8"
        },
        {
          "internalType": "enum ClawlyPriceMarket.Direction",
          "name": "direction",
          "type": "uint8"
        },
        {
          "internalType": "uint256",
          "name": "settlementTime",
          "type": "uint256"
        },
        {
          "internalType": "uint256",
          "name": "seedAmount",
          "type": "uint256"
        }
      ],
      "name": "createPriceMarket",
      "outputs": [],
      "stateMutability": "nonpayable",
      "type": "function"
    },
    {
      "inputs": [
        {
          "internalType": "bytes32",
          "name": "marketId",
          "type": "bytes32"
        },
        {
          "internalType": "address",
          "name": "agent",
          "type": "address"
        },
        {
          "internalType": "bool",
          "name": "assumedOutcome",
          "type": "bool"
        }
      ],
      "name": "estimatePayout",
      "outputs": [
        {
          "internalType": "uint256",
          "name": "",
          "type": "uint256"
        }
      ],
      "stateMutability": "view",
      "type": "function"
    },
    {
      "inputs": [
        {
          "internalType": "bytes32",
          "name": "marketId",
          "type": "bytes32"
        }
      ],
      "name": "getCurrentPrice",
      "outputs": [
        {
          "internalType": "uint256",
          "name": "price",
          "type": "uint256"
        },
        {
          "internalType": "int8",
          "name": "decimals",
          "type": "int8"
        },
        {
          "internalType": "uint64",
          "name": "timestamp",
          "type": "uint64"
        }
      ],
      "stateMutability": "view",
      "type": "function"
    },
    {
      "inputs": [
        {
          "internalType": "bytes32",
          "name": "marketId",
          "type": "bytes32"
        }
      ],
      "name": "getMarket",
      "outputs": [
        {
          "internalType": "string",
          "name": "symbol",
          "type": "string"
        },
        {
          "internalType": "uint256",
          "name": "targetPrice",
          "type": "uint256"
        },
        {
          "internalType": "enum ClawlyPriceMarket.Direction",
          "name": "direction",
          "type": "uint8"
        },
        {
          "internalType": "uint256",
          "name": "settlementTime",
          "type": "uint256"
        },
        {
          "internalType": "uint256",
          "name": "potAmount",
          "type": "uint256"
        },
        {
          "internalType": "uint256",
          "name": "predictionCount",
          "type": "uint256"
        },
        {
          "internalType": "bool",
          "name": "resolved",
          "type": "bool"
        },
        {
          "internalType": "bool",
          "name": "outcome",
          "type": "bool"
        },
        {
          "internalType": "uint256",
          "name": "settledPrice",
          "type": "uint256"
        }
      ],
      "stateMutability": "view",
      "type": "function"
    },
    {
      "inputs": [
        {
          "internalType": "bytes32",
          "name": "marketId",
          "type": "bytes32"
        }
      ],
      "name": "getMarketAgents",
      "outputs": [
        {
          "internalType": "address[]",
          "name": "",
          "type": "address[]"
        }
      ],
      "stateMutability": "view",
      "type": "function"
    },
    {
      "inputs": [],
      "name": "getMarketCount",
      "outputs": [
        {
          "internalType": "uint256",
          "name": "",
          "type": "uint256"
        }
      ],
      "stateMutability": "view",
      "type": "function"
    },
    {
      "inputs": [
        {
          "internalType": "bytes32",
          "name": "marketId",
          "type": "bytes32"
        },
        {
          "internalType": "address",
          "name": "agent",
          "type": "address"
        }
      ],
      "name": "getPrediction",
      "outputs": [
        {
          "internalType": "uint256",
          "name": "pYes",
          "type": "uint256"
        },
        {
          "internalType": "uint256",
          "name": "timestamp",
          "type": "uint256"
        },
        {
          "internalType": "bool",
          "name": "claimed",
          "type": "bool"
        }
      ],
      "stateMutability": "view",
      "type": "function"
    },
    {
      "inputs": [
        {
          "internalType": "bytes32",
          "name": "",
          "type": "bytes32"
        },
        {
          "internalType": "uint256",
          "name": "",
          "type": "uint256"
        }
      ],
      "name": "marketAgents",
      "outputs": [
        {
          "internalType": "address",
          "name": "",
          "type": "address"
        }
      ],
      "stateMutability": "view",
      "type": "function"
    },
    {
      "inputs": [
        {
          "internalType": "bytes32",
          "name": "",
          "type": "bytes32"
        }
      ],
      "name": "markets",
      "outputs": [
        {
          "internalType": "bytes21",
          "name": "feedId",
          "type": "bytes21"
        },
        {
          "internalType": "string",
          "name": "symbol",
          "type": "string"
        },
        {
          "internalType": "uint256",
          "name": "targetPrice",
          "type": "uint256"
        },
        {
          "internalType": "int8",
          "name": "targetDecimals",
          "type": "int8"
        },
        {
          "internalType": "enum ClawlyPriceMarket.Direction",
          "name": "direction",
          "type": "uint8"
        },
        {
          "internalType": "uint256",
          "name": "settlementTime",
          "type": "uint256"
        },
        {
          "internalType": "uint256",
          "name": "potAmount",
          "type": "uint256"
        },
        {
          "internalType": "uint256",
          "name": "predictionCount",
          "type": "uint256"
        },
        {
          "internalType": "bool",
          "name": "resolved",
          "type": "bool"
        },
        {
          "internalType": "bool",
          "name": "outcome",
          "type": "bool"
        },
        {
          "internalType": "uint256",
          "name": "totalScore",
          "type": "uint256"
        },
        {
          "internalType": "uint256",
          "name": "settledPrice",
          "type": "uint256"
        },
        {
          "internalType": "uint64",
          "name": "settledTimestamp",
          "type": "uint64"
        }
      ],
      "stateMutability": "view",
      "type": "function"
    },
    {
      "inputs": [],
      "name": "owner",
      "outputs": [
        {
          "internalType": "address",
          "name": "",
          "type": "address"
        }
      ],
      "stateMutability": "view",
      "type": "function"
    },
    {
      "inputs": [
        {
          "internalType": "bytes32",
          "name": "marketId",
          "type": "bytes32"
        },
        {
          "internalType": "uint256",
          "name": "pYes",
          "type": "uint256"
        }
      ],
      "name": "predict",
      "outputs": [],
      "stateMutability": "nonpayable",
      "type": "function"
    },
    {
      "inputs": [
        {
          "internalType": "bytes32",
          "name": "",
          "type": "bytes32"
        },
        {
          "internalType": "address",
          "name": "",
          "type": "address"
        }
      ],
      "name": "predictions",
      "outputs": [
        {
          "internalType": "address",
          "name": "agent",
          "type": "address"
        },
        {
          "internalType": "uint256",
          "name": "pYes",
          "type": "uint256"
        },
        {
          "internalType": "uint256",
          "name": "timestamp",
          "type": "uint256"
        },
        {
          "internalType": "bool",
          "name": "claimed",
          "type": "bool"
        }
      ],
      "stateMutability": "view",
      "type": "function"
    },
    {
      "inputs": [],
      "name": "renounceOwnership",
      "outputs": [],
      "stateMutability": "nonpayable",
      "type": "function"
    },
    {
      "inputs": [
        {
          "internalType": "bytes32",
          "name": "marketId",
          "type": "bytes32"
        }
      ],
      "name": "resolve",
      "outputs": [],
      "stateMutability": "nonpayable",
      "type": "function"
    },
    {
      "inputs": [
        {
          "internalType": "address",
          "name": "_treasury",
          "type": "address"
        }
      ],
      "name": "setTreasury",
      "outputs": [],
      "stateMutability": "nonpayable",
      "type": "function"
    },
    {
      "inputs": [
        {
          "internalType": "address",
          "name": "newOwner",
          "type": "address"
        }
      ],
      "name": "transferOwnership",
      "outputs": [],
      "stateMutability": "nonpayable",
      "type": "function"
    },
    {
      "inputs": [],
      "name": "treasury",
      "outputs": [
        {
          "internalType": "address",
          "name": "",
          "type": "address"
        }
      ],
      "stateMutability": "view",
      "type": "function"
    },
    {
      "inputs": [],
      "name": "usdt",
      "outputs": [
        {
          "internalType": "contract IERC20",
          "name": "",
          "type": "address"
        }
      ],
      "stateMutability": "view",
      "type": "function"
    }
  ],
  "bytecode": "0x60a06040523480156200001157600080fd5b506040516200268038038062002680833981016040819052620000349162000194565b33806200005c57604051631e4fbdf760e01b8152600060048201526024015b60405180910390fd5b620000678162000127565b50600180556001600160a01b038216620000b35760405162461bcd60e51b815260206004820152600c60248201526b125b9d985b1a59081554d11560a21b604482015260640162000053565b6001600160a01b038116620000fe5760405162461bcd60e51b815260206004820152601060248201526f496e76616c696420747265617375727960801b604482015260640162000053565b6001600160a01b03918216608052600280546001600160a01b03191691909216179055620001cc565b600080546001600160a01b038381166001600160a01b0319831681178455604051919092169283917f8be0079c531659141344cd1fd0a4f28419497f9722a3daafe3b4186f6b6457e09190a35050565b80516001600160a01b03811681146200018f57600080fd5b919050565b60008060408385031215620001a857600080fd5b620001b38362000177565b9150620001c36020840162000177565b90509250929050565b60805161247c620002046000396000818161024701528181610688015281816106f501528181610da3015261168d015261247c6000f3fe608060405234801561001057600080fd5b50600436106101c45760003560e01c80637564912b116100f9578063e1a4521811610097578063f2fde38b11610071578063f2fde38b1461045c578063f6d361cc1461046f578063fd69f3c214610479578063fe1063bc1461048157600080fd5b8063e1a4521814610438578063eaa47f6014610441578063f0f442601461044957600080fd5b8063a80f0a86116100d3578063a80f0a8614610371578063ab9ab68414610394578063bd66528a146103fd578063c3c95c7b1461041057600080fd5b80637564912b146103195780638da5cb5b146103455780639ef270301461035657600080fd5b8063539aa77f1161016657806361d027b31161014057806361d027b3146102f6578063686fdaf6146102c85780636dfae1b714610309578063715018a61461031157600080fd5b8063539aa77f146102c8578063563d1e84146102d05780635c23bdf5146102e357600080fd5b80632f48ab7d116101a25780632f48ab7d1461024257806349df7085146102815780634c4e33a5146102a257806352d84d1e146102b557600080fd5b80630208a3b2146101c95780630a642f81146101de578063161e444e14610207575b600080fd5b6101dc6101d7366004611c4d565b6104fa565b005b6101f16101ec366004611c6f565b610834565b6040516101fe9190611c88565b60405180910390f35b61021a610215366004611c6f565b6108a0565b6040805193845260009290920b602084015267ffffffffffffffff16908201526060016101fe565b6102697f000000000000000000000000000000000000000000000000000000000000000081565b6040516001600160a01b0390911681526020016101fe565b61029461028f366004611cea565b61096c565b6040519081526020016101fe565b6102696102b0366004611c4d565b610ab6565b6102946102c3366004611c6f565b610aee565b610294606481565b6101dc6102de366004611d5f565b610b0f565b6101dc6102f1366004611c6f565b611019565b600254610269906001600160a01b031681565b610294600181565b6101dc6113ca565b61032c610327366004611c6f565b6113de565b6040516101fe9d9c9b9a99989796959493929190611e94565b6000546001600160a01b0316610269565b61026973ad67fe66660fb8dfe9d6b1b4240d8650e30f601981565b61038461037f366004611c6f565b6114e3565b60405190151581526020016101fe565b6103e06103a2366004611f36565b60009182526004602090815260408084206001600160a01b03939093168452919052902060018101546002820154600390920154909260ff90911690565b6040805193845260208401929092521515908201526060016101fe565b6101dc61040b366004611c6f565b61151d565b61042361041e366004611c6f565b6116f8565b6040516101fe99989796959493929190611f66565b61029461271081565b610294606381565b6101dc610457366004611fc5565b61181c565b6101dc61046a366004611fc5565b61188f565b610294620186a081565b600654610294565b6104ce61048f366004611f36565b600460209081526000928352604080842090915290825290208054600182015460028301546003909301546001600160a01b0390921692909160ff1684565b604080516001600160a01b039095168552602085019390935291830152151560608201526080016101fe565b6105026118ca565b6000828152600360205260409020600481015461053a5760405162461bcd60e51b815260040161053190611fe2565b60405180910390fd5b8060040154421061057d5760405162461bcd60e51b815260206004820152600d60248201526c13585c9ad95d0818db1bdcd959609a1b6044820152606401610531565b600781015460ff16156105c55760405162461bcd60e51b815260206004820152601060248201526f105b1c9958591e481c995cdbdb1d995960821b6044820152606401610531565b600182101580156105d7575060638211155b6106175760405162461bcd60e51b815260206004820152601160248201527070596573206d75737420626520312d393960781b6044820152606401610531565b60008381526004602090815260408083203384529091529020546001600160a01b03161561067b5760405162461bcd60e51b8152602060048201526011602482015270105b1c9958591e481c1c99591a58dd1959607a1b6044820152606401610531565b6106b36001600160a01b037f0000000000000000000000000000000000000000000000000000000000000000163330620186a06118f4565b60006127106106c66064620186a0612022565b6106d0919061203f565b905060006106e182620186a0612061565b60025490915061071e906001600160a01b037f00000000000000000000000000000000000000000000000000000000000000008116911684611961565b808360050160008282546107329190612074565b909155505060068301805490600061074983612087565b909155505060408051608081018252338082526020808301888152428486019081526000606086018181528c8252600485528782208683528552878220965187546001600160a01b039091166001600160a01b0319918216178855935160018089019190915592516002880155516003909601805496151560ff19909716969096179095558a8552600583528585208054918201815585529382902090930180549093168217909255915186815287917f19303e4747b51bd72cca4dcff2bfc9e07f403a5f7b23bcda41d580b9fbc1a139910160405180910390a350505061083060018055565b5050565b60008181526005602090815260409182902080548351818402810184019094528084526060939283018282801561089457602002820191906000526020600020905b81546001600160a01b03168152600190910190602001808311610876575b50505050509050919050565b60008181526003602052604081206004810154829182916108d35760405162461bcd60e51b815260040161053190611fe2565b60006108dd611997565b82546040516349f4fc0360e11b815260589190911b6affffffffffffffffffffff191660048201529091506001600160a01b038216906393e9f80690602401606060405180830381865afa158015610939573d6000803e3d6000fd5b505050506040513d601f19601f8201168201806040525081019061095d91906120a0565b94509450945050509193909250565b6000838152600360209081526040808320600483528184206001600160a01b0380881686529352908320805491929091166109ac57600092505050610aaf565b6000868152600560205260408120815b8154811015610a52576000898152600460205260408120835482908590859081106109e9576109e96120e5565b60009182526020808320909101546001600160a01b031683528201929092526040018120915088610a29576001820154610a24906064612061565b610a2f565b81600101545b9050610a3b8186612074565b945050508080610a4a90612087565b9150506109bc565b5081600003610a68576000945050505050610aaf565b600086610a84576001840154610a7f906064612061565b610a8a565b83600101545b905082856005015482610a9d9190612022565b610aa7919061203f565b955050505050505b9392505050565b60056020528160005260406000208181548110610ad257600080fd5b6000918252602090912001546001600160a01b03169150829050565b60068181548110610afe57600080fd5b600091825260209091200154905081565b610b17611a28565b428211610b665760405162461bcd60e51b815260206004820152601960248201527f536574746c656d656e74206d75737420626520667574757265000000000000006044820152606401610531565b60008111610ba95760405162461bcd60e51b815260206004820152601060248201526f13995959081cd9595908185b5bdd5b9d60821b6044820152606401610531565b8515801590610bb95750600a8611155b610bf65760405162461bcd60e51b815260206004820152600e60248201526d125b9d985b1a59081cde5b589bdb60921b6044820152606401610531565b6000610c3788888080601f016020809104026020016040519081016040528093929190818152602001838380828437600092019190915250611a5592505050565b90506000610c43611997565b6040516349f4fc0360e11b81526affffffffffffffffffffff19841660048201529091506000906001600160a01b038316906393e9f80690602401606060405180830381865afa158015610c9b573d6000803e3d6000fd5b505050506040513d601f19601f82011682018060405250810190610cbf91906120a0565b5050905060008111610d135760405162461bcd60e51b815260206004820152601760248201527f4654534f2066656564206e6f7420617661696c61626c650000000000000000006044820152606401610531565b60008a8a8a8989604051602001610d2e9594939291906120fb565b60408051601f1981840301815291815281516020928301206000818152600390935291206004015490915015610d965760405162461bcd60e51b815260206004820152600d60248201526c4d61726b65742065786973747360981b6044820152606401610531565b610dcb6001600160a01b037f0000000000000000000000000000000000000000000000000000000000000000163330886118f4565b604051806101a00160405280856affffffffffffffffffffff191681526020018c8c8080601f0160208091040260200160405190810160405280939291908181526020018383808284376000920182905250938552505050602082018c90528a900b6040820152606001886001811115610e4757610e47611e5c565b8152602080820189905260408083018990526000606084018190526080840181905260a0840181905260c0840181905260e0840181905261010090930183905284835260038252909120825181546001600160a81b03191660589190911c178155908201516001820190610ebb90826121df565b5060408201516002820155606082015160038201805460ff90921660ff1983168117825560808501519261ffff191617610100836001811115610f0057610f00611e5c565b021790555060a0820151600482015560c0820151600582015560e08201516006808301919091556101008084015160078401805461012087015161ffff1990911692151561ff001916929092179115159092021790556101408301516008830155610160830151600983015561018090920151600a909101805467ffffffffffffffff191667ffffffffffffffff90921691909117905580546001810182556000919091527ff652222313e28459528d920b65115c16c04f3efc82aaedc97be59f3f377c0d3f0181905560405181907f572b2041a67a9ecb53f75b58e095306419ee67dbe3f8e7a5073c0630ab4ad87890611004908e908e908e908d908d9061229f565b60405180910390a25050505050505050505050565b6110216118ca565b600081815260036020526040902060048101546110505760405162461bcd60e51b815260040161053190611fe2565b806004015442101561109a5760405162461bcd60e51b81526020600482015260136024820152724e6f7420736574746c656d656e742074696d6560681b6044820152606401610531565b600781015460ff16156110e25760405162461bcd60e51b815260206004820152601060248201526f105b1c9958591e481c995cdbdb1d995960821b6044820152606401610531565b60006110ec611997565b82546040516349f4fc0360e11b8152919250600091829182916001600160a01b038616916393e9f8069161113a9160581b906004016affffffffffffffffffffff1991909116815260200190565b606060405180830381865afa158015611157573d6000803e3d6000fd5b505050506040513d601f19601f8201168201806040525081019061117b91906120a0565b925092509250600083116111ca5760405162461bcd60e51b81526020600482015260166024820152754654534f20707269636520756e617661696c61626c6560501b6044820152606401610531565b60038501546000908190810b84820b126112145760038701548592506111f39060000b856122ed565b6111fe90600a6123f2565b876002015461120d9190612022565b9050611246565b600387015461122790859060000b6122ed565b61123290600a6123f2565b61123c9086612022565b9150866002015490505b6000806003890154610100900460ff16600181111561126757611267611e5c565b0361127657508082101561127b565b508082105b600788018054600161ffff19909116610100841515021717905560098801869055600a8801805467ffffffffffffffff191667ffffffffffffffff86161790556000898152600560205260408120815b81548110156113615760008c8152600460205260408120835482908590859081106112f8576112f86120e5565b60009182526020808320909101546001600160a01b031683528201929092526040018120915085611338576001820154611333906064612061565b61133e565b81600101545b905061134a8186612074565b94505050808061135990612087565b9150506112cb565b5060088a01829055604080518415158152602081018a90529081018390523360608201528b907f8b9b6e240663f6e0bb2b383c84f720e7c9ee89db06c26bd61e0edc641a09e7d29060800160405180910390a2505050505050505050506113c760018055565b50565b6113d2611a28565b6113dc6000611b8c565b565b6003602052600090815260409020805460018201805460589290921b929161140590612157565b80601f016020809104026020016040519081016040528092919081815260200182805461143190612157565b801561147e5780601f106114535761010080835404028352916020019161147e565b820191906000526020600020905b81548152906001019060200180831161146157829003601f168201915b50505050600283015460038401546004850154600586015460068701546007880154600889015460098a0154600a909a015498999698600087900b985060ff6101009788900481169896979596949581851695940416929067ffffffffffffffff168d565b6000818152600360205260408120600481015415801590611508575080600401544210155b8015610aaf57506007015460ff161592915050565b6115256118ca565b6000818152600360205260409020600781015460ff166115765760405162461bcd60e51b815260206004820152600c60248201526b139bdd081c995cdbdb1d995960a21b6044820152606401610531565b6000828152600460209081526040808320338452909152902080546001600160a01b03166115d65760405162461bcd60e51b815260206004820152600d60248201526c273790383932b234b1ba34b7b760991b6044820152606401610531565b600381015460ff161561161d5760405162461bcd60e51b815260206004820152600f60248201526e105b1c9958591e4818db185a5b5959608a1b6044820152606401610531565b60038101805460ff191660011790556007820154600090610100900460ff16611655576001820154611650906064612061565b61165b565b81600101545b9050600083600801548460050154836116749190612022565b61167e919061203f565b90506116b46001600160a01b037f0000000000000000000000000000000000000000000000000000000000000000163383611961565b604051818152339086907f038b0cdf6318f158304d2b2f11b821333b4e69a21d83e945b6a741e1bbfc234b9060200160405180910390a3505050506113c760018055565b60606000806000806000806000806000600360008c815260200190815260200160002090508060010181600201548260030160019054906101000a900460ff168360040154846005015485600601548660070160009054906101000a900460ff168760070160019054906101000a900460ff16886009015488805461177c90612157565b80601f01602080910402602001604051908101604052809291908181526020018280546117a890612157565b80156117f55780601f106117ca576101008083540402835291602001916117f5565b820191906000526020600020905b8154815290600101906020018083116117d857829003601f168201915b50505050509850995099509950995099509950995099509950509193959799909294969850565b611824611a28565b6001600160a01b03811661186d5760405162461bcd60e51b815260206004820152601060248201526f496e76616c696420747265617375727960801b6044820152606401610531565b600280546001600160a01b0319166001600160a01b0392909216919091179055565b611897611a28565b6001600160a01b0381166118c157604051631e4fbdf760e01b815260006004820152602401610531565b6113c781611b8c565b6002600154036118ed57604051633ee5aeb560e01b815260040160405180910390fd5b6002600155565b6040516001600160a01b03848116602483015283811660448301526064820183905261195b9186918216906323b872dd906084015b604051602081830303815290604052915060e01b6020820180516001600160e01b038381831617835250505050611bdc565b50505050565b6040516001600160a01b0383811660248301526044820183905261199291859182169063a9059cbb90606401611929565b505050565b60405163413b07e560e11b8152602060048201526006602482015265233a39b7ab1960d11b604482015260009073ad67fe66660fb8dfe9d6b1b4240d8650e30f601990829082906382760fca90606401602060405180830381865afa158015611a04573d6000803e3d6000fd5b505050506040513d601f19601f82011682018060405250810190610aaf9190612401565b6000546001600160a01b031633146113dc5760405163118cdaa760e01b8152336004820152602401610531565b60008082604051602001611a69919061241e565b6040516020818303038152906040529050601481511115611abe5760405162461bcd60e51b815260206004820152600f60248201526e53796d626f6c20746f6f206c6f6e6760881b6044820152606401610531565b604080516015808252818301909252600091602082018180368337019050509050600160f81b81600081518110611af757611af76120e5565b60200101906001600160f81b031916908160001a90535060005b8251811015611b8057828181518110611b2c57611b2c6120e5565b01602001516001600160f81b03191682611b47836001612074565b81518110611b5757611b576120e5565b60200101906001600160f81b031916908160001a90535080611b7881612087565b915050611b11565b50602001519392505050565b600080546001600160a01b038381166001600160a01b0319831681178455604051919092169283917f8be0079c531659141344cd1fd0a4f28419497f9722a3daafe3b4186f6b6457e09190a35050565b600080602060008451602086016000885af180611bff576040513d6000823e3d81fd5b50506000513d91508115611c17578060011415611c24565b6001600160a01b0384163b155b1561195b57604051635274afe760e01b81526001600160a01b0385166004820152602401610531565b60008060408385031215611c6057600080fd5b50508035926020909101359150565b600060208284031215611c8157600080fd5b5035919050565b6020808252825182820181905260009190848201906040850190845b81811015611cc95783516001600160a01b031683529284019291840191600101611ca4565b50909695505050505050565b6001600160a01b03811681146113c757600080fd5b600080600060608486031215611cff57600080fd5b833592506020840135611d1181611cd5565b915060408401358015158114611d2657600080fd5b809150509250925092565b8060000b81146113c757600080fd5b8035611d4b81611d31565b919050565b803560028110611d4b57600080fd5b600080600080600080600060c0888a031215611d7a57600080fd5b873567ffffffffffffffff80821115611d9257600080fd5b818a0191508a601f830112611da657600080fd5b813581811115611db557600080fd5b8b6020828501011115611dc757600080fd5b602092830199509750508801359450611de260408901611d40565b9350611df060608901611d50565b92506080880135915060a0880135905092959891949750929550565b60005b83811015611e27578181015183820152602001611e0f565b50506000910152565b60008151808452611e48816020860160208601611e0c565b601f01601f19169290920160200192915050565b634e487b7160e01b600052602160045260246000fd5b60028110611e9057634e487b7160e01b600052602160045260246000fd5b9052565b6affffffffffffffffffffff198e1681526101a060208201526000611ebd6101a083018f611e30565b90508c60408301528b60000b6060830152611edb608083018c611e72565b8960a08301528860c08301528760e08301528615156101008301528515156101208301528461014083015283610160830152611f2461018083018467ffffffffffffffff169052565b9e9d5050505050505050505050505050565b60008060408385031215611f4957600080fd5b823591506020830135611f5b81611cd5565b809150509250929050565b6000610120808352611f7a8184018d611e30565b915050896020830152611f90604083018a611e72565b6060820197909752608081019590955260a085019390935290151560c0840152151560e0830152610100909101529392505050565b600060208284031215611fd757600080fd5b8135610aaf81611cd5565b60208082526010908201526f13585c9ad95d081b9bdd08199bdd5b9960821b604082015260600190565b634e487b7160e01b600052601160045260246000fd5b80820281158282048414176120395761203961200c565b92915050565b60008261205c57634e487b7160e01b600052601260045260246000fd5b500490565b818103818111156120395761203961200c565b808201808211156120395761203961200c565b6000600182016120995761209961200c565b5060010190565b6000806000606084860312156120b557600080fd5b8351925060208401516120c781611d31565b604085015190925067ffffffffffffffff81168114611d2657600080fd5b634e487b7160e01b600052603260045260246000fd5b8486823760008582018581526002851061212557634e487b7160e01b600052602160045260246000fd5b60f89490941b6020850152505060218201526041019392505050565b634e487b7160e01b600052604160045260246000fd5b600181811c9082168061216b57607f821691505b60208210810361218b57634e487b7160e01b600052602260045260246000fd5b50919050565b601f82111561199257600081815260208120601f850160051c810160208610156121b85750805b601f850160051c820191505b818110156121d7578281556001016121c4565b505050505050565b815167ffffffffffffffff8111156121f9576121f9612141565b61220d816122078454612157565b84612191565b602080601f831160018114612242576000841561222a5750858301515b600019600386901b1c1916600185901b1785556121d7565b600085815260208120601f198616915b8281101561227157888601518255948401946001909101908401612252565b508582101561228f5787850151600019600388901b60f8161c191681555b5050505050600190811b01905550565b60808152846080820152848660a0830137600060a08683010152600060a0601f19601f88011683010190508460208301526122dd6040830185611e72565b8260608301529695505050505050565b600082810b9082900b03607f198112607f821317156120395761203961200c565b600181815b8085111561234957816000190482111561232f5761232f61200c565b8085161561233c57918102915b93841c9390800290612313565b509250929050565b60008261236057506001612039565b8161236d57506000612039565b8160018114612383576002811461238d576123a9565b6001915050612039565b60ff84111561239e5761239e61200c565b50506001821b612039565b5060208310610133831016604e8410600b84101617156123cc575081810a612039565b6123d6838361230e565b80600019048211156123ea576123ea61200c565b029392505050565b6000610aaf60ff841683612351565b60006020828403121561241357600080fd5b8151610aaf81611cd5565b60008251612430818460208701611e0c565b630bd554d160e21b92019182525060040191905056fea26469706673582212201e20bc97d14c081d53ad6b3f56f5c991b1487c5e8e5c4afb86eddd8692f4eeac64736f6c63430008140033",
  "linkReferences": {},
  "deployedLinkReferences": {}
}