{"contracts/ClawlyPriceMarket.sol":{"ClawlyPriceMarket":{"abi":[{"inputs":[{"internalType":"address","name":"_usdt","type":"address"},{"internalType":"address","name":"_treasury","type":"address"}],"stateMutability":"nonpayable","type":"constructor"},{"inputs":[{"internalType":"address","name":"owner","type":"address"}],"name":"OwnableInvalidOwner","type":"error"},{"inputs":[{"internalType":"address","name":"account","type":"address"}],"name":"OwnableUnauthorizedAccount","type":"error"},{"inputs":[],"name":"ReentrancyGuardReentrantCall","type":"error"},{"inputs":[{"internalType":"address","name":"token","type":"address"}],"name":"SafeERC20FailedOperation","type":"error"},{"anonymous":false,"inputs":[{"indexed":true,"internalType":"bytes32","name":"marketId","type":"bytes32"},{"indexed":false,"internalType":"bool","name":"outcome","type":"bool"},{"indexed":false,"internalType":"uint256","name":"settledPrice","type":"uint256"},{"indexed":false,"internalType":"uint256","name":"totalScore","type":"uint256"},{"indexed":false,"internalType":"address","name":"resolver","type":"address"}],"name":"MarketResolved","type":"event"},{"anonymous":false,"inputs":[{"indexed":true,"internalType":"address","name":"previousOwner","type":"address"},{"indexed":true,"internalType":"address","name":"newOwner","type":"address"}],"name":"OwnershipTransferred","type":"event"},{"anonymous":false,"inputs":[{"indexed":true,"internalType":"bytes32","name":"marketId","type":"bytes32"},{"indexed":true,"internalType":"address","name":"agent","type":"address"},{"indexed":false,"internalType":"uint256","name":"amount","type":"uint256"}],"name":"PayoutClaimed","type":"event"},{"anonymous":false,"inputs":[{"indexed":true,"internalType":"bytes32","name":"marketId","type":"bytes32"},{"indexed":true,"internalType":"address","name":"agent","type":"address"},{"indexed":false,"internalType":"uint256","name":"pYes","type":"uint256"}],"name":"PredictionMade","type":"event"},{"anonymous":false,"inputs":[{"indexed":true,"internalType":"bytes32","name":"marketId","type":"bytes32"},{"indexed":false,"internalType":"string","name":"symbol","type":"string"},{"indexed":false,"internalType":"uint256","name":"targetPrice","type":"uint256"},{"indexed":false,"internalType":"enum ClawlyPriceMarket.Direction","name":"direction","type":"uint8"},{"indexed":false,"internalType":"uint256","name":"settlementTime","type":"uint256"}],"name":"PriceMarketCreated","type":"event"},{"inputs":[],"name":"BPS_DENOMINATOR","outputs":[{"internalType":"uint256","name":"","type":"uint256"}],"stateMutability":"view","type":"function"},{"inputs":[],"name":"ENTRY_FEE","outputs":[{"internalType":"uint256","name":"","type":"uint256"}],"stateMutability":"view","type":"function"},{"inputs":[],"name":"FLARE_REGISTRY","outputs":[{"internalType":"address","name":"","type":"address"}],"stateMutability":"view","type":"function"},{"inputs":[],"name":"MAX_PYES","outputs":[{"internalType":"uint256","name":"","type":"uint256"}],"stateMutability":"view","type":"function"},{"inputs":[],"name":"MIN_PYES","outputs":[{"internalType":"uint256","name":"","type":"uint256"}],"stateMutability":"view","type":"function"},{"inputs":[],"name":"PLATFORM_FEE_BPS","outputs":[{"internalType":"uint256","name":"","type":"uint256"}],"stateMutability":"view","type":"function"},{"inputs":[],"name":"PYES_DECIMALS","outputs":[{"internalType":"uint256","name":"","type":"uint256"}],"stateMutability":"view","type":"function"},{"inputs":[{"internalType":"uint256","name":"","type":"uint256"}],"name":"allMarkets","outputs":[{"internalType":"bytes32","name":"","type":"bytes32"}],"stateMutability":"view","type":"function"},{"inputs":[{"internalType":"bytes32","name":"marketId","type":"bytes32"}],"name":"canResolve","outputs":[{"internalType":"bool","name":"","type":"bool"}],"stateMutability":"view","type":"function"},{"inputs":[{"internalType":"bytes32","name":"marketId","type":"bytes32"}],"name":"claim","outputs":[],"stateMutability":"nonpayable","type":"function"},{"inputs":[{"internalType":"string","name":"symbol","type":"string"},{"internalType":"uint256","name":"targetPrice","type":"uint256"},{"internalType":"int8","name":"targetDecimals","type":"int8"},{"internalType":"enum ClawlyPriceMarket.Direction","name":"direction","type":"uint8"},{"internalType":"uint256","name":"settlementTime","type":"uint256"},{"internalType":"uint256","name":"seedAmount","type":"uint256"}],"name":"createPriceMarket","outputs":[],"stateMutability":"nonpayable","type":"function"},{"inputs":[{"internalType":"bytes32","name":"marketId","type":"bytes32"},{"internalType":"address","name":"agent","type":"address"},{"internalType":"bool","name":"assumedOutcome","type":"bool"}],"name":"estimatePayout","outputs":[{"internalType":"uint256","name":"","type":"uint256"}],"stateMutability":"view","type":"function"},{"inputs":[{"internalType":"bytes32","name":"marketId","type":"bytes32"}],"name":"getCurrentPrice","outputs":[{"internalType":"uint256","name":"price","type":"uint256"},{"internalType":"int8","name":"decimals","type":"int8"},{"internalType":"uint64","name":"timestamp","type":"uint64"}],"stateMutability":"view","type":"function"},{"inputs":[{"internalType":"bytes32","name":"marketId","type":"bytes32"}],"name":"getMarket","outputs":[{"internalType":"string","name":"symbol","type":"string"},{"internalType":"uint256","name":"targetPrice","type":"uint256"},{"internalType":"enum ClawlyPriceMarket.Direction","name":"direction","type":"uint8"},{"internalType":"uint256","name":"settlementTime","type":"uint256"},{"internalType":"uint256","name":"potAmount","type":"uint256"},{"internalType":"uint256","name":"predictionCount","type":"uint256"},{"internalType":"bool","name":"resolved","type":"bool"},{"internalType":"bool","name":"outcome","type":"bool"},{"internalType":"uint256","name":"settledPrice","type":"uint256"}],"stateMutability":"view","type":"function"},{"inputs":[{"internalType":"bytes32","name":"marketId","type":"bytes32"}],"name":"getMarketAgents","outputs":[{"internalType":"address[]","name":"","type":"address[]"}],"stateMutability":"view","type":"function"},{"inputs":[],"name":"getMarketCount","outputs":[{"internalType":"uint256","name":"","type":"uint256"}],"stateMutability":"view","type":"function"},{"inputs":[{"internalType":"bytes32","name":"marketId","type":"bytes32"},{"internalType":"address","name":"agent","type":"address"}],"name":"getPrediction","outputs":[{"internalType":"uint256","name":"pYes","type":"uint256"},{"internalType":"uint256","name":"timestamp","type":"uint256"},{"internalType":"bool","name":"claimed","type":"bool"}],"stateMutability":"view","type":"function"},{"inputs":[{"internalType":"bytes32","name":"","type":"bytes32"},{"internalType":"uint256","name":"","type":"uint256"}],"name":"marketAgents","outputs":[{"internalType":"address","name":"","type":"address"}],"stateMutability":"view","type":"function"},{"inputs":[{"internalType":"bytes32","name":"","type":"bytes32"}],"name":"markets","outputs":[{"internalType":"bytes21","name":"feedId","type":"bytes21"},{"internalType":"string","name":"symbol","type":"string"},{"internalType":"uint256","name":"targetPrice","type":"uint256"},{"internalType":"int8","name":"targetDecimals","type":"int8"},{"internalType":"enum ClawlyPriceMarket.Direction","name":"direction","type":"uint8"},{"internalType":"uint256","name":"settlementTime","type":"uint256"},{"internalType":"uint256","name":"potAmount","type":"uint256"},{"internalType":"uint256","name":"predictionCount","type":"uint256"},{"internalType":"bool","name":"resolved","type":"bool"},{"internalType":"bool","name":"outcome","type":"bool"},{"internalType":"uint256","name":"totalScore","type":"uint256"},{"internalType":"uint256","name":"settledPrice","type":"uint256"},{"internalType":"uint64","name":"settledTimestamp","type":"uint64"}],"stateMutability":"view","type":"function"},{"inputs":[],"name":"owner","outputs":[{"internalType":"address","name":"","type":"address"}],"stateMutability":"view","type":"function"},{"inputs":[{"internalType":"bytes32","name":"marketId","type":"bytes32"},{"internalType":"uint256","name":"pYes","type":"uint256"}],"name":"predict","outputs":[],"stateMutability":"nonpayable","type":"function"},{"inputs":[{"internalType":"bytes32","name":"","type":"bytes32"},{"internalType":"address","name":"","type":"address"}],"name":"predictions","outputs":[{"internalType":"address","name":"agent","type":"address"},{"internalType":"uint256","name":"pYes","type":"uint256"},{"internalType":"uint256","name":"timestamp","type":"uint256"},{"internalType":"bool","name":"claimed","type":"bool"}],"stateMutability":"view","type":"function"},{"inputs":[],"name":"renounceOwnership","outputs":[],"stateMutability":"nonpayable","type":"function"},{"inputs":[{"internalType":"bytes32","name":"marketId","type":"bytes32"}],"name":"resolve","outputs":[],"stateMutability":"nonpayable","type":"function"},{"inputs":[{"internalType":"address","name":"_treasury","type":"address"}],"name":"setTreasury","outputs":[],"stateMutability":"nonpayable","type":"function"},{"inputs":[{"internalType":"address","name":"newOwner","type":"address"}],"name":"transferOwnership","outputs":[],"stateMutability":"nonpayable","type":"function"},{"inputs":[],"name":"treasury","outputs":[{"internalType":"address","name":"","type":"address"}],"stateMutability":"view","type":"function"},{"inputs":[],"name":"usdt","outputs":[{"internalType":"contract IERC20","name":"","type":"address"}],"stateMutability":"view","type":"function"}],"evm":{"bytecode":{"linkReferences":{},"object":"60a06040523480156200001157600080fd5b50604051620025be380380620025be833981016040819052620000349162000194565b33806200005c57604051631e4fbdf760e01b8152600060048201526024015b60405180910390fd5b620000678162000127565b50600180556001600160a01b038216620000b35760405162461bcd60e51b815260206004820152600c60248201526b125b9d985b1a59081554d11560a21b604482015260640162000053565b6001600160a01b038116620000fe5760405162461bcd60e51b815260206004820152601060248201526f496e76616c696420747265617375727960801b604482015260640162000053565b6001600160a01b03918216608052600280546001600160a01b03191691909216179055620001cc565b600080546001600160a01b038381166001600160a01b0319831681178455604051919092169283917f8be0079c531659141344cd1fd0a4f28419497f9722a3daafe3b4186f6b6457e09190a35050565b80516001600160a01b03811681146200018f57600080fd5b919050565b60008060408385031215620001a857600080fd5b620001b38362000177565b9150620001c36020840162000177565b90509250929050565b6080516123ba620002046000396000818161024701528181610688015281816106f501528181610da3015261168d01526123ba6000f3fe608060405234801561001057600080fd5b50600436106101c45760003560e01c80637564912b116100f9578063e1a4521811610097578063f2fde38b11610071578063f2fde38b1461045c578063f6d361cc1461046f578063fd69f3c214610479578063fe1063bc1461048157600080fd5b8063e1a4521814610438578063eaa47f6014610441578063f0f442601461044957600080fd5b8063a80f0a86116100d3578063a80f0a8614610371578063ab9ab68414610394578063bd66528a146103fd578063c3c95c7b1461041057600080fd5b80637564912b146103195780638da5cb5b146103455780639ef270301461035657600080fd5b8063539aa77f1161016657806361d027b31161014057806361d027b3146102f6578063686fdaf6146102c85780636dfae1b714610309578063715018a61461031157600080fd5b8063539aa77f146102c8578063563d1e84146102d05780635c23bdf5146102e357600080fd5b80632f48ab7d116101a25780632f48ab7d1461024257806349df7085146102815780634c4e33a5146102a257806352d84d1e146102b557600080fd5b80630208a3b2146101c95780630a642f81146101de578063161e444e14610207575b600080fd5b6101dc6101d7366004611b8b565b6104fa565b005b6101f16101ec366004611bad565b610834565b6040516101fe9190611bc6565b60405180910390f35b61021a610215366004611bad565b6108a0565b6040805193845260009290920b602084015267ffffffffffffffff16908201526060016101fe565b6102697f000000000000000000000000000000000000000000000000000000000000000081565b6040516001600160a01b0390911681526020016101fe565b61029461028f366004611c28565b61096c565b6040519081526020016101fe565b6102696102b0366004611b8b565b610ab6565b6102946102c3366004611bad565b610aee565b610294606481565b6101dc6102de366004611c9d565b610b0f565b6101dc6102f1366004611bad565b611019565b600254610269906001600160a01b031681565b610294600181565b6101dc6113ca565b61032c610327366004611bad565b6113de565b6040516101fe9d9c9b9a99989796959493929190611dd2565b6000546001600160a01b0316610269565b61026973ad67fe66660fb8dfe9d6b1b4240d8650e30f601981565b61038461037f366004611bad565b6114e3565b60405190151581526020016101fe565b6103e06103a2366004611e74565b60009182526004602090815260408084206001600160a01b03939093168452919052902060018101546002820154600390920154909260ff90911690565b6040805193845260208401929092521515908201526060016101fe565b6101dc61040b366004611bad565b61151d565b61042361041e366004611bad565b6116f8565b6040516101fe99989796959493929190611ea4565b61029461271081565b610294606381565b6101dc610457366004611f03565b61181c565b6101dc61046a366004611f03565b61188f565b610294620186a081565b600654610294565b6104ce61048f366004611e74565b600460209081526000928352604080842090915290825290208054600182015460028301546003909301546001600160a01b0390921692909160ff1684565b604080516001600160a01b039095168552602085019390935291830152151560608201526080016101fe565b6105026118ca565b6000828152600360205260409020600481015461053a5760405162461bcd60e51b815260040161053190611f20565b60405180910390fd5b8060040154421061057d5760405162461bcd60e51b815260206004820152600d60248201526c13585c9ad95d0818db1bdcd959609a1b6044820152606401610531565b600781015460ff16156105c55760405162461bcd60e51b815260206004820152601060248201526f105b1c9958591e481c995cdbdb1d995960821b6044820152606401610531565b600182101580156105d7575060638211155b6106175760405162461bcd60e51b815260206004820152601160248201527070596573206d75737420626520312d393960781b6044820152606401610531565b60008381526004602090815260408083203384529091529020546001600160a01b03161561067b5760405162461bcd60e51b8152602060048201526011602482015270105b1c9958591e481c1c99591a58dd1959607a1b6044820152606401610531565b6106b36001600160a01b037f0000000000000000000000000000000000000000000000000000000000000000163330620186a06118f4565b60006127106106c66064620186a0611f60565b6106d09190611f7d565b905060006106e182620186a0611f9f565b60025490915061071e906001600160a01b037f00000000000000000000000000000000000000000000000000000000000000008116911684611961565b808360050160008282546107329190611fb2565b909155505060068301805490600061074983611fc5565b909155505060408051608081018252338082526020808301888152428486019081526000606086018181528c8252600485528782208683528552878220965187546001600160a01b039091166001600160a01b0319918216178855935160018089019190915592516002880155516003909601805496151560ff19909716969096179095558a8552600583528585208054918201815585529382902090930180549093168217909255915186815287917f19303e4747b51bd72cca4dcff2bfc9e07f403a5f7b23bcda41d580b9fbc1a139910160405180910390a350505061083060018055565b5050565b60008181526005602090815260409182902080548351818402810184019094528084526060939283018282801561089457602002820191906000526020600020905b81546001600160a01b03168152600190910190602001808311610876575b50505050509050919050565b60008181526003602052604081206004810154829182916108d35760405162461bcd60e51b815260040161053190611f20565b60006108dd611997565b82546040516349f4fc0360e11b815260589190911b6affffffffffffffffffffff191660048201529091506001600160a01b038216906393e9f80690602401606060405180830381865afa158015610939573d6000803e3d6000fd5b505050506040513d601f19601f8201168201806040525081019061095d9190611fde565b94509450945050509193909250565b6000838152600360209081526040808320600483528184206001600160a01b0380881686529352908320805491929091166109ac57600092505050610aaf565b6000868152600560205260408120815b8154811015610a52576000898152600460205260408120835482908590859081106109e9576109e9612023565b60009182526020808320909101546001600160a01b031683528201929092526040018120915088610a29576001820154610a24906064611f9f565b610a2f565b81600101545b9050610a3b8186611fb2565b945050508080610a4a90611fc5565b9150506109bc565b5081600003610a68576000945050505050610aaf565b600086610a84576001840154610a7f906064611f9f565b610a8a565b83600101545b905082856005015482610a9d9190611f60565b610aa79190611f7d565b955050505050505b9392505050565b60056020528160005260406000208181548110610ad257600080fd5b6000918252602090912001546001600160a01b03169150829050565b60068181548110610afe57600080fd5b600091825260209091200154905081565b610b17611a28565b428211610b665760405162461bcd60e51b815260206004820152601960248201527f536574746c656d656e74206d75737420626520667574757265000000000000006044820152606401610531565b60008111610ba95760405162461bcd60e51b815260206004820152601060248201526f13995959081cd9595908185b5bdd5b9d60821b6044820152606401610531565b8515801590610bb95750600a8611155b610bf65760405162461bcd60e51b815260206004820152600e60248201526d125b9d985b1a59081cde5b589bdb60921b6044820152606401610531565b6000610c3788888080601f016020809104026020016040519081016040528093929190818152602001838380828437600092019190915250611a5592505050565b90506000610c43611997565b6040516349f4fc0360e11b81526affffffffffffffffffffff19841660048201529091506000906001600160a01b038316906393e9f80690602401606060405180830381865afa158015610c9b573d6000803e3d6000fd5b505050506040513d601f19601f82011682018060405250810190610cbf9190611fde565b5050905060008111610d135760405162461bcd60e51b815260206004820152601760248201527f4654534f2066656564206e6f7420617661696c61626c650000000000000000006044820152606401610531565b60008a8a8a8989604051602001610d2e959493929190612039565b60408051601f1981840301815291815281516020928301206000818152600390935291206004015490915015610d965760405162461bcd60e51b815260206004820152600d60248201526c4d61726b65742065786973747360981b6044820152606401610531565b610dcb6001600160a01b037f0000000000000000000000000000000000000000000000000000000000000000163330886118f4565b604051806101a00160405280856affffffffffffffffffffff191681526020018c8c8080601f0160208091040260200160405190810160405280939291908181526020018383808284376000920182905250938552505050602082018c90528a900b6040820152606001886001811115610e4757610e47611d9a565b8152602080820189905260408083018990526000606084018190526080840181905260a0840181905260c0840181905260e0840181905261010090930183905284835260038252909120825181546001600160a81b03191660589190911c178155908201516001820190610ebb908261211d565b5060408201516002820155606082015160038201805460ff90921660ff1983168117825560808501519261ffff191617610100836001811115610f0057610f00611d9a565b021790555060a0820151600482015560c0820151600582015560e08201516006808301919091556101008084015160078401805461012087015161ffff1990911692151561ff001916929092179115159092021790556101408301516008830155610160830151600983015561018090920151600a909101805467ffffffffffffffff191667ffffffffffffffff90921691909117905580546001810182556000919091527ff652222313e28459528d920b65115c16c04f3efc82aaedc97be59f3f377c0d3f0181905560405181907f572b2041a67a9ecb53f75b58e095306419ee67dbe3f8e7a5073c0630ab4ad87890611004908e908e908e908d908d906121dd565b60405180910390a25050505050505050505050565b6110216118ca565b600081815260036020526040902060048101546110505760405162461bcd60e51b815260040161053190611f20565b806004015442101561109a5760405162461bcd60e51b81526020600482015260136024820152724e6f7420736574746c656d656e742074696d6560681b6044820152606401610531565b600781015460ff16156110e25760405162461bcd60e51b815260206004820152601060248201526f105b1c9958591e481c995cdbdb1d995960821b6044820152606401610531565b60006110ec611997565b82546040516349f4fc0360e11b8152919250600091829182916001600160a01b038616916393e9f8069161113a9160581b906004016affffffffffffffffffffff1991909116815260200190565b606060405180830381865afa158015611157573d6000803e3d6000fd5b505050506040513d601f19601f8201168201806040525081019061117b9190611fde565b925092509250600083116111ca5760405162461bcd60e51b81526020600482015260166024820152754654534f20707269636520756e617661696c61626c6560501b6044820152606401610531565b60038501546000908190810b84820b126112145760038701548592506111f39060000b8561222b565b6111fe90600a612330565b876002015461120d9190611f60565b9050611246565b600387015461122790859060000b61222b565b61123290600a612330565b61123c9086611f60565b9150866002015490505b6000806003890154610100900460ff16600181111561126757611267611d9a565b0361127657508082101561127b565b508082105b600788018054600161ffff19909116610100841515021717905560098801869055600a8801805467ffffffffffffffff191667ffffffffffffffff86161790556000898152600560205260408120815b81548110156113615760008c8152600460205260408120835482908590859081106112f8576112f8612023565b60009182526020808320909101546001600160a01b031683528201929092526040018120915085611338576001820154611333906064611f9f565b61133e565b81600101545b905061134a8186611fb2565b94505050808061135990611fc5565b9150506112cb565b5060088a01829055604080518415158152602081018a90529081018390523360608201528b907f8b9b6e240663f6e0bb2b383c84f720e7c9ee89db06c26bd61e0edc641a09e7d29060800160405180910390a2505050505050505050506113c760018055565b50565b6113d2611a28565b6113dc6000611aca565b565b6003602052600090815260409020805460018201805460589290921b929161140590612095565b80601f016020809104026020016040519081016040528092919081815260200182805461143190612095565b801561147e5780601f106114535761010080835404028352916020019161147e565b820191906000526020600020905b81548152906001019060200180831161146157829003601f168201915b50505050600283015460038401546004850154600586015460068701546007880154600889015460098a0154600a909a015498999698600087900b985060ff6101009788900481169896979596949581851695940416929067ffffffffffffffff168d565b6000818152600360205260408120600481015415801590611508575080600401544210155b8015610aaf57506007015460ff161592915050565b6115256118ca565b6000818152600360205260409020600781015460ff166115765760405162461bcd60e51b815260206004820152600c60248201526b139bdd081c995cdbdb1d995960a21b6044820152606401610531565b6000828152600460209081526040808320338452909152902080546001600160a01b03166115d65760405162461bcd60e51b815260206004820152600d60248201526c273790383932b234b1ba34b7b760991b6044820152606401610531565b600381015460ff161561161d5760405162461bcd60e51b815260206004820152600f60248201526e105b1c9958591e4818db185a5b5959608a1b6044820152606401610531565b60038101805460ff191660011790556007820154600090610100900460ff16611655576001820154611650906064611f9f565b61165b565b81600101545b9050600083600801548460050154836116749190611f60565b61167e9190611f7d565b90506116b46001600160a01b037f0000000000000000000000000000000000000000000000000000000000000000163383611961565b604051818152339086907f038b0cdf6318f158304d2b2f11b821333b4e69a21d83e945b6a741e1bbfc234b9060200160405180910390a3505050506113c760018055565b60606000806000806000806000806000600360008c815260200190815260200160002090508060010181600201548260030160019054906101000a900460ff168360040154846005015485600601548660070160009054906101000a900460ff168760070160019054906101000a900460ff16886009015488805461177c90612095565b80601f01602080910402602001604051908101604052809291908181526020018280546117a890612095565b80156117f55780601f106117ca576101008083540402835291602001916117f5565b820191906000526020600020905b8154815290600101906020018083116117d857829003601f168201915b50505050509850995099509950995099509950995099509950509193959799909294969850565b611824611a28565b6001600160a01b03811661186d5760405162461bcd60e51b815260206004820152601060248201526f496e76616c696420747265617375727960801b6044820152606401610531565b600280546001600160a01b0319166001600160a01b0392909216919091179055565b611897611a28565b6001600160a01b0381166118c157604051631e4fbdf760e01b815260006004820152602401610531565b6113c781611aca565b6002600154036118ed57604051633ee5aeb560e01b815260040160405180910390fd5b6002600155565b6040516001600160a01b03848116602483015283811660448301526064820183905261195b9186918216906323b872dd906084015b604051602081830303815290604052915060e01b6020820180516001600160e01b038381831617835250505050611b1a565b50505050565b6040516001600160a01b0383811660248301526044820183905261199291859182169063a9059cbb90606401611929565b505050565b60405163413b07e560e11b8152602060048201526006602482015265233a39b7ab1960d11b604482015260009073ad67fe66660fb8dfe9d6b1b4240d8650e30f601990829082906382760fca90606401602060405180830381865afa158015611a04573d6000803e3d6000fd5b505050506040513d601f19601f82011682018060405250810190610aaf919061233f565b6000546001600160a01b031633146113dc5760405163118cdaa760e01b8152336004820152602401610531565b60008082604051602001611a69919061235c565b60405160208183030381529060405290506000600160b01b90508151602083016014821115611a9757601491505b60005b82811015611abf578181015160001a60086013839003021b9390931792600101611a9a565b509195945050505050565b600080546001600160a01b038381166001600160a01b0319831681178455604051919092169283917f8be0079c531659141344cd1fd0a4f28419497f9722a3daafe3b4186f6b6457e09190a35050565b600080602060008451602086016000885af180611b3d576040513d6000823e3d81fd5b50506000513d91508115611b55578060011415611b62565b6001600160a01b0384163b155b1561195b57604051635274afe760e01b81526001600160a01b0385166004820152602401610531565b60008060408385031215611b9e57600080fd5b50508035926020909101359150565b600060208284031215611bbf57600080fd5b5035919050565b6020808252825182820181905260009190848201906040850190845b81811015611c075783516001600160a01b031683529284019291840191600101611be2565b50909695505050505050565b6001600160a01b03811681146113c757600080fd5b600080600060608486031215611c3d57600080fd5b833592506020840135611c4f81611c13565b915060408401358015158114611c6457600080fd5b809150509250925092565b8060000b81146113c757600080fd5b8035611c8981611c6f565b919050565b803560028110611c8957600080fd5b600080600080600080600060c0888a031215611cb857600080fd5b873567ffffffffffffffff80821115611cd057600080fd5b818a0191508a601f830112611ce457600080fd5b813581811115611cf357600080fd5b8b6020828501011115611d0557600080fd5b602092830199509750508801359450611d2060408901611c7e565b9350611d2e60608901611c8e565b92506080880135915060a0880135905092959891949750929550565b60005b83811015611d65578181015183820152602001611d4d565b50506000910152565b60008151808452611d86816020860160208601611d4a565b601f01601f19169290920160200192915050565b634e487b7160e01b600052602160045260246000fd5b60028110611dce57634e487b7160e01b600052602160045260246000fd5b9052565b6affffffffffffffffffffff198e1681526101a060208201526000611dfb6101a083018f611d6e565b90508c60408301528b60000b6060830152611e19608083018c611db0565b8960a08301528860c08301528760e08301528615156101008301528515156101208301528461014083015283610160830152611e6261018083018467ffffffffffffffff169052565b9e9d5050505050505050505050505050565b60008060408385031215611e8757600080fd5b823591506020830135611e9981611c13565b809150509250929050565b6000610120808352611eb88184018d611d6e565b915050896020830152611ece604083018a611db0565b6060820197909752608081019590955260a085019390935290151560c0840152151560e0830152610100909101529392505050565b600060208284031215611f1557600080fd5b8135610aaf81611c13565b60208082526010908201526f13585c9ad95d081b9bdd08199bdd5b9960821b604082015260600190565b634e487b7160e01b600052601160045260246000fd5b8082028115828204841417611f7757611f77611f4a565b92915050565b600082611f9a57634e487b7160e01b600052601260045260246000fd5b500490565b81810381811115611f7757611f77611f4a565b80820180821115611f7757611f77611f4a565b600060018201611fd757611fd7611f4a565b5060010190565b600080600060608486031215611ff357600080fd5b83519250602084015161200581611c6f565b604085015190925067ffffffffffffffff81168114611c6457600080fd5b634e487b7160e01b600052603260045260246000fd5b8486823760008582018581526002851061206357634e487b7160e01b600052602160045260246000fd5b60f89490941b6020850152505060218201526041019392505050565b634e487b7160e01b600052604160045260246000fd5b600181811c908216806120a957607f821691505b6020821081036120c957634e487b7160e01b600052602260045260246000fd5b50919050565b601f82111561199257600081815260208120601f850160051c810160208610156120f65750805b601f850160051c820191505b8181101561211557828155600101612102565b505050505050565b815167ffffffffffffffff8111156121375761213761207f565b61214b816121458454612095565b846120cf565b602080601f83116001811461218057600084156121685750858301515b600019600386901b1c1916600185901b178555612115565b600085815260208120601f198616915b828110156121af57888601518255948401946001909101908401612190565b50858210156121cd5787850151600019600388901b60f8161c191681555b5050505050600190811b01905550565b60808152846080820152848660a0830137600060a08683010152600060a0601f19601f880116830101905084602083015261221b6040830185611db0565b8260608301529695505050505050565b600082810b9082900b03607f198112607f82131715611f7757611f77611f4a565b600181815b8085111561228757816000190482111561226d5761226d611f4a565b8085161561227a57918102915b93841c9390800290612251565b509250929050565b60008261229e57506001611f77565b816122ab57506000611f77565b81600181146122c157600281146122cb576122e7565b6001915050611f77565b60ff8411156122dc576122dc611f4a565b50506001821b611f77565b5060208310610133831016604e8410600b841016171561230a575081810a611f77565b612314838361224c565b806000190482111561232857612328611f4a565b029392505050565b6000610aaf60ff84168361228f565b60006020828403121561235157600080fd5b8151610aaf81611c13565b6000825161236e818460208701611d4a565b630bd554d160e21b92019182525060040191905056fea2646970667358221220b01a67855cd04e90a0efede223a3cf53450c2ca1b0c125e29b5cba8c232e73b464736f6c63430008140033","opcodes":"PUSH1 0xA0 PUSH1 0x40 MSTORE CALLVALUE DUP1 ISZERO PUSH3 0x11 JUMPI PUSH1 0x0 DUP1 REVERT JUMPDEST POP PUSH1 0x40 MLOAD PUSH3 0x25BE CODESIZE SUB DUP1 PUSH3 0x25BE DUP4 CODECOPY DUP2 ADD PUSH1 0x40 DUP2 SWAP1 MSTORE PUSH3 0x34 SWAP2 PUSH3 0x194 JUMP JUMPDEST CALLER DUP1 PUSH3 0x5C JUMPI PUSH1 0x40 MLOAD PUSH4 0x1E4FBDF7 PUSH1 0xE0 SHL DUP2 MSTORE PUSH1 0x0 PUSH1 0x4 DUP3 ADD MSTORE PUSH1 0x24 ADD JUMPDEST PUSH1 0x40 MLOAD DUP1 SWAP2 SUB SWAP1 REVERT JUMPDEST PUSH3 0x67 DUP2 PUSH3 0x127 JUMP JUMPDEST POP PUSH1 0x1 DUP1 SSTORE PUSH1 0x1 PUSH1 0x1 PUSH1 0xA0 SHL SUB DUP3 AND PUSH3 0xB3 JUMPI PUSH1 0x40 MLOAD PUSH3 0x461BCD PUSH1 0xE5 SHL DUP2 MSTORE PUSH1 0x20 PUSH1 0x4 DUP3 ADD MSTORE PUSH1 0xC PUSH1 0x24 DUP3 ADD MSTORE PUSH12 0x125B9D985B1A59081554D115 PUSH1 0xA2 SHL PUSH1 0x44 DUP3 ADD MSTORE PUSH1 0x64 ADD PUSH3 0x53 JUMP JUMPDEST PUSH1 0x1 PUSH1 0x1 PUSH1 0xA0 SHL SUB DUP2 AND PUSH3 0xFE JUMPI PUSH1 0x40 MLOAD PUSH3 0x461BCD PUSH1 0xE5 SHL DUP2 MSTORE PUSH1 0x20 PUSH1 0x4 DUP3 ADD MSTORE PUSH1 0x10 PUSH1 0x24 DUP3 ADD MSTORE PUSH16 0x496E76616C6964207472656173757279 PUSH1 0x80 SHL PUSH1 0x44 DUP3 ADD MSTORE PUSH1 0x64 ADD PUSH3 0x53 JUMP JUMPDEST PUSH1 0x1 PUSH1 0x1 PUSH1 0xA0 SHL SUB SWAP2 DUP3 AND PUSH1 0x80 MSTORE PUSH1 0x2 DUP1 SLOAD PUSH1 0x1 PUSH1 0x1 PUSH1 0xA0 SHL SUB NOT AND SWAP2 SWAP1 SWAP3 AND OR SWAP1 SSTORE PUSH3 0x1CC JUMP JUMPDEST PUSH1 0x0 DUP1 SLOAD PUSH1 0x1 PUSH1 0x1 PUSH1 0xA0 SHL SUB DUP4 DUP2 AND PUSH1 0x1 PUSH1 0x1 PUSH1 0xA0 SHL SUB NOT DUP4 AND DUP2 OR DUP5 SSTORE PUSH1 0x40 MLOAD SWAP2 SWAP1 SWAP3 AND SWAP3 DUP4 SWAP2 PUSH32 0x8BE0079C531659141344CD1FD0A4F28419497F9722A3DAAFE3B4186F6B6457E0 SWAP2 SWAP1 LOG3 POP POP JUMP JUMPDEST DUP1 MLOAD PUSH1 0x1 PUSH1 0x1 PUSH1 0xA0 SHL SUB DUP2 AND DUP2 EQ PUSH3 0x18F JUMPI PUSH1 0x0 DUP1 REVERT JUMPDEST SWAP2 SWAP1 POP JUMP JUMPDEST PUSH1 0x0 DUP1 PUSH1 0x40 DUP4 DUP6 SUB SLT ISZERO PUSH3 0x1A8 JUMPI PUSH1 0x0 DUP1 REVERT JUMPDEST PUSH3 0x1B3 DUP4 PUSH3 0x177 JUMP JUMPDEST SWAP2 POP PUSH3 0x1C3 PUSH1 0x20 DUP5 ADD PUSH3 0x177 JUMP JUMPDEST SWAP1 POP SWAP3 POP SWAP3 SWAP1 POP JUMP JUMPDEST PUSH1 0x80 MLOAD PUSH2 0x23BA PUSH3 0x204 PUSH1 0x0 CODECOPY PUSH1 0x0 DUP2 DUP2 PUSH2 0x247 ADD MSTORE DUP2 DUP2 PUSH2 0x688 ADD MSTORE DUP2 DUP2 PUSH2 0x6F5 ADD MSTORE DUP2 DUP2 PUSH2 0xDA3 ADD MSTORE PUSH2 0x168D ADD MSTORE PUSH2 0x23BA PUSH1 0x0 RETURN INVALID PUSH1 0x80 PUSH1 0x40 MSTORE CALLVALUE DUP1 ISZERO PUSH2 0x10 JUMPI PUSH1 0x0 DUP1 REVERT JUMPDEST POP PUSH1 0x4 CALLDATASIZE LT PUSH2 0x1C4 JUMPI PUSH1 0x0 CALLDATALOAD PUSH1 0xE0 SHR DUP1 PUSH4 0x7564912B GT PUSH2 0xF9 JUMPI DUP1 PUSH4 0xE1A45218 GT PUSH2 0x97 JUMPI DUP1 PUSH4 0xF2FDE38B GT PUSH2 0x71 JUMPI DUP1 PUSH4 0xF2FDE38B EQ PUSH2 0x45C JUMPI DUP1 PUSH4 0xF6D361CC EQ PUSH2 0x46F JUMPI DUP1 PUSH4 0xFD69F3C2 EQ PUSH2 0x479 JUMPI DUP1 PUSH4 0xFE1063BC EQ PUSH2 0x481 JUMPI PUSH1 0x0 DUP1 REVERT JUMPDEST DUP1 PUSH4 0xE1A45218 EQ PUSH2 0x438 JUMPI DUP1 PUSH4 0xEAA47F60 EQ PUSH2 0x441 JUMPI DUP1 PUSH4 0xF0F44260 EQ PUSH2 0x449 JUMPI PUSH1 0x0 DUP1 REVERT JUMPDEST DUP1 PUSH4 0xA80F0A86 GT PUSH2 0xD3 JUMPI DUP1 PUSH4 0xA80F0A86 EQ PUSH2 0x371 JUMPI DUP1 PUSH4 0xAB9AB684 EQ PUSH2 0x394 JUMPI DUP1 PUSH4 0xBD66528A EQ PUSH2 0x3FD JUMPI DUP1 PUSH4 0xC3C95C7B EQ PUSH2 0x410 JUMPI PUSH1 0x0 DUP1 REVERT JUMPDEST DUP1 PUSH4 0x7564912B EQ PUSH2 0x319 JUMPI DUP1 PUSH4 0x8DA5CB5B EQ PUSH2 0x345 JUMPI DUP1 PUSH4 0x9EF27030 EQ PUSH2 0x356 JUMPI PUSH1 0x0 DUP1 REVERT JUMPDEST DUP1 PUSH4 0x539AA77F GT PUSH2 0x166 JUMPI DUP1 PUSH4 0x61D027B3 GT PUSH2 0x140 JUMPI DUP1 PUSH4 0x61D027B3 EQ PUSH2 0x2F6 JUMPI DUP1 PUSH4 0x686FDAF6 EQ PUSH2 0x2C8 JUMPI DUP1 PUSH4 0x6DFAE1B7 EQ PUSH2 0x309 JUMPI DUP1 PUSH4 0x715018A6 EQ PUSH2 0x311 JUMPI PUSH1 0x0 DUP1 REVERT JUMPDEST DUP1 PUSH4 0x539AA77F EQ PUSH2 0x2C8 JUMPI DUP1 PUSH4 0x563D1E84 EQ PUSH2 0x2D0 JUMPI DUP1 PUSH4 0x5C23BDF5 EQ PUSH2 0x2E3 JUMPI PUSH1 0x0 DUP1 REVERT JUMPDEST DUP1 PUSH4 0x2F48AB7D GT PUSH2 0x1A2 JUMPI DUP1 PUSH4 0x2F48AB7D EQ PUSH2 0x242 JUMPI DUP1 PUSH4 0x49DF7085 EQ PUSH2 0x281 JUMPI DUP1 PUSH4 0x4C4E33A5 EQ PUSH2 0x2A2 JUMPI DUP1 PUSH4 0x52D84D1E EQ PUSH2 0x2B5 JUMPI PUSH1 0x0 DUP1 REVERT JUMPDEST DUP1 PUSH4 0x208A3B2 EQ PUSH2 0x1C9 JUMPI DUP1 PUSH4 0xA642F81 EQ PUSH2 0x1DE JUMPI DUP1 PUSH4 0x161E444E EQ PUSH2 0x207 JUMPI JUMPDEST PUSH1 0x0 DUP1 REVERT JUMPDEST PUSH2 0x1DC PUSH2 0x1D7 CALLDATASIZE PUSH1 0x4 PUSH2 0x1B8B JUMP JUMPDEST PUSH2 0x4FA JUMP JUMPDEST STOP JUMPDEST PUSH2 0x1F1 PUSH2 0x1EC CALLDATASIZE PUSH1 0x4 PUSH2 0x1BAD JUMP JUMPDEST PUSH2 0x834 JUMP JUMPDEST PUSH1 0x40 MLOAD PUSH2 0x1FE SWAP2 SWAP1 PUSH2 0x1BC6 JUMP JUMPDEST PUSH1 0x40 MLOAD DUP1 SWAP2 SUB SWAP1 RETURN JUMPDEST PUSH2 0x21A PUSH2 0x215 CALLDATASIZE PUSH1 0x4 PUSH2 0x1BAD JUMP JUMPDEST PUSH2 0x8A0 JUMP JUMPDEST PUSH1 0x40 DUP1 MLOAD SWAP4 DUP5 MSTORE PUSH1 0x0 SWAP3 SWAP1 SWAP3 SIGNEXTEND PUSH1 0x20 DUP5 ADD MSTORE PUSH8 0xFFFFFFFFFFFFFFFF AND SWAP1 DUP3 ADD MSTORE PUSH1 0x60 ADD PUSH2 0x1FE JUMP JUMPDEST PUSH2 0x269 PUSH32 0x0 DUP2 JUMP JUMPDEST PUSH1 0x40 MLOAD PUSH1 0x1 PUSH1 0x1 PUSH1 0xA0 SHL SUB SWAP1 SWAP2 AND DUP2 MSTORE PUSH1 0x20 ADD PUSH2 0x1FE JUMP JUMPDEST PUSH2 0x294 PUSH2 0x28F CALLDATASIZE PUSH1 0x4 PUSH2 0x1C28 JUMP JUMPDEST PUSH2 0x96C JUMP JUMPDEST PUSH1 0x40 MLOAD SWAP1 DUP2 MSTORE PUSH1 0x20 ADD PUSH2 0x1FE JUMP JUMPDEST PUSH2 0x269 PUSH2 0x2B0 CALLDATASIZE PUSH1 0x4 PUSH2 0x1B8B JUMP JUMPDEST PUSH2 0xAB6 JUMP JUMPDEST PUSH2 0x294 PUSH2 0x2C3 CALLDATASIZE PUSH1 0x4 PUSH2 0x1BAD JUMP JUMPDEST PUSH2 0xAEE JUMP JUMPDEST PUSH2 0x294 PUSH1 0x64 DUP2 JUMP JUMPDEST PUSH2 0x1DC PUSH2 0x2DE CALLDATASIZE PUSH1 0x4 PUSH2 0x1C9D JUMP JUMPDEST PUSH2 0xB0F JUMP JUMPDEST PUSH2 0x1DC PUSH2 0x2F1 CALLDATASIZE PUSH1 0x4 PUSH2 0x1BAD JUMP JUMPDEST PUSH2 0x1019 JUMP JUMPDEST PUSH1 0x2 SLOAD PUSH2 0x269 SWAP1 PUSH1 0x1 PUSH1 0x1 PUSH1 0xA0 SHL SUB AND DUP2 JUMP JUMPDEST PUSH2 0x294 PUSH1 0x1 DUP2 JUMP JUMPDEST PUSH2 0x1DC PUSH2 0x13CA JUMP JUMPDEST PUSH2 0x32C PUSH2 0x327 CALLDATASIZE PUSH1 0x4 PUSH2 0x1BAD JUMP JUMPDEST PUSH2 0x13DE JUMP JUMPDEST PUSH1 0x40 MLOAD PUSH2 0x1FE SWAP14 SWAP13 SWAP12 SWAP11 SWAP10 SWAP9 SWAP8 SWAP7 SWAP6 SWAP5 SWAP4 SWAP3 SWAP2 SWAP1 PUSH2 0x1DD2 JUMP JUMPDEST PUSH1 0x0 SLOAD PUSH1 0x1 PUSH1 0x1 PUSH1 0xA0 SHL SUB AND PUSH2 0x269 JUMP JUMPDEST PUSH2 0x269 PUSH20 0xAD67FE66660FB8DFE9D6B1B4240D8650E30F6019 DUP2 JUMP JUMPDEST PUSH2 0x384 PUSH2 0x37F CALLDATASIZE PUSH1 0x4 PUSH2 0x1BAD JUMP JUMPDEST PUSH2 0x14E3 JUMP JUMPDEST PUSH1 0x40 MLOAD SWAP1 ISZERO ISZERO DUP2 MSTORE PUSH1 0x20 ADD PUSH2 0x1FE JUMP JUMPDEST PUSH2 0x3E0 PUSH2 0x3A2 CALLDATASIZE PUSH1 0x4 PUSH2 0x1E74 JUMP JUMPDEST PUSH1 0x0 SWAP2 DUP3 MSTORE PUSH1 0x4 PUSH1 0x20 SWAP1 DUP2 MSTORE PUSH1 0x40 DUP1 DUP5 KECCAK256 PUSH1 0x1 PUSH1 0x1 PUSH1 0xA0 SHL SUB SWAP4 SWAP1 SWAP4 AND DUP5 MSTORE SWAP2 SWAP1 MSTORE SWAP1 KECCAK256 PUSH1 0x1 DUP2 ADD SLOAD PUSH1 0x2 DUP3 ADD SLOAD PUSH1 0x3 SWAP1 SWAP3 ADD SLOAD SWAP1 SWAP3 PUSH1 0xFF SWAP1 SWAP2 AND SWAP1 JUMP JUMPDEST PUSH1 0x40 DUP1 MLOAD SWAP4 DUP5 MSTORE PUSH1 0x20 DUP5 ADD SWAP3 SWAP1 SWAP3 MSTORE ISZERO ISZERO SWAP1 DUP3 ADD MSTORE PUSH1 0x60 ADD PUSH2 0x1FE JUMP JUMPDEST PUSH2 0x1DC PUSH2 0x40B CALLDATASIZE PUSH1 0x4 PUSH2 0x1BAD JUMP JUMPDEST PUSH2 0x151D JUMP JUMPDEST PUSH2 0x423 PUSH2 0x41E CALLDATASIZE PUSH1 0x4 PUSH2 0x1BAD JUMP JUMPDEST PUSH2 0x16F8 JUMP JUMPDEST PUSH1 0x40 MLOAD PUSH2 0x1FE SWAP10 SWAP9 SWAP8 SWAP7 SWAP6 SWAP5 SWAP4 SWAP3 SWAP2 SWAP1 PUSH2 0x1EA4 JUMP JUMPDEST PUSH2 0x294 PUSH2 0x2710 DUP2 JUMP JUMPDEST PUSH2 0x294 PUSH1 0x63 DUP2 JUMP JUMPDEST PUSH2 0x1DC PUSH2 0x457 CALLDATASIZE PUSH1 0x4 PUSH2 0x1F03 JUMP JUMPDEST PUSH2 0x181C JUMP JUMPDEST PUSH2 0x1DC PUSH2 0x46A CALLDATASIZE PUSH1 0x4 PUSH2 0x1F03 JUMP JUMPDEST PUSH2 0x188F JUMP JUMPDEST PUSH2 0x294 PUSH3 0x186A0 DUP2 JUMP JUMPDEST PUSH1 0x6 SLOAD PUSH2 0x294 JUMP JUMPDEST PUSH2 0x4CE PUSH2 0x48F CALLDATASIZE PUSH1 0x4 PUSH2 0x1E74 JUMP JUMPDEST PUSH1 0x4 PUSH1 0x20 SWAP1 DUP2 MSTORE PUSH1 0x0 SWAP3 DUP4 MSTORE PUSH1 0x40 DUP1 DUP5 KECCAK256 SWAP1 SWAP2 MSTORE SWAP1 DUP3 MSTORE SWAP1 KECCAK256 DUP1 SLOAD PUSH1 0x1 DUP3 ADD SLOAD PUSH1 0x2 DUP4 ADD SLOAD PUSH1 0x3 SWAP1 SWAP4 ADD SLOAD PUSH1 0x1 PUSH1 0x1 PUSH1 0xA0 SHL SUB SWAP1 SWAP3 AND SWAP3 SWAP1 SWAP2 PUSH1 0xFF AND DUP5 JUMP JUMPDEST PUSH1 0x40 DUP1 MLOAD PUSH1 0x1 PUSH1 0x1 PUSH1 0xA0 SHL SUB SWAP1 SWAP6 AND DUP6 MSTORE PUSH1 0x20 DUP6 ADD SWAP4 SWAP1 SWAP4 MSTORE SWAP2 DUP4 ADD MSTORE ISZERO ISZERO PUSH1 0x60 DUP3 ADD MSTORE PUSH1 0x80 ADD PUSH2 0x1FE JUMP JUMPDEST PUSH2 0x502 PUSH2 0x18CA JUMP JUMPDEST PUSH1 0x0 DUP3 DUP2 MSTORE PUSH1 0x3 PUSH1 0x20 MSTORE PUSH1 0x40 SWAP1 KECCAK256 PUSH1 0x4 DUP2 ADD SLOAD PUSH2 0x53A JUMPI PUSH1 0x40 MLOAD PUSH3 0x461BCD PUSH1 0xE5 SHL DUP2 MSTORE PUSH1 0x4 ADD PUSH2 0x531 SWAP1 PUSH2 0x1F20 JUMP JUMPDEST PUSH1 0x40 MLOAD DUP1 SWAP2 SUB SWAP1 REVERT JUMPDEST DUP1 PUSH1 0x4 ADD SLOAD TIMESTAMP LT PUSH2 0x57D JUMPI PUSH1 0x40 MLOAD PUSH3 0x461BCD PUSH1 0xE5 SHL DUP2 MSTORE PUSH1 0x20 PUSH1 0x4 DUP3 ADD MSTORE PUSH1 0xD PUSH1 0x24 DUP3 ADD MSTORE PUSH13 0x13585C9AD95D0818DB1BDCD959 PUSH1 0x9A SHL PUSH1 0x44 DUP3 ADD MSTORE PUSH1 0x64 ADD PUSH2 0x531 JUMP JUMPDEST PUSH1 0x7 DUP2 ADD SLOAD PUSH1 0xFF AND ISZERO PUSH2 0x5C5 JUMPI PUSH1 0x40 MLOAD PUSH3 0x461BCD PUSH1 0xE5 SHL DUP2 MSTORE PUSH1 0x20 PUSH1 0x4 DUP3 ADD MSTORE PUSH1 0x10 PUSH1 0x24 DUP3 ADD MSTORE PUSH16 0x105B1C9958591E481C995CDBDB1D9959 PUSH1 0x82 SHL PUSH1 0x44 DUP3 ADD MSTORE PUSH1 0x64 ADD PUSH2 0x531 JUMP JUMPDEST PUSH1 0x1 DUP3 LT ISZERO DUP1 ISZERO PUSH2 0x5D7 JUMPI POP PUSH1 0x63 DUP3 GT ISZERO JUMPDEST PUSH2 0x617 JUMPI PUSH1 0x40 MLOAD PUSH3 0x461BCD PUSH1 0xE5 SHL DUP2 MSTORE PUSH1 0x20 PUSH1 0x4 DUP3 ADD MSTORE PUSH1 0x11 PUSH1 0x24 DUP3 ADD MSTORE PUSH17 0x70596573206D75737420626520312D3939 PUSH1 0x78 SHL PUSH1 0x44 DUP3 ADD MSTORE PUSH1 0x64 ADD PUSH2 0x531 JUMP JUMPDEST PUSH1 0x0 DUP4 DUP2 MSTORE PUSH1 0x4 PUSH1 0x20 SWAP1 DUP2 MSTORE PUSH1 0x40 DUP1 DUP4 KECCAK256 CALLER DUP5 MSTORE SWAP1 SWAP2 MSTORE SWAP1 KECCAK256 SLOAD PUSH1 0x1 PUSH1 0x1 PUSH1 0xA0 SHL SUB AND ISZERO PUSH2 0x67B JUMPI PUSH1 0x40 MLOAD PUSH3 0x461BCD PUSH1 0xE5 SHL DUP2 MSTORE PUSH1 0x20 PUSH1 0x4 DUP3 ADD MSTORE PUSH1 0x11 PUSH1 0x24 DUP3 ADD MSTORE PUSH17 0x105B1C9958591E481C1C99591A58DD1959 PUSH1 0x7A SHL PUSH1 0x44 DUP3 ADD MSTORE PUSH1 0x64 ADD PUSH2 0x531 JUMP JUMPDEST PUSH2 0x6B3 PUSH1 0x1 PUSH1 0x1 PUSH1 0xA0 SHL SUB PUSH32 0x0 AND CALLER ADDRESS PUSH3 0x186A0 PUSH2 0x18F4 JUMP JUMPDEST PUSH1 0x0 PUSH2 0x2710 PUSH2 0x6C6 PUSH1 0x64 PUSH3 0x186A0 PUSH2 0x1F60 JUMP JUMPDEST PUSH2 0x6D0 SWAP2 SWAP1 PUSH2 0x1F7D JUMP JUMPDEST SWAP1 POP PUSH1 0x0 PUSH2 0x6E1 DUP3 PUSH3 0x186A0 PUSH2 0x1F9F JUMP JUMPDEST PUSH1 0x2 SLOAD SWAP1 SWAP2 POP PUSH2 0x71E SWAP1 PUSH1 0x1 PUSH1 0x1 PUSH1 0xA0 SHL SUB PUSH32 0x0 DUP2 AND SWAP2 AND DUP5 PUSH2 0x1961 JUMP JUMPDEST DUP1 DUP4 PUSH1 0x5 ADD PUSH1 0x0 DUP3 DUP3 SLOAD PUSH2 0x732 SWAP2 SWAP1 PUSH2 0x1FB2 JUMP JUMPDEST SWAP1 SWAP2 SSTORE POP POP PUSH1 0x6 DUP4 ADD DUP1 SLOAD SWAP1 PUSH1 0x0 PUSH2 0x749 DUP4 PUSH2 0x1FC5 JUMP JUMPDEST SWAP1 SWAP2 SSTORE POP POP PUSH1 0x40 DUP1 MLOAD PUSH1 0x80 DUP2 ADD DUP3 MSTORE CALLER DUP1 DUP3 MSTORE PUSH1 0x20 DUP1 DUP4 ADD DUP9 DUP2 MSTORE TIMESTAMP DUP5 DUP7 ADD SWAP1 DUP2 MSTORE PUSH1 0x0 PUSH1 0x60 DUP7 ADD DUP2 DUP2 MSTORE DUP13 DUP3 MSTORE PUSH1 0x4 DUP6 MSTORE DUP8 DUP3 KECCAK256 DUP7 DUP4 MSTORE DUP6 MSTORE DUP8 DUP3 KECCAK256 SWAP7 MLOAD DUP8 SLOAD PUSH1 0x1 PUSH1 0x1 PUSH1 0xA0 SHL SUB SWAP1 SWAP2 AND PUSH1 0x1 PUSH1 0x1 PUSH1 0xA0 SHL SUB NOT SWAP2 DUP3 AND OR DUP9 SSTORE SWAP4 MLOAD PUSH1 0x1 DUP1 DUP10 ADD SWAP2 SWAP1 SWAP2 SSTORE SWAP3 MLOAD PUSH1 0x2 DUP9 ADD SSTORE MLOAD PUSH1 0x3 SWAP1 SWAP7 ADD DUP1 SLOAD SWAP7 ISZERO ISZERO PUSH1 0xFF NOT SWAP1 SWAP8 AND SWAP7 SWAP1 SWAP7 OR SWAP1 SWAP6 SSTORE DUP11 DUP6 MSTORE PUSH1 0x5 DUP4 MSTORE DUP6 DUP6 KECCAK256 DUP1 SLOAD SWAP2 DUP3 ADD DUP2 SSTORE DUP6 MSTORE SWAP4 DUP3 SWAP1 KECCAK256 SWAP1 SWAP4 ADD DUP1 SLOAD SWAP1 SWAP4 AND DUP3 OR SWAP1 SWAP3 SSTORE SWAP2 MLOAD DUP7 DUP2 MSTORE DUP8 SWAP2 PUSH32 0x19303E4747B51BD72CCA4DCFF2BFC9E07F403A5F7B23BCDA41D580B9FBC1A139 SWAP2 ADD PUSH1 0x40 MLOAD DUP1 SWAP2 SUB SWAP1 LOG3 POP POP POP PUSH2 0x830 PUSH1 0x1 DUP1 SSTORE JUMP JUMPDEST POP POP JUMP JUMPDEST PUSH1 0x0 DUP2 DUP2 MSTORE PUSH1 0x5 PUSH1 0x20 SWAP1 DUP2 MSTORE PUSH1 0x40 SWAP2 DUP3 SWAP1 KECCAK256 DUP1 SLOAD DUP4 MLOAD DUP2 DUP5 MUL DUP2 ADD DUP5 ADD SWAP1 SWAP5 MSTORE DUP1 DUP5 MSTORE PUSH1 0x60 SWAP4 SWAP3 DUP4 ADD DUP3 DUP3 DUP1 ISZERO PUSH2 0x894 JUMPI PUSH1 0x20 MUL DUP3 ADD SWAP2 SWAP1 PUSH1 0x0 MSTORE PUSH1 0x20 PUSH1 0x0 KECCAK256 SWAP1 JUMPDEST DUP2 SLOAD PUSH1 0x1 PUSH1 0x1 PUSH1 0xA0 SHL SUB AND DUP2 MSTORE PUSH1 0x1 SWAP1 SWAP2 ADD SWAP1 PUSH1 0x20 ADD DUP1 DUP4 GT PUSH2 0x876 JUMPI JUMPDEST POP POP POP POP POP SWAP1 POP SWAP2 SWAP1 POP JUMP JUMPDEST PUSH1 0x0 DUP2 DUP2 MSTORE PUSH1 0x3 PUSH1 0x20 MSTORE PUSH1 0x40 DUP2 KECCAK256 PUSH1 0x4 DUP2 ADD SLOAD DUP3 SWAP2 DUP3 SWAP2 PUSH2 0x8D3 JUMPI PUSH1 0x40 MLOAD PUSH3 0x461BCD PUSH1 0xE5 SHL DUP2 MSTORE PUSH1 0x4 ADD PUSH2 0x531 SWAP1 PUSH2 0x1F20 JUMP JUMPDEST PUSH1 0x0 PUSH2 0x8DD PUSH2 0x1997 JUMP JUMPDEST DUP3 SLOAD PUSH1 0x40 MLOAD PUSH4 0x49F4FC03 PUSH1 0xE1 SHL DUP2 MSTORE PUSH1 0x58 SWAP2 SWAP1 SWAP2 SHL PUSH11 0xFFFFFFFFFFFFFFFFFFFFFF NOT AND PUSH1 0x4 DUP3 ADD MSTORE SWAP1 SWAP2 POP PUSH1 0x1 PUSH1 0x1 PUSH1 0xA0 SHL SUB DUP3 AND SWAP1 PUSH4 0x93E9F806 SWAP1 PUSH1 0x24 ADD PUSH1 0x60 PUSH1 0x40 MLOAD DUP1 DUP4 SUB DUP2 DUP7 GAS STATICCALL ISZERO DUP1 ISZERO PUSH2 0x939 JUMPI RETURNDATASIZE PUSH1 0x0 DUP1 RETURNDATACOPY RETURNDATASIZE PUSH1 0x0 REVERT JUMPDEST POP POP POP POP PUSH1 0x40 MLOAD RETURNDATASIZE PUSH1 0x1F NOT PUSH1 0x1F DUP3 ADD AND DUP3 ADD DUP1 PUSH1 0x40 MSTORE POP DUP2 ADD SWAP1 PUSH2 0x95D SWAP2 SWAP1 PUSH2 0x1FDE JUMP JUMPDEST SWAP5 POP SWAP5 POP SWAP5 POP POP POP SWAP2 SWAP4 SWAP1 SWAP3 POP JUMP JUMPDEST PUSH1 0x0 DUP4 DUP2 MSTORE PUSH1 0x3 PUSH1 0x20 SWAP1 DUP2 MSTORE PUSH1 0x40 DUP1 DUP4 KECCAK256 PUSH1 0x4 DUP4 MSTORE DUP2 DUP5 KECCAK256 PUSH1 0x1 PUSH1 0x1 PUSH1 0xA0 SHL SUB DUP1 DUP9 AND DUP7 MSTORE SWAP4 MSTORE SWAP1 DUP4 KECCAK256 DUP1 SLOAD SWAP2 SWAP3 SWAP1 SWAP2 AND PUSH2 0x9AC JUMPI PUSH1 0x0 SWAP3 POP POP POP PUSH2 0xAAF JUMP JUMPDEST PUSH1 0x0 DUP7 DUP2 MSTORE PUSH1 0x5 PUSH1 0x20 MSTORE PUSH1 0x40 DUP2 KECCAK256 DUP2 JUMPDEST DUP2 SLOAD DUP2 LT ISZERO PUSH2 0xA52 JUMPI PUSH1 0x0 DUP10 DUP2 MSTORE PUSH1 0x4 PUSH1 0x20 MSTORE PUSH1 0x40 DUP2 KECCAK256 DUP4 SLOAD DUP3 SWAP1 DUP6 SWAP1 DUP6 SWAP1 DUP2 LT PUSH2 0x9E9 JUMPI PUSH2 0x9E9 PUSH2 0x2023 JUMP JUMPDEST PUSH1 0x0 SWAP2 DUP3 MSTORE PUSH1 0x20 DUP1 DUP4 KECCAK256 SWAP1 SWAP2 ADD SLOAD PUSH1 0x1 PUSH1 0x1 PUSH1 0xA0 SHL SUB AND DUP4 MSTORE DUP3 ADD SWAP3 SWAP1 SWAP3 MSTORE PUSH1 0x40 ADD DUP2 KECCAK256 SWAP2 POP DUP9 PUSH2 0xA29 JUMPI PUSH1 0x1 DUP3 ADD SLOAD PUSH2 0xA24 SWAP1 PUSH1 0x64 PUSH2 0x1F9F JUMP JUMPDEST PUSH2 0xA2F JUMP JUMPDEST DUP2 PUSH1 0x1 ADD SLOAD JUMPDEST SWAP1 POP PUSH2 0xA3B DUP2 DUP7 PUSH2 0x1FB2 JUMP JUMPDEST SWAP5 POP POP POP DUP1 DUP1 PUSH2 0xA4A SWAP1 PUSH2 0x1FC5 JUMP JUMPDEST SWAP2 POP POP PUSH2 0x9BC JUMP JUMPDEST POP DUP2 PUSH1 0x0 SUB PUSH2 0xA68 JUMPI PUSH1 0x0 SWAP5 POP POP POP POP POP PUSH2 0xAAF JUMP JUMPDEST PUSH1 0x0 DUP7 PUSH2 0xA84 JUMPI PUSH1 0x1 DUP5 ADD SLOAD PUSH2 0xA7F SWAP1 PUSH1 0x64 PUSH2 0x1F9F JUMP JUMPDEST PUSH2 0xA8A JUMP JUMPDEST DUP4 PUSH1 0x1 ADD SLOAD JUMPDEST SWAP1 POP DUP3 DUP6 PUSH1 0x5 ADD SLOAD DUP3 PUSH2 0xA9D SWAP2 SWAP1 PUSH2 0x1F60 JUMP JUMPDEST PUSH2 0xAA7 SWAP2 SWAP1 PUSH2 0x1F7D JUMP JUMPDEST SWAP6 POP POP POP POP POP POP JUMPDEST SWAP4 SWAP3 POP POP POP JUMP JUMPDEST PUSH1 0x5 PUSH1 0x20 MSTORE DUP2 PUSH1 0x0 MSTORE PUSH1 0x40 PUSH1 0x0 KECCAK256 DUP2 DUP2 SLOAD DUP2 LT PUSH2 0xAD2 JUMPI PUSH1 0x0 DUP1 REVERT JUMPDEST PUSH1 0x0 SWAP2 DUP3 MSTORE PUSH1 0x20 SWAP1 SWAP2 KECCAK256 ADD SLOAD PUSH1 0x1 PUSH1 0x1 PUSH1 0xA0 SHL SUB AND SWAP2 POP DUP3 SWAP1 POP JUMP JUMPDEST PUSH1 0x6 DUP2 DUP2 SLOAD DUP2 LT PUSH2 0xAFE JUMPI PUSH1 0x0 DUP1 REVERT JUMPDEST PUSH1 0x0 SWAP2 DUP3 MSTORE PUSH1 0x20 SWAP1 SWAP2 KECCAK256 ADD SLOAD SWAP1 POP DUP2 JUMP JUMPDEST PUSH2 0xB17 PUSH2 0x1A28 JUMP JUMPDEST TIMESTAMP DUP3 GT PUSH2 0xB66 JUMPI PUSH1 0x40 MLOAD PUSH3 0x461BCD PUSH1 0xE5 SHL DUP2 MSTORE PUSH1 0x20 PUSH1 0x4 DUP3 ADD MSTORE PUSH1 0x19 PUSH1 0x24 DUP3 ADD MSTORE PUSH32 0x536574746C656D656E74206D7573742062652066757475726500000000000000 PUSH1 0x44 DUP3 ADD MSTORE PUSH1 0x64 ADD PUSH2 0x531 JUMP JUMPDEST PUSH1 0x0 DUP2 GT PUSH2 0xBA9 JUMPI PUSH1 0x40 MLOAD PUSH3 0x461BCD PUSH1 0xE5 SHL DUP2 MSTORE PUSH1 0x20 PUSH1 0x4 DUP3 ADD MSTORE PUSH1 0x10 PUSH1 0x24 DUP3 ADD MSTORE PUSH16 0x13995959081CD9595908185B5BDD5B9D PUSH1 0x82 SHL PUSH1 0x44 DUP3 ADD MSTORE PUSH1 0x64 ADD PUSH2 0x531 JUMP JUMPDEST DUP6 ISZERO DUP1 ISZERO SWAP1 PUSH2 0xBB9 JUMPI POP PUSH1 0xA DUP7 GT ISZERO JUMPDEST PUSH2 0xBF6 JUMPI PUSH1 0x40 MLOAD PUSH3 0x461BCD PUSH1 0xE5 SHL DUP2 MSTORE PUSH1 0x20 PUSH1 0x4 DUP3 ADD MSTORE PUSH1 0xE PUSH1 0x24 DUP3 ADD MSTORE PUSH14 0x125B9D985B1A59081CDE5B589BDB PUSH1 0x92 SHL PUSH1 0x44 DUP3 ADD MSTORE PUSH1 0x64 ADD PUSH2 0x531 JUMP JUMPDEST PUSH1 0x0 PUSH2 0xC37 DUP9 DUP9 DUP1 DUP1 PUSH1 0x1F ADD PUSH1 0x20 DUP1 SWAP2 DIV MUL PUSH1 0x20 ADD PUSH1 0x40 MLOAD SWAP1 DUP2 ADD PUSH1 0x40 MSTORE DUP1 SWAP4 SWAP3 SWAP2 SWAP1 DUP2 DUP2 MSTORE PUSH1 0x20 ADD DUP4 DUP4 DUP1 DUP3 DUP5 CALLDATACOPY PUSH1 0x0 SWAP3 ADD SWAP2 SWAP1 SWAP2 MSTORE POP PUSH2 0x1A55 SWAP3 POP POP POP JUMP JUMPDEST SWAP1 POP PUSH1 0x0 PUSH2 0xC43 PUSH2 0x1997 JUMP JUMPDEST PUSH1 0x40 MLOAD PUSH4 0x49F4FC03 PUSH1 0xE1 SHL DUP2 MSTORE PUSH11 0xFFFFFFFFFFFFFFFFFFFFFF NOT DUP5 AND PUSH1 0x4 DUP3 ADD MSTORE SWAP1 SWAP2 POP PUSH1 0x0 SWAP1 PUSH1 0x1 PUSH1 0x1 PUSH1 0xA0 SHL SUB DUP4 AND SWAP1 PUSH4 0x93E9F806 SWAP1 PUSH1 0x24 ADD PUSH1 0x60 PUSH1 0x40 MLOAD DUP1 DUP4 SUB DUP2 DUP7 GAS STATICCALL ISZERO DUP1 ISZERO PUSH2 0xC9B JUMPI RETURNDATASIZE PUSH1 0x0 DUP1 RETURNDATACOPY RETURNDATASIZE PUSH1 0x0 REVERT JUMPDEST POP POP POP POP PUSH1 0x40 MLOAD RETURNDATASIZE PUSH1 0x1F NOT PUSH1 0x1F DUP3 ADD AND DUP3 ADD DUP1 PUSH1 0x40 MSTORE POP DUP2 ADD SWAP1 PUSH2 0xCBF SWAP2 SWAP1 PUSH2 0x1FDE JUMP JUMPDEST POP POP SWAP1 POP PUSH1 0x0 DUP2 GT PUSH2 0xD13 JUMPI PUSH1 0x40 MLOAD PUSH3 0x461BCD PUSH1 0xE5 SHL DUP2 MSTORE PUSH1 0x20 PUSH1 0x4 DUP3 ADD MSTORE PUSH1 0x17 PUSH1 0x24 DUP3 ADD MSTORE PUSH32 0x4654534F2066656564206E6F7420617661696C61626C65000000000000000000 PUSH1 0x44 DUP3 ADD MSTORE PUSH1 0x64 ADD PUSH2 0x531 JUMP JUMPDEST PUSH1 0x0 DUP11 DUP11 DUP11 DUP10 DUP10 PUSH1 0x40 MLOAD PUSH1 0x20 ADD PUSH2 0xD2E SWAP6 SWAP5 SWAP4 SWAP3 SWAP2 SWAP1 PUSH2 0x2039 JUMP JUMPDEST PUSH1 0x40 DUP1 MLOAD PUSH1 0x1F NOT DUP2 DUP5 SUB ADD DUP2 MSTORE SWAP2 DUP2 MSTORE DUP2 MLOAD PUSH1 0x20 SWAP3 DUP4 ADD KECCAK256 PUSH1 0x0 DUP2 DUP2 MSTORE PUSH1 0x3 SWAP1 SWAP4 MSTORE SWAP2 KECCAK256 PUSH1 0x4 ADD SLOAD SWAP1 SWAP2 POP ISZERO PUSH2 0xD96 JUMPI PUSH1 0x40 MLOAD PUSH3 0x461BCD PUSH1 0xE5 SHL DUP2 MSTORE PUSH1 0x20 PUSH1 0x4 DUP3 ADD MSTORE PUSH1 0xD PUSH1 0x24 DUP3 ADD MSTORE PUSH13 0x4D61726B657420657869737473 PUSH1 0x98 SHL PUSH1 0x44 DUP3 ADD MSTORE PUSH1 0x64 ADD PUSH2 0x531 JUMP JUMPDEST PUSH2 0xDCB PUSH1 0x1 PUSH1 0x1 PUSH1 0xA0 SHL SUB PUSH32 0x0 AND CALLER ADDRESS DUP9 PUSH2 0x18F4 JUMP JUMPDEST PUSH1 0x40 MLOAD DUP1 PUSH2 0x1A0 ADD PUSH1 0x40 MSTORE DUP1 DUP6 PUSH11 0xFFFFFFFFFFFFFFFFFFFFFF NOT AND DUP2 MSTORE PUSH1 0x20 ADD DUP13 DUP13 DUP1 DUP1 PUSH1 0x1F ADD PUSH1 0x20 DUP1 SWAP2 DIV MUL PUSH1 0x20 ADD PUSH1 0x40 MLOAD SWAP1 DUP2 ADD PUSH1 0x40 MSTORE DUP1 SWAP4 SWAP3 SWAP2 SWAP1 DUP2 DUP2 MSTORE PUSH1 0x20 ADD DUP4 DUP4 DUP1 DUP3 DUP5 CALLDATACOPY PUSH1 0x0 SWAP3 ADD DUP3 SWAP1 MSTORE POP SWAP4 DUP6 MSTORE POP POP POP PUSH1 0x20 DUP3 ADD DUP13 SWAP1 MSTORE DUP11 SWAP1 SIGNEXTEND PUSH1 0x40 DUP3 ADD MSTORE PUSH1 0x60 ADD DUP9 PUSH1 0x1 DUP2 GT ISZERO PUSH2 0xE47 JUMPI PUSH2 0xE47 PUSH2 0x1D9A JUMP JUMPDEST DUP2 MSTORE PUSH1 0x20 DUP1 DUP3 ADD DUP10 SWAP1 MSTORE PUSH1 0x40 DUP1 DUP4 ADD DUP10 SWAP1 MSTORE PUSH1 0x0 PUSH1 0x60 DUP5 ADD DUP2 SWAP1 MSTORE PUSH1 0x80 DUP5 ADD DUP2 SWAP1 MSTORE PUSH1 0xA0 DUP5 ADD DUP2 SWAP1 MSTORE PUSH1 0xC0 DUP5 ADD DUP2 SWAP1 MSTORE PUSH1 0xE0 DUP5 ADD DUP2 SWAP1 MSTORE PUSH2 0x100 SWAP1 SWAP4 ADD DUP4 SWAP1 MSTORE DUP5 DUP4 MSTORE PUSH1 0x3 DUP3 MSTORE SWAP1 SWAP2 KECCAK256 DUP3 MLOAD DUP2 SLOAD PUSH1 0x1 PUSH1 0x1 PUSH1 0xA8 SHL SUB NOT AND PUSH1 0x58 SWAP2 SWAP1 SWAP2 SHR OR DUP2 SSTORE SWAP1 DUP3 ADD MLOAD PUSH1 0x1 DUP3 ADD SWAP1 PUSH2 0xEBB SWAP1 DUP3 PUSH2 0x211D JUMP JUMPDEST POP PUSH1 0x40 DUP3 ADD MLOAD PUSH1 0x2 DUP3 ADD SSTORE PUSH1 0x60 DUP3 ADD MLOAD PUSH1 0x3 DUP3 ADD DUP1 SLOAD PUSH1 0xFF SWAP1 SWAP3 AND PUSH1 0xFF NOT DUP4 AND DUP2 OR DUP3 SSTORE PUSH1 0x80 DUP6 ADD MLOAD SWAP3 PUSH2 0xFFFF NOT AND OR PUSH2 0x100 DUP4 PUSH1 0x1 DUP2 GT ISZERO PUSH2 0xF00 JUMPI PUSH2 0xF00 PUSH2 0x1D9A JUMP JUMPDEST MUL OR SWAP1 SSTORE POP PUSH1 0xA0 DUP3 ADD MLOAD PUSH1 0x4 DUP3 ADD SSTORE PUSH1 0xC0 DUP3 ADD MLOAD PUSH1 0x5 DUP3 ADD SSTORE PUSH1 0xE0 DUP3 ADD MLOAD PUSH1 0x6 DUP1 DUP4 ADD SWAP2 SWAP1 SWAP2 SSTORE PUSH2 0x100 DUP1 DUP5 ADD MLOAD PUSH1 0x7 DUP5 ADD DUP1 SLOAD PUSH2 0x120 DUP8 ADD MLOAD PUSH2 0xFFFF NOT SWAP1 SWAP2 AND SWAP3 ISZERO ISZERO PUSH2 0xFF00 NOT AND SWAP3 SWAP1 SWAP3 OR SWAP2 ISZERO ISZERO SWAP1 SWAP3 MUL OR SWAP1 SSTORE PUSH2 0x140 DUP4 ADD MLOAD PUSH1 0x8 DUP4 ADD SSTORE PUSH2 0x160 DUP4 ADD MLOAD PUSH1 0x9 DUP4 ADD SSTORE PUSH2 0x180 SWAP1 SWAP3 ADD MLOAD PUSH1 0xA SWAP1 SWAP2 ADD DUP1 SLOAD PUSH8 0xFFFFFFFFFFFFFFFF NOT AND PUSH8 0xFFFFFFFFFFFFFFFF SWAP1 SWAP3 AND SWAP2 SWAP1 SWAP2 OR SWAP1 SSTORE DUP1 SLOAD PUSH1 0x1 DUP2 ADD DUP3 SSTORE PUSH1 0x0 SWAP2 SWAP1 SWAP2 MSTORE PUSH32 0xF652222313E28459528D920B65115C16C04F3EFC82AAEDC97BE59F3F377C0D3F ADD DUP2 SWAP1 SSTORE PUSH1 0x40 MLOAD DUP2 SWAP1 PUSH32 0x572B2041A67A9ECB53F75B58E095306419EE67DBE3F8E7A5073C0630AB4AD878 SWAP1 PUSH2 0x1004 SWAP1 DUP15 SWAP1 DUP15 SWAP1 DUP15 SWAP1 DUP14 SWAP1 DUP14 SWAP1 PUSH2 0x21DD JUMP JUMPDEST PUSH1 0x40 MLOAD DUP1 SWAP2 SUB SWAP1 LOG2 POP POP POP POP POP POP POP POP POP POP POP JUMP JUMPDEST PUSH2 0x1021 PUSH2 0x18CA JUMP JUMPDEST PUSH1 0x0 DUP2 DUP2 MSTORE PUSH1 0x3 PUSH1 0x20 MSTORE PUSH1 0x40 SWAP1 KECCAK256 PUSH1 0x4 DUP2 ADD SLOAD PUSH2 0x1050 JUMPI PUSH1 0x40 MLOAD PUSH3 0x461BCD PUSH1 0xE5 SHL DUP2 MSTORE PUSH1 0x4 ADD PUSH2 0x531 SWAP1 PUSH2 0x1F20 JUMP JUMPDEST DUP1 PUSH1 0x4 ADD SLOAD TIMESTAMP LT ISZERO PUSH2 0x109A JUMPI PUSH1 0x40 MLOAD PUSH3 0x461BCD PUSH1 0xE5 SHL DUP2 MSTORE PUSH1 0x20 PUSH1 0x4 DUP3 ADD MSTORE PUSH1 0x13 PUSH1 0x24 DUP3 ADD MSTORE PUSH19 0x4E6F7420736574746C656D656E742074696D65 PUSH1 0x68 SHL PUSH1 0x44 DUP3 ADD MSTORE PUSH1 0x64 ADD PUSH2 0x531 JUMP JUMPDEST PUSH1 0x7 DUP2 ADD SLOAD PUSH1 0xFF AND ISZERO PUSH2 0x10E2 JUMPI PUSH1 0x40 MLOAD PUSH3 0x461BCD PUSH1 0xE5 SHL DUP2 MSTORE PUSH1 0x20 PUSH1 0x4 DUP3 ADD MSTORE PUSH1 0x10 PUSH1 0x24 DUP3 ADD MSTORE PUSH16 0x105B1C9958591E481C995CDBDB1D9959 PUSH1 0x82 SHL PUSH1 0x44 DUP3 ADD MSTORE PUSH1 0x64 ADD PUSH2 0x531 JUMP JUMPDEST PUSH1 0x0 PUSH2 0x10EC PUSH2 0x1997 JUMP JUMPDEST DUP3 SLOAD PUSH1 0x40 MLOAD PUSH4 0x49F4FC03 PUSH1 0xE1 SHL DUP2 MSTORE SWAP2 SWAP3 POP PUSH1 0x0 SWAP2 DUP3 SWAP2 DUP3 SWAP2 PUSH1 0x1 PUSH1 0x1 PUSH1 0xA0 SHL SUB DUP7 AND SWAP2 PUSH4 0x93E9F806 SWAP2 PUSH2 0x113A SWAP2 PUSH1 0x58 SHL SWAP1 PUSH1 0x4 ADD PUSH11 0xFFFFFFFFFFFFFFFFFFFFFF NOT SWAP2 SWAP1 SWAP2 AND DUP2 MSTORE PUSH1 0x20 ADD SWAP1 JUMP JUMPDEST PUSH1 0x60 PUSH1 0x40 MLOAD DUP1 DUP4 SUB DUP2 DUP7 GAS STATICCALL ISZERO DUP1 ISZERO PUSH2 0x1157 JUMPI RETURNDATASIZE PUSH1 0x0 DUP1 RETURNDATACOPY RETURNDATASIZE PUSH1 0x0 REVERT JUMPDEST POP POP POP POP PUSH1 0x40 MLOAD RETURNDATASIZE PUSH1 0x1F NOT PUSH1 0x1F DUP3 ADD AND DUP3 ADD DUP1 PUSH1 0x40 MSTORE POP DUP2 ADD SWAP1 PUSH2 0x117B SWAP2 SWAP1 PUSH2 0x1FDE JUMP JUMPDEST SWAP3 POP SWAP3 POP SWAP3 POP PUSH1 0x0 DUP4 GT PUSH2 0x11CA JUMPI PUSH1 0x40 MLOAD PUSH3 0x461BCD PUSH1 0xE5 SHL DUP2 MSTORE PUSH1 0x20 PUSH1 0x4 DUP3 ADD MSTORE PUSH1 0x16 PUSH1 0x24 DUP3 ADD MSTORE PUSH22 0x4654534F20707269636520756E617661696C61626C65 PUSH1 0x50 SHL PUSH1 0x44 DUP3 ADD MSTORE PUSH1 0x64 ADD PUSH2 0x531 JUMP JUMPDEST PUSH1 0x3 DUP6 ADD SLOAD PUSH1 0x0 SWAP1 DUP2 SWAP1 DUP2 SIGNEXTEND DUP5 DUP3 SIGNEXTEND SLT PUSH2 0x1214 JUMPI PUSH1 0x3 DUP8 ADD SLOAD DUP6 SWAP3 POP PUSH2 0x11F3 SWAP1 PUSH1 0x0 SIGNEXTEND DUP6 PUSH2 0x222B JUMP JUMPDEST PUSH2 0x11FE SWAP1 PUSH1 0xA PUSH2 0x2330 JUMP JUMPDEST DUP8 PUSH1 0x2 ADD SLOAD PUSH2 0x120D SWAP2 SWAP1 PUSH2 0x1F60 JUMP JUMPDEST SWAP1 POP PUSH2 0x1246 JUMP JUMPDEST PUSH1 0x3 DUP8 ADD SLOAD PUSH2 0x1227 SWAP1 DUP6 SWAP1 PUSH1 0x0 SIGNEXTEND PUSH2 0x222B JUMP JUMPDEST PUSH2 0x1232 SWAP1 PUSH1 0xA PUSH2 0x2330 JUMP JUMPDEST PUSH2 0x123C SWAP1 DUP7 PUSH2 0x1F60 JUMP JUMPDEST SWAP2 POP DUP7 PUSH1 0x2 ADD SLOAD SWAP1 POP JUMPDEST PUSH1 0x0 DUP1 PUSH1 0x3 DUP10 ADD SLOAD PUSH2 0x100 SWAP1 DIV PUSH1 0xFF AND PUSH1 0x1 DUP2 GT ISZERO PUSH2 0x1267 JUMPI PUSH2 0x1267 PUSH2 0x1D9A JUMP JUMPDEST SUB PUSH2 0x1276 JUMPI POP DUP1 DUP3 LT ISZERO PUSH2 0x127B JUMP JUMPDEST POP DUP1 DUP3 LT JUMPDEST PUSH1 0x7 DUP9 ADD DUP1 SLOAD PUSH1 0x1 PUSH2 0xFFFF NOT SWAP1 SWAP2 AND PUSH2 0x100 DUP5 ISZERO ISZERO MUL OR OR SWAP1 SSTORE PUSH1 0x9 DUP9 ADD DUP7 SWAP1 SSTORE PUSH1 0xA DUP9 ADD DUP1 SLOAD PUSH8 0xFFFFFFFFFFFFFFFF NOT AND PUSH8 0xFFFFFFFFFFFFFFFF DUP7 AND OR SWAP1 SSTORE PUSH1 0x0 DUP10 DUP2 MSTORE PUSH1 0x5 PUSH1 0x20 MSTORE PUSH1 0x40 DUP2 KECCAK256 DUP2 JUMPDEST DUP2 SLOAD DUP2 LT ISZERO PUSH2 0x1361 JUMPI PUSH1 0x0 DUP13 DUP2 MSTORE PUSH1 0x4 PUSH1 0x20 MSTORE PUSH1 0x40 DUP2 KECCAK256 DUP4 SLOAD DUP3 SWAP1 DUP6 SWAP1 DUP6 SWAP1 DUP2 LT PUSH2 0x12F8 JUMPI PUSH2 0x12F8 PUSH2 0x2023 JUMP JUMPDEST PUSH1 0x0 SWAP2 DUP3 MSTORE PUSH1 0x20 DUP1 DUP4 KECCAK256 SWAP1 SWAP2 ADD SLOAD PUSH1 0x1 PUSH1 0x1 PUSH1 0xA0 SHL SUB AND DUP4 MSTORE DUP3 ADD SWAP3 SWAP1 SWAP3 MSTORE PUSH1 0x40 ADD DUP2 KECCAK256 SWAP2 POP DUP6 PUSH2 0x1338 JUMPI PUSH1 0x1 DUP3 ADD SLOAD PUSH2 0x1333 SWAP1 PUSH1 0x64 PUSH2 0x1F9F JUMP JUMPDEST PUSH2 0x133E JUMP JUMPDEST DUP2 PUSH1 0x1 ADD SLOAD JUMPDEST SWAP1 POP PUSH2 0x134A DUP2 DUP7 PUSH2 0x1FB2 JUMP JUMPDEST SWAP5 POP POP POP DUP1 DUP1 PUSH2 0x1359 SWAP1 PUSH2 0x1FC5 JUMP JUMPDEST SWAP2 POP POP PUSH2 0x12CB JUMP JUMPDEST POP PUSH1 0x8 DUP11 ADD DUP3 SWAP1 SSTORE PUSH1 0x40 DUP1 MLOAD DUP5 ISZERO ISZERO DUP2 MSTORE PUSH1 0x20 DUP2 ADD DUP11 SWAP1 MSTORE SWAP1 DUP2 ADD DUP4 SWAP1 MSTORE CALLER PUSH1 0x60 DUP3 ADD MSTORE DUP12 SWAP1 PUSH32 0x8B9B6E240663F6E0BB2B383C84F720E7C9EE89DB06C26BD61E0EDC641A09E7D2 SWAP1 PUSH1 0x80 ADD PUSH1 0x40 MLOAD DUP1 SWAP2 SUB SWAP1 LOG2 POP POP POP POP POP POP POP POP POP POP PUSH2 0x13C7 PUSH1 0x1 DUP1 SSTORE JUMP JUMPDEST POP JUMP JUMPDEST PUSH2 0x13D2 PUSH2 0x1A28 JUMP JUMPDEST PUSH2 0x13DC PUSH1 0x0 PUSH2 0x1ACA JUMP JUMPDEST JUMP JUMPDEST PUSH1 0x3 PUSH1 0x20 MSTORE PUSH1 0x0 SWAP1 DUP2 MSTORE PUSH1 0x40 SWAP1 KECCAK256 DUP1 SLOAD PUSH1 0x1 DUP3 ADD DUP1 SLOAD PUSH1 0x58 SWAP3 SWAP1 SWAP3 SHL SWAP3 SWAP2 PUSH2 0x1405 SWAP1 PUSH2 0x2095 JUMP JUMPDEST DUP1 PUSH1 0x1F ADD PUSH1 0x20 DUP1 SWAP2 DIV MUL PUSH1 0x20 ADD PUSH1 0x40 MLOAD SWAP1 DUP2 ADD PUSH1 0x40 MSTORE DUP1 SWAP3 SWAP2 SWAP1 DUP2 DUP2 MSTORE PUSH1 0x20 ADD DUP3 DUP1 SLOAD PUSH2 0x1431 SWAP1 PUSH2 0x2095 JUMP JUMPDEST DUP1 ISZERO PUSH2 0x147E JUMPI DUP1 PUSH1 0x1F LT PUSH2 0x1453 JUMPI PUSH2 0x100 DUP1 DUP4 SLOAD DIV MUL DUP4 MSTORE SWAP2 PUSH1 0x20 ADD SWAP2 PUSH2 0x147E JUMP JUMPDEST DUP3 ADD SWAP2 SWAP1 PUSH1 0x0 MSTORE PUSH1 0x20 PUSH1 0x0 KECCAK256 SWAP1 JUMPDEST DUP2 SLOAD DUP2 MSTORE SWAP1 PUSH1 0x1 ADD SWAP1 PUSH1 0x20 ADD DUP1 DUP4 GT PUSH2 0x1461 JUMPI DUP3 SWAP1 SUB PUSH1 0x1F AND DUP3 ADD SWAP2 JUMPDEST POP POP POP POP PUSH1 0x2 DUP4 ADD SLOAD PUSH1 0x3 DUP5 ADD SLOAD PUSH1 0x4 DUP6 ADD SLOAD PUSH1 0x5 DUP7 ADD SLOAD PUSH1 0x6 DUP8 ADD SLOAD PUSH1 0x7 DUP9 ADD SLOAD PUSH1 0x8 DUP10 ADD SLOAD PUSH1 0x9 DUP11 ADD SLOAD PUSH1 0xA SWAP1 SWAP11 ADD SLOAD SWAP9 SWAP10 SWAP7 SWAP9 PUSH1 0x0 DUP8 SWAP1 SIGNEXTEND SWAP9 POP PUSH1 0xFF PUSH2 0x100 SWAP8 DUP9 SWAP1 DIV DUP2 AND SWAP9 SWAP7 SWAP8 SWAP6 SWAP7 SWAP5 SWAP6 DUP2 DUP6 AND SWAP6 SWAP5 DIV AND SWAP3 SWAP1 PUSH8 0xFFFFFFFFFFFFFFFF AND DUP14 JUMP JUMPDEST PUSH1 0x0 DUP2 DUP2 MSTORE PUSH1 0x3 PUSH1 0x20 MSTORE PUSH1 0x40 DUP2 KECCAK256 PUSH1 0x4 DUP2 ADD SLOAD ISZERO DUP1 ISZERO SWAP1 PUSH2 0x1508 JUMPI POP DUP1 PUSH1 0x4 ADD SLOAD TIMESTAMP LT ISZERO JUMPDEST DUP1 ISZERO PUSH2 0xAAF JUMPI POP PUSH1 0x7 ADD SLOAD PUSH1 0xFF AND ISZERO SWAP3 SWAP2 POP POP JUMP JUMPDEST PUSH2 0x1525 PUSH2 0x18CA JUMP JUMPDEST PUSH1 0x0 DUP2 DUP2 MSTORE PUSH1 0x3 PUSH1 0x20 MSTORE PUSH1 0x40 SWAP1 KECCAK256 PUSH1 0x7 DUP2 ADD SLOAD PUSH1 0xFF AND PUSH2 0x1576 JUMPI PUSH1 0x40 MLOAD PUSH3 0x461BCD PUSH1 0xE5 SHL DUP2 MSTORE PUSH1 0x20 PUSH1 0x4 DUP3 ADD MSTORE PUSH1 0xC PUSH1 0x24 DUP3 ADD MSTORE PUSH12 0x139BDD081C995CDBDB1D9959 PUSH1 0xA2 SHL PUSH1 0x44 DUP3 ADD MSTORE PUSH1 0x64 ADD PUSH2 0x531 JUMP JUMPDEST PUSH1 0x0 DUP3 DUP2 MSTORE PUSH1 0x4 PUSH1 0x20 SWAP1 DUP2 MSTORE PUSH1 0x40 DUP1 DUP4 KECCAK256 CALLER DUP5 MSTORE SWAP1 SWAP2 MSTORE SWAP1 KECCAK256 DUP1 SLOAD PUSH1 0x1 PUSH1 0x1 PUSH1 0xA0 SHL SUB AND PUSH2 0x15D6 JUMPI PUSH1 0x40 MLOAD PUSH3 0x461BCD PUSH1 0xE5 SHL DUP2 MSTORE PUSH1 0x20 PUSH1 0x4 DUP3 ADD MSTORE PUSH1 0xD PUSH1 0x24 DUP3 ADD MSTORE PUSH13 0x273790383932B234B1BA34B7B7 PUSH1 0x99 SHL PUSH1 0x44 DUP3 ADD MSTORE PUSH1 0x64 ADD PUSH2 0x531 JUMP JUMPDEST PUSH1 0x3 DUP2 ADD SLOAD PUSH1 0xFF AND ISZERO PUSH2 0x161D JUMPI PUSH1 0x40 MLOAD PUSH3 0x461BCD PUSH1 0xE5 SHL DUP2 MSTORE PUSH1 0x20 PUSH1 0x4 DUP3 ADD MSTORE PUSH1 0xF PUSH1 0x24 DUP3 ADD MSTORE PUSH15 0x105B1C9958591E4818DB185A5B5959 PUSH1 0x8A SHL PUSH1 0x44 DUP3 ADD MSTORE PUSH1 0x64 ADD PUSH2 0x531 JUMP JUMPDEST PUSH1 0x3 DUP2 ADD DUP1 SLOAD PUSH1 0xFF NOT AND PUSH1 0x1 OR SWAP1 SSTORE PUSH1 0x7 DUP3 ADD SLOAD PUSH1 0x0 SWAP1 PUSH2 0x100 SWAP1 DIV PUSH1 0xFF AND PUSH2 0x1655 JUMPI PUSH1 0x1 DUP3 ADD SLOAD PUSH2 0x1650 SWAP1 PUSH1 0x64 PUSH2 0x1F9F JUMP JUMPDEST PUSH2 0x165B JUMP JUMPDEST DUP2 PUSH1 0x1 ADD SLOAD JUMPDEST SWAP1 POP PUSH1 0x0 DUP4 PUSH1 0x8 ADD SLOAD DUP5 PUSH1 0x5 ADD SLOAD DUP4 PUSH2 0x1674 SWAP2 SWAP1 PUSH2 0x1F60 JUMP JUMPDEST PUSH2 0x167E SWAP2 SWAP1 PUSH2 0x1F7D JUMP JUMPDEST SWAP1 POP PUSH2 0x16B4 PUSH1 0x1 PUSH1 0x1 PUSH1 0xA0 SHL SUB PUSH32 0x0 AND CALLER DUP4 PUSH2 0x1961 JUMP JUMPDEST PUSH1 0x40 MLOAD DUP2 DUP2 MSTORE CALLER SWAP1 DUP7 SWAP1 PUSH32 0x38B0CDF6318F158304D2B2F11B821333B4E69A21D83E945B6A741E1BBFC234B SWAP1 PUSH1 0x20 ADD PUSH1 0x40 MLOAD DUP1 SWAP2 SUB SWAP1 LOG3 POP POP POP POP PUSH2 0x13C7 PUSH1 0x1 DUP1 SSTORE JUMP JUMPDEST PUSH1 0x60 PUSH1 0x0 DUP1 PUSH1 0x0 DUP1 PUSH1 0x0 DUP1 PUSH1 0x0 DUP1 PUSH1 0x0 PUSH1 0x3 PUSH1 0x0 DUP13 DUP2 MSTORE PUSH1 0x20 ADD SWAP1 DUP2 MSTORE PUSH1 0x20 ADD PUSH1 0x0 KECCAK256 SWAP1 POP DUP1 PUSH1 0x1 ADD DUP2 PUSH1 0x2 ADD SLOAD DUP3 PUSH1 0x3 ADD PUSH1 0x1 SWAP1 SLOAD SWAP1 PUSH2 0x100 EXP SWAP1 DIV PUSH1 0xFF AND DUP4 PUSH1 0x4 ADD SLOAD DUP5 PUSH1 0x5 ADD SLOAD DUP6 PUSH1 0x6 ADD SLOAD DUP7 PUSH1 0x7 ADD PUSH1 0x0 SWAP1 SLOAD SWAP1 PUSH2 0x100 EXP SWAP1 DIV PUSH1 0xFF AND DUP8 PUSH1 0x7 ADD PUSH1 0x1 SWAP1 SLOAD SWAP1 PUSH2 0x100 EXP SWAP1 DIV PUSH1 0xFF AND DUP9 PUSH1 0x9 ADD SLOAD DUP9 DUP1 SLOAD PUSH2 0x177C SWAP1 PUSH2 0x2095 JUMP JUMPDEST DUP1 PUSH1 0x1F ADD PUSH1 0x20 DUP1 SWAP2 DIV MUL PUSH1 0x20 ADD PUSH1 0x40 MLOAD SWAP1 DUP2 ADD PUSH1 0x40 MSTORE DUP1 SWAP3 SWAP2 SWAP1 DUP2 DUP2 MSTORE PUSH1 0x20 ADD DUP3 DUP1 SLOAD PUSH2 0x17A8 SWAP1 PUSH2 0x2095 JUMP JUMPDEST DUP1 ISZERO PUSH2 0x17F5 JUMPI DUP1 PUSH1 0x1F LT PUSH2 0x17CA JUMPI PUSH2 0x100 DUP1 DUP4 SLOAD DIV MUL DUP4 MSTORE SWAP2 PUSH1 0x20 ADD SWAP2 PUSH2 0x17F5 JUMP JUMPDEST DUP3 ADD SWAP2 SWAP1 PUSH1 0x0 MSTORE PUSH1 0x20 PUSH1 0x0 KECCAK256 SWAP1 JUMPDEST DUP2 SLOAD DUP2 MSTORE SWAP1 PUSH1 0x1 ADD SWAP1 PUSH1 0x20 ADD DUP1 DUP4 GT PUSH2 0x17D8 JUMPI DUP3 SWAP1 SUB PUSH1 0x1F AND DUP3 ADD SWAP2 JUMPDEST POP POP POP POP POP SWAP9 POP SWAP10 POP SWAP10 POP SWAP10 POP SWAP10 POP SWAP10 POP SWAP10 POP SWAP10 POP SWAP10 POP SWAP10 POP POP SWAP2 SWAP4 SWAP6 SWAP8 SWAP10 SWAP1 SWAP3 SWAP5 SWAP7 SWAP9 POP JUMP JUMPDEST PUSH2 0x1824 PUSH2 0x1A28 JUMP JUMPDEST PUSH1 0x1 PUSH1 0x1 PUSH1 0xA0 SHL SUB DUP2 AND PUSH2 0x186D JUMPI PUSH1 0x40 MLOAD PUSH3 0x461BCD PUSH1 0xE5 SHL DUP2 MSTORE PUSH1 0x20 PUSH1 0x4 DUP3 ADD MSTORE PUSH1 0x10 PUSH1 0x24 DUP3 ADD MSTORE PUSH16 0x496E76616C6964207472656173757279 PUSH1 0x80 SHL PUSH1 0x44 DUP3 ADD MSTORE PUSH1 0x64 ADD PUSH2 0x531 JUMP JUMPDEST PUSH1 0x2 DUP1 SLOAD PUSH1 0x1 PUSH1 0x1 PUSH1 0xA0 SHL SUB NOT AND PUSH1 0x1 PUSH1 0x1 PUSH1 0xA0 SHL SUB SWAP3 SWAP1 SWAP3 AND SWAP2 SWAP1 SWAP2 OR SWAP1 SSTORE JUMP JUMPDEST PUSH2 0x1897 PUSH2 0x1A28 JUMP JUMPDEST PUSH1 0x1 PUSH1 0x1 PUSH1 0xA0 SHL SUB DUP2 AND PUSH2 0x18C1 JUMPI PUSH1 0x40 MLOAD PUSH4 0x1E4FBDF7 PUSH1 0xE0 SHL DUP2 MSTORE PUSH1 0x0 PUSH1 0x4 DUP3 ADD MSTORE PUSH1 0x24 ADD PUSH2 0x531 JUMP JUMPDEST PUSH2 0x13C7 DUP2 PUSH2 0x1ACA JUMP JUMPDEST PUSH1 0x2 PUSH1 0x1 SLOAD SUB PUSH2 0x18ED JUMPI PUSH1 0x40 MLOAD PUSH4 0x3EE5AEB5 PUSH1 0xE0 SHL DUP2 MSTORE PUSH1 0x4 ADD PUSH1 0x40 MLOAD DUP1 SWAP2 SUB SWAP1 REVERT JUMPDEST PUSH1 0x2 PUSH1 0x1 SSTORE JUMP JUMPDEST PUSH1 0x40 MLOAD PUSH1 0x1 PUSH1 0x1 PUSH1 0xA0 SHL SUB DUP5 DUP2 AND PUSH1 0x24 DUP4 ADD MSTORE DUP4 DUP2 AND PUSH1 0x44 DUP4 ADD MSTORE PUSH1 0x64 DUP3 ADD DUP4 SWAP1 MSTORE PUSH2 0x195B SWAP2 DUP7 SWAP2 DUP3 AND SWAP1 PUSH4 0x23B872DD SWAP1 PUSH1 0x84 ADD JUMPDEST PUSH1 0x40 MLOAD PUSH1 0x20 DUP2 DUP4 SUB SUB DUP2 MSTORE SWAP1 PUSH1 0x40 MSTORE SWAP2 POP PUSH1 0xE0 SHL PUSH1 0x20 DUP3 ADD DUP1 MLOAD PUSH1 0x1 PUSH1 0x1 PUSH1 0xE0 SHL SUB DUP4 DUP2 DUP4 AND OR DUP4 MSTORE POP POP POP POP PUSH2 0x1B1A JUMP JUMPDEST POP POP POP POP JUMP JUMPDEST PUSH1 0x40 MLOAD PUSH1 0x1 PUSH1 0x1 PUSH1 0xA0 SHL SUB DUP4 DUP2 AND PUSH1 0x24 DUP4 ADD MSTORE PUSH1 0x44 DUP3 ADD DUP4 SWAP1 MSTORE PUSH2 0x1992 SWAP2 DUP6 SWAP2 DUP3 AND SWAP1 PUSH4 0xA9059CBB SWAP1 PUSH1 0x64 ADD PUSH2 0x1929 JUMP JUMPDEST POP POP POP JUMP JUMPDEST PUSH1 0x40 MLOAD PUSH4 0x413B07E5 PUSH1 0xE1 SHL DUP2 MSTORE PUSH1 0x20 PUSH1 0x4 DUP3 ADD MSTORE PUSH1 0x6 PUSH1 0x24 DUP3 ADD MSTORE PUSH6 0x233A39B7AB19 PUSH1 0xD1 SHL PUSH1 0x44 DUP3 ADD MSTORE PUSH1 0x0 SWAP1 PUSH20 0xAD67FE66660FB8DFE9D6B1B4240D8650E30F6019 SWAP1 DUP3 SWAP1 DUP3 SWAP1 PUSH4 0x82760FCA SWAP1 PUSH1 0x64 ADD PUSH1 0x20 PUSH1 0x40 MLOAD DUP1 DUP4 SUB DUP2 DUP7 GAS STATICCALL ISZERO DUP1 ISZERO PUSH2 0x1A04 JUMPI RETURNDATASIZE PUSH1 0x0 DUP1 RETURNDATACOPY RETURNDATASIZE PUSH1 0x0 REVERT JUMPDEST POP POP POP POP PUSH1 0x40 MLOAD RETURNDATASIZE PUSH1 0x1F NOT PUSH1 0x1F DUP3 ADD AND DUP3 ADD DUP1 PUSH1 0x40 MSTORE POP DUP2 ADD SWAP1 PUSH2 0xAAF SWAP2 SWAP1 PUSH2 0x233F JUMP JUMPDEST PUSH1 0x0 SLOAD PUSH1 0x1 PUSH1 0x1 PUSH1 0xA0 SHL SUB AND CALLER EQ PUSH2 0x13DC JUMPI PUSH1 0x40 MLOAD PUSH4 0x118CDAA7 PUSH1 0xE0 SHL DUP2 MSTORE CALLER PUSH1 0x4 DUP3 ADD MSTORE PUSH1 0x24 ADD PUSH2 0x531 JUMP JUMPDEST PUSH1 0x0 DUP1 DUP3 PUSH1 0x40 MLOAD PUSH1 0x20 ADD PUSH2 0x1A69 SWAP2 SWAP1 PUSH2 0x235C JUMP JUMPDEST PUSH1 0x40 MLOAD PUSH1 0x20 DUP2 DUP4 SUB SUB DUP2 MSTORE SWAP1 PUSH1 0x40 MSTORE SWAP1 POP PUSH1 0x0 PUSH1 0x1 PUSH1 0xB0 SHL SWAP1 POP DUP2 MLOAD PUSH1 0x20 DUP4 ADD PUSH1 0x14 DUP3 GT ISZERO PUSH2 0x1A97 JUMPI PUSH1 0x14 SWAP2 POP JUMPDEST PUSH1 0x0 JUMPDEST DUP3 DUP2 LT ISZERO PUSH2 0x1ABF JUMPI DUP2 DUP2 ADD MLOAD PUSH1 0x0 BYTE PUSH1 0x8 PUSH1 0x13 DUP4 SWAP1 SUB MUL SHL SWAP4 SWAP1 SWAP4 OR SWAP3 PUSH1 0x1 ADD PUSH2 0x1A9A JUMP JUMPDEST POP SWAP2 SWAP6 SWAP5 POP POP POP POP POP JUMP JUMPDEST PUSH1 0x0 DUP1 SLOAD PUSH1 0x1 PUSH1 0x1 PUSH1 0xA0 SHL SUB DUP4 DUP2 AND PUSH1 0x1 PUSH1 0x1 PUSH1 0xA0 SHL SUB NOT DUP4 AND DUP2 OR DUP5 SSTORE PUSH1 0x40 MLOAD SWAP2 SWAP1 SWAP3 AND SWAP3 DUP4 SWAP2 PUSH32 0x8BE0079C531659141344CD1FD0A4F28419497F9722A3DAAFE3B4186F6B6457E0 SWAP2 SWAP1 LOG3 POP POP JUMP JUMPDEST PUSH1 0x0 DUP1 PUSH1 0x20 PUSH1 0x0 DUP5 MLOAD PUSH1 0x20 DUP7 ADD PUSH1 0x0 DUP9 GAS CALL DUP1 PUSH2 0x1B3D JUMPI PUSH1 0x40 MLOAD RETURNDATASIZE PUSH1 0x0 DUP3 RETURNDATACOPY RETURNDATASIZE DUP2 REVERT JUMPDEST POP POP PUSH1 0x0 MLOAD RETURNDATASIZE SWAP2 POP DUP2 ISZERO PUSH2 0x1B55 JUMPI DUP1 PUSH1 0x1 EQ ISZERO PUSH2 0x1B62 JUMP JUMPDEST PUSH1 0x1 PUSH1 0x1 PUSH1 0xA0 SHL SUB DUP5 AND EXTCODESIZE ISZERO JUMPDEST ISZERO PUSH2 0x195B JUMPI PUSH1 0x40 MLOAD PUSH4 0x5274AFE7 PUSH1 0xE0 SHL DUP2 MSTORE PUSH1 0x1 PUSH1 0x1 PUSH1 0xA0 SHL SUB DUP6 AND PUSH1 0x4 DUP3 ADD MSTORE PUSH1 0x24 ADD PUSH2 0x531 JUMP JUMPDEST PUSH1 0x0 DUP1 PUSH1 0x40 DUP4 DUP6 SUB SLT ISZERO PUSH2 0x1B9E JUMPI PUSH1 0x0 DUP1 REVERT JUMPDEST POP POP DUP1 CALLDATALOAD SWAP3 PUSH1 0x20 SWAP1 SWAP2 ADD CALLDATALOAD SWAP2 POP JUMP JUMPDEST PUSH1 0x0 PUSH1 0x20 DUP3 DUP5 SUB SLT ISZERO PUSH2 0x1BBF JUMPI PUSH1 0x0 DUP1 REVERT JUMPDEST POP CALLDATALOAD SWAP2 SWAP1 POP JUMP JUMPDEST PUSH1 0x20 DUP1 DUP3 MSTORE DUP3 MLOAD DUP3 DUP3 ADD DUP2 SWAP1 MSTORE PUSH1 0x0 SWAP2 SWAP1 DUP5 DUP3 ADD SWAP1 PUSH1 0x40 DUP6 ADD SWAP1 DUP5 JUMPDEST DUP2 DUP2 LT ISZERO PUSH2 0x1C07 JUMPI DUP4 MLOAD PUSH1 0x1 PUSH1 0x1 PUSH1 0xA0 SHL SUB AND DUP4 MSTORE SWAP3 DUP5 ADD SWAP3 SWAP2 DUP5 ADD SWAP2 PUSH1 0x1 ADD PUSH2 0x1BE2 JUMP JUMPDEST POP SWAP1 SWAP7 SWAP6 POP POP POP POP POP POP JUMP JUMPDEST PUSH1 0x1 PUSH1 0x1 PUSH1 0xA0 SHL SUB DUP2 AND DUP2 EQ PUSH2 0x13C7 JUMPI PUSH1 0x0 DUP1 REVERT JUMPDEST PUSH1 0x0 DUP1 PUSH1 0x0 PUSH1 0x60 DUP5 DUP7 SUB SLT ISZERO PUSH2 0x1C3D JUMPI PUSH1 0x0 DUP1 REVERT JUMPDEST DUP4 CALLDATALOAD SWAP3 POP PUSH1 0x20 DUP5 ADD CALLDATALOAD PUSH2 0x1C4F DUP2 PUSH2 0x1C13 JUMP JUMPDEST SWAP2 POP PUSH1 0x40 DUP5 ADD CALLDATALOAD DUP1 ISZERO ISZERO DUP2 EQ PUSH2 0x1C64 JUMPI PUSH1 0x0 DUP1 REVERT JUMPDEST DUP1 SWAP2 POP POP SWAP3 POP SWAP3 POP SWAP3 JUMP JUMPDEST DUP1 PUSH1 0x0 SIGNEXTEND DUP2 EQ PUSH2 0x13C7 JUMPI PUSH1 0x0 DUP1 REVERT JUMPDEST DUP1 CALLDATALOAD PUSH2 0x1C89 DUP2 PUSH2 0x1C6F JUMP JUMPDEST SWAP2 SWAP1 POP JUMP JUMPDEST DUP1 CALLDATALOAD PUSH1 0x2 DUP2 LT PUSH2 0x1C89 JUMPI PUSH1 0x0 DUP1 REVERT JUMPDEST PUSH1 0x0 DUP1 PUSH1 0x0 DUP1 PUSH1 0x0 DUP1 PUSH1 0x0 PUSH1 0xC0 DUP9 DUP11 SUB SLT ISZERO PUSH2 0x1CB8 JUMPI PUSH1 0x0 DUP1 REVERT JUMPDEST DUP8 CALLDATALOAD PUSH8 0xFFFFFFFFFFFFFFFF DUP1 DUP3 GT ISZERO PUSH2 0x1CD0 JUMPI PUSH1 0x0 DUP1 REVERT JUMPDEST DUP2 DUP11 ADD SWAP2 POP DUP11 PUSH1 0x1F DUP4 ADD SLT PUSH2 0x1CE4 JUMPI PUSH1 0x0 DUP1 REVERT JUMPDEST DUP2 CALLDATALOAD DUP2 DUP2 GT ISZERO PUSH2 0x1CF3 JUMPI PUSH1 0x0 DUP1 REVERT JUMPDEST DUP12 PUSH1 0x20 DUP3 DUP6 ADD ADD GT ISZERO PUSH2 0x1D05 JUMPI PUSH1 0x0 DUP1 REVERT JUMPDEST PUSH1 0x20 SWAP3 DUP4 ADD SWAP10 POP SWAP8 POP POP DUP9 ADD CALLDATALOAD SWAP5 POP PUSH2 0x1D20 PUSH1 0x40 DUP10 ADD PUSH2 0x1C7E JUMP JUMPDEST SWAP4 POP PUSH2 0x1D2E PUSH1 0x60 DUP10 ADD PUSH2 0x1C8E JUMP JUMPDEST SWAP3 POP PUSH1 0x80 DUP9 ADD CALLDATALOAD SWAP2 POP PUSH1 0xA0 DUP9 ADD CALLDATALOAD SWAP1 POP SWAP3 SWAP6 SWAP9 SWAP2 SWAP5 SWAP8 POP SWAP3 SWAP6 POP JUMP JUMPDEST PUSH1 0x0 JUMPDEST DUP4 DUP2 LT ISZERO PUSH2 0x1D65 JUMPI DUP2 DUP2 ADD MLOAD DUP4 DUP3 ADD MSTORE PUSH1 0x20 ADD PUSH2 0x1D4D JUMP JUMPDEST POP POP PUSH1 0x0 SWAP2 ADD MSTORE JUMP JUMPDEST PUSH1 0x0 DUP2 MLOAD DUP1 DUP5 MSTORE PUSH2 0x1D86 DUP2 PUSH1 0x20 DUP7 ADD PUSH1 0x20 DUP7 ADD PUSH2 0x1D4A JUMP JUMPDEST PUSH1 0x1F ADD PUSH1 0x1F NOT AND SWAP3 SWAP1 SWAP3 ADD PUSH1 0x20 ADD SWAP3 SWAP2 POP POP JUMP JUMPDEST PUSH4 0x4E487B71 PUSH1 0xE0 SHL PUSH1 0x0 MSTORE PUSH1 0x21 PUSH1 0x4 MSTORE PUSH1 0x24 PUSH1 0x0 REVERT JUMPDEST PUSH1 0x2 DUP2 LT PUSH2 0x1DCE JUMPI PUSH4 0x4E487B71 PUSH1 0xE0 SHL PUSH1 0x0 MSTORE PUSH1 0x21 PUSH1 0x4 MSTORE PUSH1 0x24 PUSH1 0x0 REVERT JUMPDEST SWAP1 MSTORE JUMP JUMPDEST PUSH11 0xFFFFFFFFFFFFFFFFFFFFFF NOT DUP15 AND DUP2 MSTORE PUSH2 0x1A0 PUSH1 0x20 DUP3 ADD MSTORE PUSH1 0x0 PUSH2 0x1DFB PUSH2 0x1A0 DUP4 ADD DUP16 PUSH2 0x1D6E JUMP JUMPDEST SWAP1 POP DUP13 PUSH1 0x40 DUP4 ADD MSTORE DUP12 PUSH1 0x0 SIGNEXTEND PUSH1 0x60 DUP4 ADD MSTORE PUSH2 0x1E19 PUSH1 0x80 DUP4 ADD DUP13 PUSH2 0x1DB0 JUMP JUMPDEST DUP10 PUSH1 0xA0 DUP4 ADD MSTORE DUP9 PUSH1 0xC0 DUP4 ADD MSTORE DUP8 PUSH1 0xE0 DUP4 ADD MSTORE DUP7 ISZERO ISZERO PUSH2 0x100 DUP4 ADD MSTORE DUP6 ISZERO ISZERO PUSH2 0x120 DUP4 ADD MSTORE DUP5 PUSH2 0x140 DUP4 ADD MSTORE DUP4 PUSH2 0x160 DUP4 ADD MSTORE PUSH2 0x1E62 PUSH2 0x180 DUP4 ADD DUP5 PUSH8 0xFFFFFFFFFFFFFFFF AND SWAP1 MSTORE JUMP JUMPDEST SWAP15 SWAP14 POP POP POP POP POP POP POP POP POP POP POP POP POP POP JUMP JUMPDEST PUSH1 0x0 DUP1 PUSH1 0x40 DUP4 DUP6 SUB SLT ISZERO PUSH2 0x1E87 JUMPI PUSH1 0x0 DUP1 REVERT JUMPDEST DUP3 CALLDATALOAD SWAP2 POP PUSH1 0x20 DUP4 ADD CALLDATALOAD PUSH2 0x1E99 DUP2 PUSH2 0x1C13 JUMP JUMPDEST DUP1 SWAP2 POP POP SWAP3 POP SWAP3 SWAP1 POP JUMP JUMPDEST PUSH1 0x0 PUSH2 0x120 DUP1 DUP4 MSTORE PUSH2 0x1EB8 DUP2 DUP5 ADD DUP14 PUSH2 0x1D6E JUMP JUMPDEST SWAP2 POP POP DUP10 PUSH1 0x20 DUP4 ADD MSTORE PUSH2 0x1ECE PUSH1 0x40 DUP4 ADD DUP11 PUSH2 0x1DB0 JUMP JUMPDEST PUSH1 0x60 DUP3 ADD SWAP8 SWAP1 SWAP8 MSTORE PUSH1 0x80 DUP2 ADD SWAP6 SWAP1 SWAP6 MSTORE PUSH1 0xA0 DUP6 ADD SWAP4 SWAP1 SWAP4 MSTORE SWAP1 ISZERO ISZERO PUSH1 0xC0 DUP5 ADD MSTORE ISZERO ISZERO PUSH1 0xE0 DUP4 ADD MSTORE PUSH2 0x100 SWAP1 SWAP2 ADD MSTORE SWAP4 SWAP3 POP POP POP JUMP JUMPDEST PUSH1 0x0 PUSH1 0x20 DUP3 DUP5 SUB SLT ISZERO PUSH2 0x1F15 JUMPI PUSH1 0x0 DUP1 REVERT JUMPDEST DUP2 CALLDATALOAD PUSH2 0xAAF DUP2 PUSH2 0x1C13 JUMP JUMPDEST PUSH1 0x20 DUP1 DUP3 MSTORE PUSH1 0x10 SWAP1 DUP3 ADD MSTORE PUSH16 0x13585C9AD95D081B9BDD08199BDD5B99 PUSH1 0x82 SHL PUSH1 0x40 DUP3 ADD MSTORE PUSH1 0x60 ADD SWAP1 JUMP JUMPDEST PUSH4 0x4E487B71 PUSH1 0xE0 SHL PUSH1 0x0 MSTORE PUSH1 0x11 PUSH1 0x4 MSTORE PUSH1 0x24 PUSH1 0x0 REVERT JUMPDEST DUP1 DUP3 MUL DUP2 ISZERO DUP3 DUP3 DIV DUP5 EQ OR PUSH2 0x1F77 JUMPI PUSH2 0x1F77 PUSH2 0x1F4A JUMP JUMPDEST SWAP3 SWAP2 POP POP JUMP JUMPDEST PUSH1 0x0 DUP3 PUSH2 0x1F9A JUMPI PUSH4 0x4E487B71 PUSH1 0xE0 SHL PUSH1 0x0 MSTORE PUSH1 0x12 PUSH1 0x4 MSTORE PUSH1 0x24 PUSH1 0x0 REVERT JUMPDEST POP DIV SWAP1 JUMP JUMPDEST DUP2 DUP2 SUB DUP2 DUP2 GT ISZERO PUSH2 0x1F77 JUMPI PUSH2 0x1F77 PUSH2 0x1F4A JUMP JUMPDEST DUP1 DUP3 ADD DUP1 DUP3 GT ISZERO PUSH2 0x1F77 JUMPI PUSH2 0x1F77 PUSH2 0x1F4A JUMP JUMPDEST PUSH1 0x0 PUSH1 0x1 DUP3 ADD PUSH2 0x1FD7 JUMPI PUSH2 0x1FD7 PUSH2 0x1F4A JUMP JUMPDEST POP PUSH1 0x1 ADD SWAP1 JUMP JUMPDEST PUSH1 0x0 DUP1 PUSH1 0x0 PUSH1 0x60 DUP5 DUP7 SUB SLT ISZERO PUSH2 0x1FF3 JUMPI PUSH1 0x0 DUP1 REVERT JUMPDEST DUP4 MLOAD SWAP3 POP PUSH1 0x20 DUP5 ADD MLOAD PUSH2 0x2005 DUP2 PUSH2 0x1C6F JUMP JUMPDEST PUSH1 0x40 DUP6 ADD MLOAD SWAP1 SWAP3 POP PUSH8 0xFFFFFFFFFFFFFFFF DUP2 AND DUP2 EQ PUSH2 0x1C64 JUMPI PUSH1 0x0 DUP1 REVERT JUMPDEST PUSH4 0x4E487B71 PUSH1 0xE0 SHL PUSH1 0x0 MSTORE PUSH1 0x32 PUSH1 0x4 MSTORE PUSH1 0x24 PUSH1 0x0 REVERT JUMPDEST DUP5 DUP7 DUP3 CALLDATACOPY PUSH1 0x0 DUP6 DUP3 ADD DUP6 DUP2 MSTORE PUSH1 0x2 DUP6 LT PUSH2 0x2063 JUMPI PUSH4 0x4E487B71 PUSH1 0xE0 SHL PUSH1 0x0 MSTORE PUSH1 0x21 PUSH1 0x4 MSTORE PUSH1 0x24 PUSH1 0x0 REVERT JUMPDEST PUSH1 0xF8 SWAP5 SWAP1 SWAP5 SHL PUSH1 0x20 DUP6 ADD MSTORE POP POP PUSH1 0x21 DUP3 ADD MSTORE PUSH1 0x41 ADD SWAP4 SWAP3 POP POP POP JUMP JUMPDEST PUSH4 0x4E487B71 PUSH1 0xE0 SHL PUSH1 0x0 MSTORE PUSH1 0x41 PUSH1 0x4 MSTORE PUSH1 0x24 PUSH1 0x0 REVERT JUMPDEST PUSH1 0x1 DUP2 DUP2 SHR SWAP1 DUP3 AND DUP1 PUSH2 0x20A9 JUMPI PUSH1 0x7F DUP3 AND SWAP2 POP JUMPDEST PUSH1 0x20 DUP3 LT DUP2 SUB PUSH2 0x20C9 JUMPI PUSH4 0x4E487B71 PUSH1 0xE0 SHL PUSH1 0x0 MSTORE PUSH1 0x22 PUSH1 0x4 MSTORE PUSH1 0x24 PUSH1 0x0 REVERT JUMPDEST POP SWAP2 SWAP1 POP JUMP JUMPDEST PUSH1 0x1F DUP3 GT ISZERO PUSH2 0x1992 JUMPI PUSH1 0x0 DUP2 DUP2 MSTORE PUSH1 0x20 DUP2 KECCAK256 PUSH1 0x1F DUP6 ADD PUSH1 0x5 SHR DUP2 ADD PUSH1 0x20 DUP7 LT ISZERO PUSH2 0x20F6 JUMPI POP DUP1 JUMPDEST PUSH1 0x1F DUP6 ADD PUSH1 0x5 SHR DUP3 ADD SWAP2 POP JUMPDEST DUP2 DUP2 LT ISZERO PUSH2 0x2115 JUMPI DUP3 DUP2 SSTORE PUSH1 0x1 ADD PUSH2 0x2102 JUMP JUMPDEST POP POP POP POP POP POP JUMP JUMPDEST DUP2 MLOAD PUSH8 0xFFFFFFFFFFFFFFFF DUP2 GT ISZERO PUSH2 0x2137 JUMPI PUSH2 0x2137 PUSH2 0x207F JUMP JUMPDEST PUSH2 0x214B DUP2 PUSH2 0x2145 DUP5 SLOAD PUSH2 0x2095 JUMP JUMPDEST DUP5 PUSH2 0x20CF JUMP JUMPDEST PUSH1 0x20 DUP1 PUSH1 0x1F DUP4 GT PUSH1 0x1 DUP2 EQ PUSH2 0x2180 JUMPI PUSH1 0x0 DUP5 ISZERO PUSH2 0x2168 JUMPI POP DUP6 DUP4 ADD MLOAD JUMPDEST PUSH1 0x0 NOT PUSH1 0x3 DUP7 SWAP1 SHL SHR NOT AND PUSH1 0x1 DUP6 SWAP1 SHL OR DUP6 SSTORE PUSH2 0x2115 JUMP JUMPDEST PUSH1 0x0 DUP6 DUP2 MSTORE PUSH1 0x20 DUP2 KECCAK256 PUSH1 0x1F NOT DUP7 AND SWAP2 JUMPDEST DUP3 DUP2 LT ISZERO PUSH2 0x21AF JUMPI DUP9 DUP7 ADD MLOAD DUP3 SSTORE SWAP5 DUP5 ADD SWAP5 PUSH1 0x1 SWAP1 SWAP2 ADD SWAP1 DUP5 ADD PUSH2 0x2190 JUMP JUMPDEST POP DUP6 DUP3 LT ISZERO PUSH2 0x21CD JUMPI DUP8 DUP6 ADD MLOAD PUSH1 0x0 NOT PUSH1 0x3 DUP9 SWAP1 SHL PUSH1 0xF8 AND SHR NOT AND DUP2 SSTORE JUMPDEST POP POP POP POP POP PUSH1 0x1 SWAP1 DUP2 SHL ADD SWAP1 SSTORE POP JUMP JUMPDEST PUSH1 0x80 DUP2 MSTORE DUP5 PUSH1 0x80 DUP3 ADD MSTORE DUP5 DUP7 PUSH1 0xA0 DUP4 ADD CALLDATACOPY PUSH1 0x0 PUSH1 0xA0 DUP7 DUP4 ADD ADD MSTORE PUSH1 0x0 PUSH1 0xA0 PUSH1 0x1F NOT PUSH1 0x1F DUP9 ADD AND DUP4 ADD ADD SWAP1 POP DUP5 PUSH1 0x20 DUP4 ADD MSTORE PUSH2 0x221B PUSH1 0x40 DUP4 ADD DUP6 PUSH2 0x1DB0 JUMP JUMPDEST DUP3 PUSH1 0x60 DUP4 ADD MSTORE SWAP7 SWAP6 POP POP POP POP POP POP JUMP JUMPDEST PUSH1 0x0 DUP3 DUP2 SIGNEXTEND SWAP1 DUP3 SWAP1 SIGNEXTEND SUB PUSH1 0x7F NOT DUP2 SLT PUSH1 0x7F DUP3 SGT OR ISZERO PUSH2 0x1F77 JUMPI PUSH2 0x1F77 PUSH2 0x1F4A JUMP JUMPDEST PUSH1 0x1 DUP2 DUP2 JUMPDEST DUP1 DUP6 GT ISZERO PUSH2 0x2287 JUMPI DUP2 PUSH1 0x0 NOT DIV DUP3 GT ISZERO PUSH2 0x226D JUMPI PUSH2 0x226D PUSH2 0x1F4A JUMP JUMPDEST DUP1 DUP6 AND ISZERO PUSH2 0x227A JUMPI SWAP2 DUP2 MUL SWAP2 JUMPDEST SWAP4 DUP5 SHR SWAP4 SWAP1 DUP1 MUL SWAP1 PUSH2 0x2251 JUMP JUMPDEST POP SWAP3 POP SWAP3 SWAP1 POP JUMP JUMPDEST PUSH1 0x0 DUP3 PUSH2 0x229E JUMPI POP PUSH1 0x1 PUSH2 0x1F77 JUMP JUMPDEST DUP2 PUSH2 0x22AB JUMPI POP PUSH1 0x0 PUSH2 0x1F77 JUMP JUMPDEST DUP2 PUSH1 0x1 DUP2 EQ PUSH2 0x22C1 JUMPI PUSH1 0x2 DUP2 EQ PUSH2 0x22CB JUMPI PUSH2 0x22E7 JUMP JUMPDEST PUSH1 0x1 SWAP2 POP POP PUSH2 0x1F77 JUMP JUMPDEST PUSH1 0xFF DUP5 GT ISZERO PUSH2 0x22DC JUMPI PUSH2 0x22DC PUSH2 0x1F4A JUMP JUMPDEST POP POP PUSH1 0x1 DUP3 SHL PUSH2 0x1F77 JUMP JUMPDEST POP PUSH1 0x20 DUP4 LT PUSH2 0x133 DUP4 LT AND PUSH1 0x4E DUP5 LT PUSH1 0xB DUP5 LT AND OR ISZERO PUSH2 0x230A JUMPI POP DUP2 DUP2 EXP PUSH2 0x1F77 JUMP JUMPDEST PUSH2 0x2314 DUP4 DUP4 PUSH2 0x224C JUMP JUMPDEST DUP1 PUSH1 0x0 NOT DIV DUP3 GT ISZERO PUSH2 0x2328 JUMPI PUSH2 0x2328 PUSH2 0x1F4A JUMP JUMPDEST MUL SWAP4 SWAP3 POP POP POP JUMP JUMPDEST PUSH1 0x0 PUSH2 0xAAF PUSH1 0xFF DUP5 AND DUP4 PUSH2 0x228F JUMP JUMPDEST PUSH1 0x0 PUSH1 0x20 DUP3 DUP5 SUB SLT ISZERO PUSH2 0x2351 JUMPI PUSH1 0x0 DUP1 REVERT JUMPDEST DUP2 MLOAD PUSH2 0xAAF DUP2 PUSH2 0x1C13 JUMP JUMPDEST PUSH1 0x0 DUP3 MLOAD PUSH2 0x236E DUP2 DUP5 PUSH1 0x20 DUP8 ADD PUSH2 0x1D4A JUMP JUMPDEST PUSH4 0xBD554D1 PUSH1 0xE2 SHL SWAP3 ADD SWAP2 DUP3 MSTORE POP PUSH1 0x4 ADD SWAP2 SWAP1 POP JUMP INVALID LOG2 PUSH5 0x6970667358 0x22 SLT KECCAK256 0xB0 BYTE PUSH8 0x855CD04E90A0EFED 0xE2 0x23 LOG3 0xCF MSTORE8 GASLIMIT 0xC 0x2C LOG1 0xB0 0xC1 0x25 0xE2 SWAP12 0x5C 0xBA DUP13 0x23 0x2E PUSH20 0xB464736F6C634300081400330000000000000000 "},"methodIdentifiers":{"BPS_DENOMINATOR()":"e1a45218","ENTRY_FEE()":"f6d361cc","FLARE_REGISTRY()":"9ef27030","MAX_PYES()":"eaa47f60","MIN_PYES()":"6dfae1b7","PLATFORM_FEE_BPS()":"539aa77f","PYES_DECIMALS()":"686fdaf6","allMarkets(uint256)":"52d84d1e","canResolve(bytes32)":"a80f0a86","claim(bytes32)":"bd66528a","createPriceMarket(string,uint256,int8,uint8,uint256,uint256)":"563d1e84","estimatePayout(bytes32,address,bool)":"49df7085","getCurrentPrice(bytes32)":"161e444e","getMarket(bytes32)":"c3c95c7b","getMarketAgents(bytes32)":"0a642f81","getMarketCount()":"fd69f3c2","getPrediction(bytes32,address)":"ab9ab684","marketAgents(bytes32,uint256)":"4c4e33a5","markets(bytes32)":"7564912b","owner()":"8da5cb5b","predict(bytes32,uint256)":"0208a3b2","predictions(bytes32,address)":"fe1063bc","renounceOwnership()":"715018a6","resolve(bytes32)":"5c23bdf5","setTreasury(address)":"f0f44260","transferOwnership(address)":"f2fde38b","treasury()":"61d027b3","usdt()":"2f48ab7d"}}}}}