{
  "_format": "hh-sol-artifact-1",
  "contractName": "ClawlyMarket",
  "sourceName": "contracts/ClawlyMarket.sol",
  "abi": [
    {
      "inputs": [
        {
          "internalType": "address",
          "name": "_usdt",
          "type": "address"
        },
        {
          "internalType": "address",
          "name": "_treasury",
          "type": "address"
        }
      ],
      "stateMutability": "nonpayable",
      "type": "constructor"
    },
    {
      "inputs": [
        {
          "internalType": "address",
          "name": "owner",
          "type": "address"
        }
      ],
      "name": "OwnableInvalidOwner",
      "type": "error"
    },
    {
      "inputs": [
        {
          "internalType": "address",
          "name": "account",
          "type": "address"
        }
      ],
      "name": "OwnableUnauthorizedAccount",
      "type": "error"
    },
    {
      "inputs": [],
      "name": "ReentrancyGuardReentrantCall",
      "type": "error"
    },
    {
      "inputs": [
        {
          "internalType": "address",
          "name": "token",
          "type": "address"
        }
      ],
      "name": "SafeERC20FailedOperation",
      "type": "error"
    },
    {
      "anonymous": false,
      "inputs": [
        {
          "indexed": true,
          "internalType": "bytes32",
          "name": "marketId",
          "type": "bytes32"
        },
        {
          "indexed": false,
          "internalType": "string",
          "name": "question",
          "type": "string"
        },
        {
          "indexed": false,
          "internalType": "uint256",
          "name": "seedAmount",
          "type": "uint256"
        },
        {
          "indexed": false,
          "internalType": "uint256",
          "name": "closeTime",
          "type": "uint256"
        }
      ],
      "name": "MarketCreated",
      "type": "event"
    },
    {
      "anonymous": false,
      "inputs": [
        {
          "indexed": true,
          "internalType": "bytes32",
          "name": "marketId",
          "type": "bytes32"
        },
        {
          "indexed": false,
          "internalType": "bool",
          "name": "outcome",
          "type": "bool"
        },
        {
          "indexed": false,
          "internalType": "uint256",
          "name": "totalScore",
          "type": "uint256"
        }
      ],
      "name": "MarketResolved",
      "type": "event"
    },
    {
      "anonymous": false,
      "inputs": [
        {
          "indexed": true,
          "internalType": "address",
          "name": "previousOwner",
          "type": "address"
        },
        {
          "indexed": true,
          "internalType": "address",
          "name": "newOwner",
          "type": "address"
        }
      ],
      "name": "OwnershipTransferred",
      "type": "event"
    },
    {
      "anonymous": false,
      "inputs": [
        {
          "indexed": true,
          "internalType": "bytes32",
          "name": "marketId",
          "type": "bytes32"
        },
        {
          "indexed": true,
          "internalType": "address",
          "name": "agent",
          "type": "address"
        },
        {
          "indexed": false,
          "internalType": "uint256",
          "name": "amount",
          "type": "uint256"
        }
      ],
      "name": "PayoutClaimed",
      "type": "event"
    },
    {
      "anonymous": false,
      "inputs": [
        {
          "indexed": true,
          "internalType": "bytes32",
          "name": "marketId",
          "type": "bytes32"
        },
        {
          "indexed": true,
          "internalType": "address",
          "name": "agent",
          "type": "address"
        },
        {
          "indexed": false,
          "internalType": "uint256",
          "name": "pYes",
          "type": "uint256"
        }
      ],
      "name": "PredictionMade",
      "type": "event"
    },
    {
      "anonymous": false,
      "inputs": [
        {
          "indexed": false,
          "internalType": "address",
          "name": "oldTreasury",
          "type": "address"
        },
        {
          "indexed": false,
          "internalType": "address",
          "name": "newTreasury",
          "type": "address"
        }
      ],
      "name": "TreasuryUpdated",
      "type": "event"
    },
    {
      "inputs": [],
      "name": "BPS_DENOMINATOR",
      "outputs": [
        {
          "internalType": "uint256",
          "name": "",
          "type": "uint256"
        }
      ],
      "stateMutability": "view",
      "type": "function"
    },
    {
      "inputs": [],
      "name": "ENTRY_FEE",
      "outputs": [
        {
          "internalType": "uint256",
          "name": "",
          "type": "uint256"
        }
      ],
      "stateMutability": "view",
      "type": "function"
    },
    {
      "inputs": [],
      "name": "MAX_PYES",
      "outputs": [
        {
          "internalType": "uint256",
          "name": "",
          "type": "uint256"
        }
      ],
      "stateMutability": "view",
      "type": "function"
    },
    {
      "inputs": [],
      "name": "MIN_PYES",
      "outputs": [
        {
          "internalType": "uint256",
          "name": "",
          "type": "uint256"
        }
      ],
      "stateMutability": "view",
      "type": "function"
    },
    {
      "inputs": [],
      "name": "PLATFORM_FEE_BPS",
      "outputs": [
        {
          "internalType": "uint256",
          "name": "",
          "type": "uint256"
        }
      ],
      "stateMutability": "view",
      "type": "function"
    },
    {
      "inputs": [],
      "name": "PYES_DECIMALS",
      "outputs": [
        {
          "internalType": "uint256",
          "name": "",
          "type": "uint256"
        }
      ],
      "stateMutability": "view",
      "type": "function"
    },
    {
      "inputs": [
        {
          "internalType": "uint256",
          "name": "",
          "type": "uint256"
        }
      ],
      "name": "allMarkets",
      "outputs": [
        {
          "internalType": "bytes32",
          "name": "",
          "type": "bytes32"
        }
      ],
      "stateMutability": "view",
      "type": "function"
    },
    {
      "inputs": [
        {
          "internalType": "bytes32",
          "name": "marketId",
          "type": "bytes32"
        }
      ],
      "name": "claim",
      "outputs": [],
      "stateMutability": "nonpayable",
      "type": "function"
    },
    {
      "inputs": [
        {
          "internalType": "string",
          "name": "slug",
          "type": "string"
        },
        {
          "internalType": "string",
          "name": "question",
          "type": "string"
        },
        {
          "internalType": "uint256",
          "name": "seedAmount",
          "type": "uint256"
        },
        {
          "internalType": "uint256",
          "name": "closeTime",
          "type": "uint256"
        }
      ],
      "name": "createMarket",
      "outputs": [],
      "stateMutability": "nonpayable",
      "type": "function"
    },
    {
      "inputs": [
        {
          "internalType": "bytes32",
          "name": "marketId",
          "type": "bytes32"
        },
        {
          "internalType": "address",
          "name": "agent",
          "type": "address"
        },
        {
          "internalType": "bool",
          "name": "assumedOutcome",
          "type": "bool"
        }
      ],
      "name": "estimatePayout",
      "outputs": [
        {
          "internalType": "uint256",
          "name": "",
          "type": "uint256"
        }
      ],
      "stateMutability": "view",
      "type": "function"
    },
    {
      "inputs": [
        {
          "internalType": "bytes32",
          "name": "marketId",
          "type": "bytes32"
        }
      ],
      "name": "getMarket",
      "outputs": [
        {
          "internalType": "string",
          "name": "question",
          "type": "string"
        },
        {
          "internalType": "uint256",
          "name": "seedAmount",
          "type": "uint256"
        },
        {
          "internalType": "uint256",
          "name": "potAmount",
          "type": "uint256"
        },
        {
          "internalType": "uint256",
          "name": "closeTime",
          "type": "uint256"
        },
        {
          "internalType": "bool",
          "name": "resolved",
          "type": "bool"
        },
        {
          "internalType": "bool",
          "name": "outcome",
          "type": "bool"
        },
        {
          "internalType": "uint256",
          "name": "predictionCount",
          "type": "uint256"
        }
      ],
      "stateMutability": "view",
      "type": "function"
    },
    {
      "inputs": [
        {
          "internalType": "bytes32",
          "name": "marketId",
          "type": "bytes32"
        }
      ],
      "name": "getMarketAgents",
      "outputs": [
        {
          "internalType": "address[]",
          "name": "",
          "type": "address[]"
        }
      ],
      "stateMutability": "view",
      "type": "function"
    },
    {
      "inputs": [],
      "name": "getMarketCount",
      "outputs": [
        {
          "internalType": "uint256",
          "name": "",
          "type": "uint256"
        }
      ],
      "stateMutability": "view",
      "type": "function"
    },
    {
      "inputs": [
        {
          "internalType": "bytes32",
          "name": "marketId",
          "type": "bytes32"
        },
        {
          "internalType": "address",
          "name": "agent",
          "type": "address"
        }
      ],
      "name": "getPrediction",
      "outputs": [
        {
          "internalType": "uint256",
          "name": "pYes",
          "type": "uint256"
        },
        {
          "internalType": "uint256",
          "name": "timestamp",
          "type": "uint256"
        },
        {
          "internalType": "bool",
          "name": "claimed",
          "type": "bool"
        }
      ],
      "stateMutability": "view",
      "type": "function"
    },
    {
      "inputs": [
        {
          "internalType": "bytes32",
          "name": "",
          "type": "bytes32"
        },
        {
          "internalType": "uint256",
          "name": "",
          "type": "uint256"
        }
      ],
      "name": "marketAgents",
      "outputs": [
        {
          "internalType": "address",
          "name": "",
          "type": "address"
        }
      ],
      "stateMutability": "view",
      "type": "function"
    },
    {
      "inputs": [
        {
          "internalType": "bytes32",
          "name": "",
          "type": "bytes32"
        }
      ],
      "name": "markets",
      "outputs": [
        {
          "internalType": "bytes32",
          "name": "slug",
          "type": "bytes32"
        },
        {
          "internalType": "string",
          "name": "question",
          "type": "string"
        },
        {
          "internalType": "uint256",
          "name": "seedAmount",
          "type": "uint256"
        },
        {
          "internalType": "uint256",
          "name": "potAmount",
          "type": "uint256"
        },
        {
          "internalType": "uint256",
          "name": "closeTime",
          "type": "uint256"
        },
        {
          "internalType": "uint256",
          "name": "resolveTime",
          "type": "uint256"
        },
        {
          "internalType": "bool",
          "name": "resolved",
          "type": "bool"
        },
        {
          "internalType": "bool",
          "name": "outcome",
          "type": "bool"
        },
        {
          "internalType": "uint256",
          "name": "totalScore",
          "type": "uint256"
        },
        {
          "internalType": "uint256",
          "name": "predictionCount",
          "type": "uint256"
        }
      ],
      "stateMutability": "view",
      "type": "function"
    },
    {
      "inputs": [],
      "name": "owner",
      "outputs": [
        {
          "internalType": "address",
          "name": "",
          "type": "address"
        }
      ],
      "stateMutability": "view",
      "type": "function"
    },
    {
      "inputs": [
        {
          "internalType": "bytes32",
          "name": "marketId",
          "type": "bytes32"
        },
        {
          "internalType": "uint256",
          "name": "pYes",
          "type": "uint256"
        }
      ],
      "name": "predict",
      "outputs": [],
      "stateMutability": "nonpayable",
      "type": "function"
    },
    {
      "inputs": [
        {
          "internalType": "bytes32",
          "name": "",
          "type": "bytes32"
        },
        {
          "internalType": "address",
          "name": "",
          "type": "address"
        }
      ],
      "name": "predictions",
      "outputs": [
        {
          "internalType": "address",
          "name": "agent",
          "type": "address"
        },
        {
          "internalType": "uint256",
          "name": "pYes",
          "type": "uint256"
        },
        {
          "internalType": "uint256",
          "name": "timestamp",
          "type": "uint256"
        },
        {
          "internalType": "bool",
          "name": "claimed",
          "type": "bool"
        }
      ],
      "stateMutability": "view",
      "type": "function"
    },
    {
      "inputs": [],
      "name": "renounceOwnership",
      "outputs": [],
      "stateMutability": "nonpayable",
      "type": "function"
    },
    {
      "inputs": [
        {
          "internalType": "bytes32",
          "name": "marketId",
          "type": "bytes32"
        },
        {
          "internalType": "bool",
          "name": "outcome",
          "type": "bool"
        }
      ],
      "name": "resolveMarket",
      "outputs": [],
      "stateMutability": "nonpayable",
      "type": "function"
    },
    {
      "inputs": [
        {
          "internalType": "address",
          "name": "_treasury",
          "type": "address"
        }
      ],
      "name": "setTreasury",
      "outputs": [],
      "stateMutability": "nonpayable",
      "type": "function"
    },
    {
      "inputs": [
        {
          "internalType": "string",
          "name": "slug",
          "type": "string"
        }
      ],
      "name": "slugToId",
      "outputs": [
        {
          "internalType": "bytes32",
          "name": "",
          "type": "bytes32"
        }
      ],
      "stateMutability": "pure",
      "type": "function"
    },
    {
      "inputs": [
        {
          "internalType": "address",
          "name": "newOwner",
          "type": "address"
        }
      ],
      "name": "transferOwnership",
      "outputs": [],
      "stateMutability": "nonpayable",
      "type": "function"
    },
    {
      "inputs": [],
      "name": "treasury",
      "outputs": [
        {
          "internalType": "address",
          "name": "",
          "type": "address"
        }
      ],
      "stateMutability": "view",
      "type": "function"
    },
    {
      "inputs": [],
      "name": "usdt",
      "outputs": [
        {
          "internalType": "contract IERC20",
          "name": "",
          "type": "address"
        }
      ],
      "stateMutability": "view",
      "type": "function"
    }
  ],
  "bytecode": "0x60a06040523480156200001157600080fd5b5060405162001d7438038062001d748339810160408190526200003491620001b2565b33806200005c57604051631e4fbdf760e01b8152600060048201526024015b60405180910390fd5b620000678162000145565b50600180556001600160a01b038216620000c45760405162461bcd60e51b815260206004820152601460248201527f496e76616c696420555344542061646472657373000000000000000000000000604482015260640162000053565b6001600160a01b0381166200011c5760405162461bcd60e51b815260206004820152601860248201527f496e76616c696420747265617375727920616464726573730000000000000000604482015260640162000053565b6001600160a01b03918216608052600280546001600160a01b03191691909216179055620001ea565b600080546001600160a01b038381166001600160a01b0319831681178455604051919092169283917f8be0079c531659141344cd1fd0a4f28419497f9722a3daafe3b4186f6b6457e09190a35050565b80516001600160a01b0381168114620001ad57600080fd5b919050565b60008060408385031215620001c657600080fd5b620001d18362000195565b9150620001e16020840162000195565b90509250929050565b608051611b5262000222600039600081816101f70152818161060a015281816106770152818161098f01526111680152611b526000f3fe608060405234801561001057600080fd5b506004361061018e5760003560e01c8063715018a6116100de578063e1a4521811610097578063f2fde38b11610071578063f2fde38b146103bb578063f6d361cc146103ce578063fd69f3c2146103d8578063fe1063bc146103e057600080fd5b8063e1a4521814610397578063eaa47f60146103a0578063f0f44260146103a857600080fd5b8063715018a6146102b35780637564912b146102bb5780638da5cb5b146102e4578063ab9ab684146102f5578063bd66528a1461035e578063c3c95c7b1461037157600080fd5b80634c4e33a51161014b57806361d027b31161012557806361d027b314610285578063686fdaf61461027d5780636c9f1394146102985780636dfae1b7146102ab57600080fd5b80634c4e33a51461025757806352d84d1e1461026a578063539aa77f1461027d57600080fd5b80630208a3b2146101935780630a642f81146101a85780632e078a98146101d15780632f48ab7d146101f257806339b6ee191461023157806349df708514610244575b600080fd5b6101a66101a136600461157d565b610459565b005b6101bb6101b636600461159f565b6107b6565b6040516101c891906115b8565b60405180910390f35b6101e46101df36600461164e565b610822565b6040519081526020016101c8565b6102197f000000000000000000000000000000000000000000000000000000000000000081565b6040516001600160a01b0390911681526020016101c8565b6101a661023f366004611690565b610856565b6101e461025236600461173a565b610b4c565b61021961026536600461157d565b610c96565b6101e461027836600461159f565b610cce565b6101e4606481565b600254610219906001600160a01b031681565b6101a66102a6366004611776565b610cef565b6101e4600181565b6101a6610ef9565b6102ce6102c936600461159f565b610f0d565b6040516101c89a999897969594939291906117e8565b6000546001600160a01b0316610219565b610341610303366004611846565b60009182526004602090815260408084206001600160a01b03939093168452919052902060018101546002820154600390920154909260ff90911690565b6040805193845260208401929092521515908201526060016101c8565b6101a661036c36600461159f565b610feb565b61038461037f36600461159f565b6111d6565b6040516101c89796959493929190611869565b6101e461271081565b6101e4606381565b6101a66103b63660046118af565b6112cd565b6101a66103c93660046118af565b611387565b6101e4620186a081565b6006546101e4565b61042d6103ee366004611846565b600460209081526000928352604080842090915290825290208054600182015460028301546003909301546001600160a01b0390921692909160ff1684565b604080516001600160a01b039095168552602085019390935291830152151560608201526080016101c8565b6104616113c2565b600082815260036020526040902060048101546104bd5760405162461bcd60e51b815260206004820152601560248201527413585c9ad95d08191bd95cc81b9bdd08195e1a5cdd605a1b60448201526064015b60405180910390fd5b806004015442106105005760405162461bcd60e51b815260206004820152600d60248201526c13585c9ad95d0818db1bdcd959609a1b60448201526064016104b4565b600681015460ff16156105475760405162461bcd60e51b815260206004820152600f60248201526e13585c9ad95d081c995cdbdb1d9959608a1b60448201526064016104b4565b60018210158015610559575060638211155b6105995760405162461bcd60e51b815260206004820152601160248201527070596573206d75737420626520312d393960781b60448201526064016104b4565b60008381526004602090815260408083203384529091529020546001600160a01b0316156105fd5760405162461bcd60e51b8152602060048201526011602482015270105b1c9958591e481c1c99591a58dd1959607a1b60448201526064016104b4565b6106356001600160a01b037f0000000000000000000000000000000000000000000000000000000000000000163330620186a06113ec565b60006127106106486064620186a06118e0565b61065291906118f7565b9050600061066382620186a0611919565b6002549091506106a0906001600160a01b037f00000000000000000000000000000000000000000000000000000000000000008116911684611459565b808360030160008282546106b4919061192c565b90915550506008830180549060006106cb8361193f565b909155505060408051608081018252338082526020808301888152428486019081526000606086018181528c8252600485528782208683528552878220965187546001600160a01b039091166001600160a01b0319918216178855935160018089019190915592516002880155516003909601805496151560ff19909716969096179095558a8552600583528585208054918201815585529382902090930180549093168217909255915186815287917f19303e4747b51bd72cca4dcff2bfc9e07f403a5f7b23bcda41d580b9fbc1a139910160405180910390a35050506107b260018055565b5050565b60008181526005602090815260409182902080548351818402810184019094528084526060939283018282801561081657602002820191906000526020600020905b81546001600160a01b031681526001909101906020018083116107f8575b50505050509050919050565b60008282604051602001610837929190611958565b6040516020818303038152906040528051906020012090505b92915050565b61085e61148f565b60008686604051602001610873929190611958565b60408051601f19818403018152918152815160209283012060008181526003909352912060040154909150156108e35760405162461bcd60e51b81526020600482015260156024820152744d61726b657420616c72656164792065786973747360581b60448201526064016104b4565b4282116109325760405162461bcd60e51b815260206004820152601c60248201527f436c6f73652074696d65206d75737420626520696e206675747572650000000060448201526064016104b4565b600083116109825760405162461bcd60e51b815260206004820152601c60248201527f5365656420616d6f756e74206d75737420626520706f7369746976650000000060448201526064016104b4565b6109b76001600160a01b037f0000000000000000000000000000000000000000000000000000000000000000163330866113ec565b60405180610140016040528082815260200186868080601f016020809104026020016040519081016040528093929190818152602001838380828437600092018290525093855250505060208083018790526040808401889052606084018790526080840183905260a0840183905260c0840183905260e084018390526101009093018290528482526003815291902082518155908201516001820190610a5e9082611a06565b506040828101516002830155606083015160038301556080830151600483015560a0830151600583015560c08301516006808401805460e087015161ffff1990911693151561ff0019169390931761010093151584021790559084015160078401556101209093015160089092019190915581546001810183556000929092527ff652222313e28459528d920b65115c16c04f3efc82aaedc97be59f3f377c0d3f9091018290555181907f5f15cf7c4bbf2085d2ec739480dcdcd1a5e04aaa772f337c8670c5b5590fd36f90610b3b908890889088908890611ac6565b60405180910390a250505050505050565b6000838152600360209081526040808320600483528184206001600160a01b038088168652935290832080549192909116610b8c57600092505050610c8f565b6000868152600560205260408120815b8154811015610c3257600089815260046020526040812083548290859085908110610bc957610bc9611b06565b60009182526020808320909101546001600160a01b031683528201929092526040018120915088610c09576001820154610c04906064611919565b610c0f565b81600101545b9050610c1b818661192c565b945050508080610c2a9061193f565b915050610b9c565b5081600003610c48576000945050505050610c8f565b600086610c64576001840154610c5f906064611919565b610c6a565b83600101545b905082856003015482610c7d91906118e0565b610c8791906118f7565b955050505050505b9392505050565b60056020528160005260406000208181548110610cb257600080fd5b6000918252602090912001546001600160a01b03169150829050565b60068181548110610cde57600080fd5b600091825260209091200154905081565b610cf761148f565b60008281526003602052604090206004810154610d4e5760405162461bcd60e51b815260206004820152601560248201527413585c9ad95d08191bd95cc81b9bdd08195e1a5cdd605a1b60448201526064016104b4565b600681015460ff1615610d965760405162461bcd60e51b815260206004820152601060248201526f105b1c9958591e481c995cdbdb1d995960821b60448201526064016104b4565b8060040154421015610de25760405162461bcd60e51b815260206004820152601560248201527413585c9ad95d081b9bdd0818db1bdcd959081e595d605a1b60448201526064016104b4565b6006810180548315156101000261ffff1990911617600117905542600580830191909155600084815260209190915260408120815b8154811015610ead57600086815260046020526040812083548290859085908110610e4457610e44611b06565b60009182526020808320909101546001600160a01b031683528201929092526040018120915086610e84576001820154610e7f906064611919565b610e8a565b81600101545b9050610e96818661192c565b945050508080610ea59061193f565b915050610e17565b50600783018290556040805185151581526020810184905286917fd1ee03fcdb939115d950195304c717ca750388cb66402e95c911d3d0858bb5a3910160405180910390a25050505050565b610f0161148f565b610f0b60006114bc565b565b60036020526000908152604090208054600182018054919291610f2f9061197e565b80601f0160208091040260200160405190810160405280929190818152602001828054610f5b9061197e565b8015610fa85780601f10610f7d57610100808354040283529160200191610fa8565b820191906000526020600020905b815481529060010190602001808311610f8b57829003601f168201915b505050600284015460038501546004860154600587015460068801546007890154600890990154979894979396509194509260ff8083169361010090930416918a565b610ff36113c2565b6000818152600360205260409020600681015460ff1661104b5760405162461bcd60e51b815260206004820152601360248201527213585c9ad95d081b9bdd081c995cdbdb1d9959606a1b60448201526064016104b4565b6000828152600460209081526040808320338452909152902080546001600160a01b03166110b15760405162461bcd60e51b8152602060048201526013602482015272139bc81c1c99591a58dd1a5bdb88199bdd5b99606a1b60448201526064016104b4565b600381015460ff16156110f85760405162461bcd60e51b815260206004820152600f60248201526e105b1c9958591e4818db185a5b5959608a1b60448201526064016104b4565b60038101805460ff191660011790556006820154600090610100900460ff1661113057600182015461112b906064611919565b611136565b81600101545b90506000836007015484600301548361114f91906118e0565b61115991906118f7565b905061118f6001600160a01b037f0000000000000000000000000000000000000000000000000000000000000000163383611459565b604051818152339086907f038b0cdf6318f158304d2b2f11b821333b4e69a21d83e945b6a741e1bbfc234b9060200160405180910390a3505050506111d360018055565b50565b6000818152600360208190526040822060028101549181015460048201546006830154600884015460018501805460609897889788978897889788979396959293919260ff8083169361010090930416919087906112339061197e565b80601f016020809104026020016040519081016040528092919081815260200182805461125f9061197e565b80156112ac5780601f10611281576101008083540402835291602001916112ac565b820191906000526020600020905b81548152906001019060200180831161128f57829003601f168201915b50505050509650975097509750975097509750975050919395979092949650565b6112d561148f565b6001600160a01b03811661131e5760405162461bcd60e51b815260206004820152601060248201526f496e76616c696420747265617375727960801b60448201526064016104b4565b600254604080516001600160a01b03928316815291831660208301527f4ab5be82436d353e61ca18726e984e561f5c1cc7c6d38b29d2553c790434705a910160405180910390a1600280546001600160a01b0319166001600160a01b0392909216919091179055565b61138f61148f565b6001600160a01b0381166113b957604051631e4fbdf760e01b8152600060048201526024016104b4565b6111d3816114bc565b6002600154036113e557604051633ee5aeb560e01b815260040160405180910390fd5b6002600155565b6040516001600160a01b0384811660248301528381166044830152606482018390526114539186918216906323b872dd906084015b604051602081830303815290604052915060e01b6020820180516001600160e01b03838183161783525050505061150c565b50505050565b6040516001600160a01b0383811660248301526044820183905261148a91859182169063a9059cbb90606401611421565b505050565b6000546001600160a01b03163314610f0b5760405163118cdaa760e01b81523360048201526024016104b4565b600080546001600160a01b038381166001600160a01b0319831681178455604051919092169283917f8be0079c531659141344cd1fd0a4f28419497f9722a3daafe3b4186f6b6457e09190a35050565b600080602060008451602086016000885af18061152f576040513d6000823e3d81fd5b50506000513d91508115611547578060011415611554565b6001600160a01b0384163b155b1561145357604051635274afe760e01b81526001600160a01b03851660048201526024016104b4565b6000806040838503121561159057600080fd5b50508035926020909101359150565b6000602082840312156115b157600080fd5b5035919050565b6020808252825182820181905260009190848201906040850190845b818110156115f95783516001600160a01b0316835292840192918401916001016115d4565b50909695505050505050565b60008083601f84011261161757600080fd5b50813567ffffffffffffffff81111561162f57600080fd5b60208301915083602082850101111561164757600080fd5b9250929050565b6000806020838503121561166157600080fd5b823567ffffffffffffffff81111561167857600080fd5b61168485828601611605565b90969095509350505050565b600080600080600080608087890312156116a957600080fd5b863567ffffffffffffffff808211156116c157600080fd5b6116cd8a838b01611605565b909850965060208901359150808211156116e657600080fd5b506116f389828a01611605565b979a9699509760408101359660609091013595509350505050565b80356001600160a01b038116811461172557600080fd5b919050565b8035801515811461172557600080fd5b60008060006060848603121561174f57600080fd5b8335925061175f6020850161170e565b915061176d6040850161172a565b90509250925092565b6000806040838503121561178957600080fd5b823591506117996020840161172a565b90509250929050565b6000815180845260005b818110156117c8576020818501810151868301820152016117ac565b506000602082860101526020601f19601f83011685010191505092915050565b60006101408c83528060208401526118028184018d6117a2565b604084019b909b5250506060810197909752608087019590955260a086019390935290151560c0850152151560e08401526101008301526101209091015292915050565b6000806040838503121561185957600080fd5b823591506117996020840161170e565b60e08152600061187c60e083018a6117a2565b602083019890985250604081019590955260608501939093529015156080840152151560a083015260c090910152919050565b6000602082840312156118c157600080fd5b610c8f8261170e565b634e487b7160e01b600052601160045260246000fd5b8082028115828204841417610850576108506118ca565b60008261191457634e487b7160e01b600052601260045260246000fd5b500490565b81810381811115610850576108506118ca565b80820180821115610850576108506118ca565b600060018201611951576119516118ca565b5060010190565b8183823760009101908152919050565b634e487b7160e01b600052604160045260246000fd5b600181811c9082168061199257607f821691505b6020821081036119b257634e487b7160e01b600052602260045260246000fd5b50919050565b601f82111561148a57600081815260208120601f850160051c810160208610156119df5750805b601f850160051c820191505b818110156119fe578281556001016119eb565b505050505050565b815167ffffffffffffffff811115611a2057611a20611968565b611a3481611a2e845461197e565b846119b8565b602080601f831160018114611a695760008415611a515750858301515b600019600386901b1c1916600185901b1785556119fe565b600085815260208120601f198616915b82811015611a9857888601518255948401946001909101908401611a79565b5085821015611ab65787850151600019600388901b60f8161c191681555b5050505050600190811b01905550565b606081528360608201528385608083013760006080858301015260006080601f19601f870116830101905083602083015282604083015295945050505050565b634e487b7160e01b600052603260045260246000fdfea264697066735822122011994dafef4578cf88e6088ee511d6e54fb4c0cdc99db9b6ef528f9b5a8d7e8d64736f6c63430008140033",
  "linkReferences": {},
  "deployedLinkReferences": {}
}